
MODBUS.elf:     file format elf32-littleriscv
MODBUS.elf
architecture: riscv:rv32, flags 0x00000112:
EXEC_P, HAS_SYMS, D_PAGED
start address 0x00000000

Program Header:
    LOAD off    0x00001000 vaddr 0x00000000 paddr 0x00000000 align 2**12
         filesz 0x0000ed50 memsz 0x0000ed50 flags r-x
    LOAD off    0x00010000 vaddr 0x20000000 paddr 0x0000ed50 align 2**12
         filesz 0x00000348 memsz 0x000077cc flags rw-
    LOAD off    0x00010800 vaddr 0x2000f800 paddr 0x2000f800 align 2**12
         filesz 0x00000000 memsz 0x00000800 flags rw-

Sections:
Idx Name          Size      VMA       LMA       File off  Algn
  0 .init         00000038  00000000  00000000  00001000  2**1
                  CONTENTS, ALLOC, LOAD, READONLY, CODE
  1 .vector       000001c8  00000038  00000038  00001038  2**1
                  CONTENTS, ALLOC, LOAD, READONLY, CODE
  2 .text         0000eb50  00000200  00000200  00001200  2**2
                  CONTENTS, ALLOC, LOAD, READONLY, CODE
  3 .fini         00000000  0000ed50  0000ed50  00010348  2**0
                  CONTENTS, ALLOC, LOAD, CODE
  4 .dalign       00000000  20000000  20000000  00010348  2**0
                  CONTENTS
  5 .dlalign      00000000  0000ed50  0000ed50  00010348  2**0
                  CONTENTS
  6 .data         00000348  20000000  0000ed50  00010000  2**2
                  CONTENTS, ALLOC, LOAD, DATA
  7 .bss          00007484  20000348  0000f098  00010348  2**3
                  ALLOC
  8 .stack        00000800  2000f800  2000f800  00010800  2**0
                  ALLOC
  9 .debug_info   000436c3  00000000  00000000  00010348  2**0
                  CONTENTS, READONLY, DEBUGGING
 10 .debug_abbrev 0000a997  00000000  00000000  00053a0b  2**0
                  CONTENTS, READONLY, DEBUGGING
 11 .debug_loc    0000b160  00000000  00000000  0005e3a2  2**0
                  CONTENTS, READONLY, DEBUGGING
 12 .debug_aranges 00001878  00000000  00000000  00069508  2**3
                  CONTENTS, READONLY, DEBUGGING
 13 .debug_ranges 00001bf0  00000000  00000000  0006ad80  2**3
                  CONTENTS, READONLY, DEBUGGING
 14 .debug_line   0001ec82  00000000  00000000  0006c970  2**0
                  CONTENTS, READONLY, DEBUGGING
 15 .debug_str    0000703b  00000000  00000000  0008b5f2  2**0
                  CONTENTS, READONLY, DEBUGGING
 16 .comment      00000033  00000000  00000000  0009262d  2**0
                  CONTENTS, READONLY
 17 .debug_frame  00004a78  00000000  00000000  00092660  2**2
                  CONTENTS, READONLY, DEBUGGING
 18 .stabstr      00000117  00000000  00000000  000970d8  2**0
                  CONTENTS, READONLY, DEBUGGING
SYMBOL TABLE:
00000000 l    d  .init	00000000 .init
00000038 l    d  .vector	00000000 .vector
00000200 l    d  .text	00000000 .text
0000ed50 l    d  .fini	00000000 .fini
20000000 l    d  .dalign	00000000 .dalign
0000ed50 l    d  .dlalign	00000000 .dlalign
20000000 l    d  .data	00000000 .data
20000348 l    d  .bss	00000000 .bss
2000f800 l    d  .stack	00000000 .stack
00000000 l    d  .debug_info	00000000 .debug_info
00000000 l    d  .debug_abbrev	00000000 .debug_abbrev
00000000 l    d  .debug_loc	00000000 .debug_loc
00000000 l    d  .debug_aranges	00000000 .debug_aranges
00000000 l    d  .debug_ranges	00000000 .debug_ranges
00000000 l    d  .debug_line	00000000 .debug_line
00000000 l    d  .debug_str	00000000 .debug_str
00000000 l    d  .comment	00000000 .comment
00000000 l    d  .debug_frame	00000000 .debug_frame
00000000 l    d  .stabstr	00000000 .stabstr
00000000 l    df *ABS*	00000000 ./Startup/startup_ch32v30x.o
00000038 l       .vector	00000000 _vector_base
00000000 l    df *ABS*	00000000 ssd1306.c
00000000 l    df *ABS*	00000000 ssd1306_moudle1.c
00000000 l    df *ABS*	00000000 gui_key.c
20001c48 l     O .bss	00000200 stk.9588
20001e48 l     O .bss	00000080 tcb.9589
2000034b l     O .bss	00000001 key_scnt.9596
00000000 l    df *ABS*	00000000 gui_main.c
20002010 l     O .bss	00000400 gui_stk.10492
20002410 l     O .bss	00000080 tcb_gui.10493
00000000 l    df *ABS*	00000000 key_opt.c
00000000 l    df *ABS*	00000000 mbapp.c
00000000 l    df *ABS*	00000000 mbossync.c
00000000 l    df *ABS*	00000000 qc_reg.c
00000000 l    df *ABS*	00000000 bsp.c
00000000 l    df *ABS*	00000000 bsp_app_tick.c
20003164 l     O .bss	00000020 task_list
20003184 l     O .bss	0000000c task_vect
00000000 l    df *ABS*	00000000 bsp_cpu.c
00000000 l    df *ABS*	00000000 bsp_cpu_it.c
00000000 l    df *ABS*	00000000 bsp_delay.c
00000000 l    df *ABS*	00000000 bsp_io.c
0000d418 l     O .text	0000012c gpio_cfg
00000000 l    df *ABS*	00000000 bsp_lib_surport.c
00000000 l    df *ABS*	00000000 bsp_spi.c
00000000 l    df *ABS*	00000000 bsp_stack.c
00000000 l    df *ABS*	00000000 bsp_uart.c
00000000 l    df *ABS*	00000000 bsp_uart_timer.c
00000000 l    df *ABS*	00000000 bsp_qcom_07.c
00001730 l     F .text	0000000a qc_rtu_byte_send
0000173a l     F .text	00000014 qc_timer_run
0000174e l     F .text	0000001a USART7_obj_init
00001768 l     F .text	00000014 USART7_cmd_idle_num
0000177c l     F .text	00000014 USART7_cmd_ready_num
00001790 l     F .text	00000016 USART7_stc_cmd_del
000017a6 l     F .text	00000018 USART7_stc_cmd_req
000017be l     F .text	00000016 USART7_dyna_cmd_req
000017d4 l     F .text	00000014 USART7_cmd_clr
000017e8 l     F .text	0000005a qc_tx1_rx0_enable.part.0
0000190e l     F .text	0000003e qc_port_send
0000d5e0 l     O .text	0000001c USART7_api
0000d5fc l     O .text	00000018 qc_mb_slave
00000000 l    df *ABS*	00000000 bsp_qcom_08.c
00001ac0 l     F .text	00000008 qc_rtu_byte_send
00001ac8 l     F .text	00000014 qc_timer_run
00001adc l     F .text	0000001a USART8_obj_init
00001af6 l     F .text	00000014 USART8_cmd_idle_num
00001b0a l     F .text	00000014 USART8_cmd_ready_num
00001b1e l     F .text	00000016 USART8_stc_cmd_del
00001b34 l     F .text	00000018 USART8_stc_cmd_req
00001b4c l     F .text	00000016 USART8_dyna_cmd_req
00001b62 l     F .text	00000014 USART8_cmd_clr
00001b76 l     F .text	00000040 qc_tx1_rx0_enable.part.0
00001c74 l     F .text	00000032 qc_port_send
0000d614 l     O .text	0000001c USART8_api
0000d630 l     O .text	00000018 qc_mb_slave
00000000 l    df *ABS*	00000000 com_port01.c
00001e14 l     F .text	00000026 com_hal_send
00001e3a l     F .text	0000001c com_hal_read
00001e56 l     F .text	0000001c comapi_tail_rcv_end_2B
00001e72 l     F .text	0000001c comapi_tail_rcv_end_3B
00001e8e l     F .text	0000001c comapi_tail_rcv_end_4B
00001eaa l     F .text	0000001a comapi_tail_rcv_line
00001ec4 l     F .text	0000001a comapi_tail_rcv_multi
00001ede l     F .text	00000016 comapi_tail_rcv_byte
00001ef4 l     F .text	00000014 comapi_snd_remain_amount
00001f08 l     F .text	00000014 comapi_rcv_remain_amount
00001f1c l     F .text	0000001a comapi_rcv_end_2B
00001f36 l     F .text	0000001a comapi_rcv_end_3B
00001f50 l     F .text	0000001a comapi_rcv_end_4B
00001f6a l     F .text	00000018 comapi_rcv_line
00001f82 l     F .text	00000018 comapi_rcv_multi
00001f9a l     F .text	00000018 comapi_snd_data
00001fb2 l     F .text	00000016 comapi_snd_string
00001fc8 l     F .text	00000014 comapi_rcv_byte
00001fdc l     F .text	00000016 comapi_snd_byte
00001ff2 l     F .text	00000014 comapi_snd_st_clr
00002006 l     F .text	00000014 comapi_rcv_st_clr
0000201a l     F .text	00000016 comapi_wait_for_idle
00002030 l     F .text	00000014 comapi_idle_check
00002044 l     F .text	00000030 com_rx_enable.part.0
00002074 l     F .text	00000028 com_rx_enable
0000209c l     F .text	00000042 com_tx_enable
000020de l     F .text	00000048 com_timer_handle
200032f0 l     O .bss	00000080 com_rx_buff
20003370 l     O .bss	00000600 com_tx_buff
0000d648 l     O .text	00000064 comapi_com_fun
20000354 l     O .bss	00000001 b_dir_ctr_req
00000000 l    df *ABS*	00000000 console_cmd.c
00000000 l    df *ABS*	00000000 console_func.c
00000000 l    df *ABS*	00000000 console_task.c
200039c0 l     O .bss	00000065 console_buff
00000000 l    df *ABS*	00000000 dgb_fun.c
00000000 l    df *ABS*	00000000 fun_list.c
0000284e l     F .text	00000002 nsys_head
0000285a l     F .text	00000002 napp_head
0000285c l     F .text	00000002 napp_tail
00002864 l     F .text	00000002 nsys_tail
00000000 l    df *ABS*	00000000 os_obj.c
00000000 l    df *ABS*	00000000 sys_com.c
200062c0 l     O .bss	000000f1 buf_str
00000000 l    df *ABS*	00000000 sys_init.c
00002b30 l     F .text	00000002 sysinit_start
00002b32 l     F .text	00000002 sysapp_end
00002b34 l     F .text	00000002 sysinit_end
00000000 l    df *ABS*	00000000 sys_task.c
20000320 l     O .data	00000002 st.9708
00000000 l    df *ABS*	00000000 clock.c
20000358 l     O .bss	00000004 rt_tick
00000000 l    df *ABS*	00000000 components.c
00002d10 l     F .text	00000004 rti_start
00002d14 l     F .text	00000004 rti_end
00002d18 l     F .text	00000004 rti_board_start
00002d1c l     F .text	00000004 rti_board_end
00000000 l    df *ABS*	00000000 device.c
00000000 l    df *ABS*	00000000 idle.c
00002eca l     F .text	00000022 rt_thread_idle_entry
20006450 l     O .bss	00000080 idle
200064d0 l     O .bss	00000010 idle_hook_list
200064e0 l     O .bss	00000200 rt_thread_stack
00000000 l    df *ABS*	00000000 ipc.c
00002f2c l     F .text	0000005c rt_ipc_list_suspend
00000000 l    df *ABS*	00000000 irq.c
2000035c l     O .bss	00000004 rt_interrupt_enter_hook
20000360 l     O .bss	00000004 rt_interrupt_leave_hook
00000000 l    df *ABS*	00000000 kservice.c
00000000 l    df *ABS*	00000000 mem.c
0000339a l     F .text	00000058 plug_holes
200066e0 l     O .bss	00000020 heap_sem
20000368 l     O .bss	00000004 heap_end
2000036c l     O .bss	00000004 heap_ptr
20000370 l     O .bss	00000004 lfree
20000374 l     O .bss	00000004 max_mem
20000378 l     O .bss	00000004 mem_size_aligned
2000037c l     O .bss	00000004 rt_free_hook
20000380 l     O .bss	00000004 rt_malloc_hook
20000384 l     O .bss	00000004 used_mem
00000000 l    df *ABS*	00000000 object.c
20000000 l     O .data	00000080 rt_object_container
20000388 l     O .bss	00000004 rt_object_attach_hook
2000038c l     O .bss	00000004 rt_object_detach_hook
00000000 l    df *ABS*	00000000 scheduler.c
200003a4 l     O .bss	00000004 rt_scheduler_hook
200003a8 l     O .bss	00000002 rt_scheduler_lock_nest
00000000 l    df *ABS*	00000000 thread.c
0000396c l     F .text	0000008e _rt_thread_init.isra.0
200003b8 l     O .bss	00000004 rt_thread_inited_hook
200003bc l     O .bss	00000004 rt_thread_resume_hook
200003c0 l     O .bss	00000004 rt_thread_suspend_hook
00000000 l    df *ABS*	00000000 timer.c
00003cbe l     F .text	00000012 _rt_timer_remove.part.1
200003c4 l     O .bss	00000004 random_nr.2465
200003c8 l     O .bss	00000004 rt_timer_enter_hook
200003cc l     O .bss	00000004 rt_timer_exit_hook
200003d0 l     O .bss	00000008 rt_timer_list
00000000 l    df *ABS*	00000000 cpuport.c
00000000 l    df *ABS*	00000000 pin.c
00003f24 l     F .text	0000001c _pin_control
00003f40 l     F .text	0000002e _pin_read
00003f6e l     F .text	0000002c _pin_write
20006780 l     O .bss	00000048 _hw_pin
00000000 l    df *ABS*	00000000 board.c
200067c8 l     O .bss	00001000 rt_heap
00000000 l    df *ABS*	00000000 drv_gpio.c
00004094 l     F .text	0000001c bit2bitno
000040b0 l     F .text	00000012 GPIOD_CLK_ENABLE
000040c2 l     F .text	00000010 GPIOB_CLK_ENABLE
000040d2 l     F .text	00000010 GPIOA_CLK_ENABLE
000040e2 l     F .text	00000010 GPIOC_CLK_ENABLE
000040f2 l     F .text	00000012 GPIOE_CLK_ENABLE
0000dee8 l     O .text	00000018 _ch32_pin_ops
0000df00 l     O .text	00000080 pin_irq_map
0000df80 l     O .text	00000650 pins
00000000 l    df *ABS*	00000000 ch32v30x_it.c
00000000 l    df *ABS*	00000000 main.c
00000000 l    df *ABS*	00000000 system_ch32v30x.c
00000000 l    df *ABS*	00000000 ch32v30x_exti.c
00000000 l    df *ABS*	00000000 ch32v30x_gpio.c
00000000 l    df *ABS*	00000000 ch32v30x_rcc.c
20000140 l     O .data	00000010 APBAHBPrescTable
20000328 l     O .data	00000004 ADCPrescTable
00000000 l    df *ABS*	00000000 ch32v30x_spi.c
00000000 l    df *ABS*	00000000 ch32v30x_usart.c
00000000 l    df *ABS*	00000000 debug.c
2000032c l     O .data	00000004 curbrk.5220
00000000 l    df *ABS*	00000000 iohandle.c
00000000 l    df *ABS*	00000000 lcd_yl.c
200003e4 l     O .bss	00000002 lcd_x_offset
200003e6 l     O .bss	00000002 lcd_y_offset
200003e8 l     O .bss	00000004 lcd_yl_ascii_img
200003ec l     O .bss	00000001 lcd_yl_data_mask
200003ed l     O .bss	00000001 lcd_yl_font_size_x
200003ee l     O .bss	00000001 lcd_yl_font_size_y
200003ef l     O .bss	00000001 lcd_yl_font_space_x
200003f0 l     O .bss	00000001 lcd_yl_half_space_en
200003f1 l     O .bss	00000001 lcd_yl_update_cnt
200003f4 l     O .bss	00000004 p_lcd_ram
00000000 l    df *ABS*	00000000 dataproc.c
00000000 l    df *ABS*	00000000 str_ext.c
00000000 l    df *ABS*	00000000 rtctime.c
00000000 l    df *ABS*	00000000 vtasklistmanger.c
00000000 l    df *ABS*	00000000 simp_txt_analysis.c
00000000 l    df *ABS*	00000000 password.c
00000000 l    df *ABS*	00000000 staticpulse.c
00000000 l    df *ABS*	00000000 com_manager.c
00000000 l    df *ABS*	00000000 qcom_cmd.c
00000000 l    df *ABS*	00000000 qcom_hal.c
00000000 l    df *ABS*	00000000 mbcrc.c
0000e650 l     O .text	00000100 mb_crc_hi
0000e750 l     O .text	00000100 mb_crc_lo
00000000 l    df *ABS*	00000000 qcom.c
00000000 l    df *ABS*	00000000 swap.c
00000000 l    df *ABS*	00000000 dat_quene.c
00000000 l    df *ABS*	00000000 qcom_smb.c
00000000 l    df *ABS*	00000000 qcom_mmb.c
0000860c l     F .text	0000003e mqc_mb_coils_read_ret_proc
0000864a l     F .text	0000004a mqc_mb_word_read_ret_proc
00008694 l     F .text	000000ee mqc_mb_funcode_next
2000033c l     O .data	00000007 CSWTCH.21
00000000 l    df *ABS*	00000000 addsf3.c
00000000 l    df *ABS*	00000000 divsf3.c
00000000 l    df *ABS*	00000000 gesf2.c
00000000 l    df *ABS*	00000000 lesf2.c
00000000 l    df *ABS*	00000000 subsf3.c
00000000 l    df *ABS*	00000000 fixsfsi.c
00000000 l    df *ABS*	00000000 floatsisf.c
00000000 l    df *ABS*	00000000 extendsfdf2.c
00000000 l    df *ABS*	00000000 libgcc2.c
00000000 l    df *ABS*	00000000 atoi.c
00000000 l    df *ABS*	00000000 memcpy.c
00000000 l    df *ABS*	00000000 nano-mallocr.c
00000000 l    df *ABS*	00000000 nano-mallocr.c
00000000 l    df *ABS*	00000000 sbrkr.c
00000000 l    df *ABS*	00000000 strcpy.c
00000000 l    df *ABS*	00000000 strlen.c
00000000 l    df *ABS*	00000000 strtol.c
00009dc4 l     F .text	00000138 _strtol_l.isra.0
00000000 l    df *ABS*	00000000 vsnprintf.c
00000000 l    df *ABS*	00000000 locale.c
00000000 l    df *ABS*	00000000 mbtowc_r.c
00000000 l    df *ABS*	00000000 mlock.c
00000000 l    df *ABS*	00000000 nano-vfprintf.c
00000000 l    df *ABS*	00000000 nano-vfprintf_i.c
00000000 l    df *ABS*	00000000 wctomb_r.c
00000000 l    df *ABS*	00000000 memchr.c
00000000 l    df *ABS*	00000000 memmove.c
00000000 l    df *ABS*	00000000 nano-mallocr.c
00000000 l    df *ABS*	00000000 nano-mallocr.c
00000000 l    df *ABS*	00000000 ascii_12_24.c
00000000 l    df *ABS*	00000000 ascii_16_32.c
00000000 l    df *ABS*	00000000 ascii_8_16.c
00000000 l    df *ABS*	00000000 libgcc2.c
00000000 l    df *ABS*	00000000 findfp.c
00000000 l    df *ABS*	00000000 ctype_.c
00000000 l    df *ABS*	00000000 impure.c
20000150 l     O .data	00000060 impure_data
00000000 l    df *ABS*	00000000 KS0107CFG.c
00000000 l    df *ABS*	00000000 com_ext.c
00000000 l    df *ABS*	00000000 reent.c
00000000 l    df *ABS*	00000000 close.c
0000a788 g     F .text	00000014 _malloc_usable_size_r
00007c1c g     F .text	00000012 qc_mb_poll
000044ac g     F .text	00000024 EXTI2_IRQHandler
00007536 g     F .text	0000008c com_tail_rcv_end_3B
00000d10 g     F .text	000000a6 app_tick_init
00004784  w      .text	00000000 TIM8_TRG_COM_IRQHandler
000010f4 g     F .text	0000001a oled_dc_pin_tog
000014e4 g     F .text	00000014 user_key_dir_in_dn
00004786  w      .text	00000000 TIM8_CC_IRQHandler
000061e2 g     F .text	00000064 str_to_i32_array
00008a2c g     F .text	0000009e mqc_mb_multi_holding_write
00002dc4 g     F .text	0000000e entry
20001ec8 g     O .bss	00000148 gui_st
00009da2 g     F .text	00000010 strcpy
00003754 g     F .text	00000008 rt_object_is_systemobject
00002856 g     F .text	00000002 func22
000032f4 g     F .text	0000002c rt_strncpy
00003e9a g     F .text	00000036 rt_hw_stack_init
00002b36  w    F .text	00000002 sys_app_hook
00003bcc g     F .text	00000010 rt_thread_mdelay
0000105e g     F .text	00000010 o_led1_pin_in_st
00006020 g     F .text	00000012 set_u32
00000f50 g     F .text	00000020 UART8_IRQHandler
20001c10 g     O .bss	00000034 key_pulse
0000128c g     F .text	0000003e bsp_gpio_mode_out_pp
000088b4 g     F .text	00000066 mqc_mb_input_read
00005b4a g     F .text	00000010 lcd_yl_alain_puts
000036c6 g     F .text	0000005a rt_object_allocate
00005822 g     F .text	00000076 lcd_yl_put_nums
000015ce g     F .text	00000016 o_led1_mode_set
00002578 g     F .text	00000004 dbg_fun_list_start
00006246 g     F .text	00000064 str_to_i16_array
20000348 g     O .bss	00000001 click_found_cnt
00007d8a g     F .text	00000018 com_quene_remain_amount
000079ba g     F .text	0000003c qc_data_send
20003144 g     O .bss	00000020 hdat
00001008 g     F .text	0000000c o_led1_pin_en
00001ca6 g     F .text	0000016e qc08_Init
0000dde0 g     O .text	00000100 __lowest_bit_bitmap
0000a79c g     O .text	00000d80 Font_12_24
00000a2e g     F .text	00000002 key_shift_press
000016a0 g     F .text	00000038 stack_used
20000b20 g       .data	00000000 __global_pointer$
0000378e g     F .text	00000030 rt_system_scheduler_start
000003ba g     F .text	00000028 .hidden __riscv_save_8
00004760  w      .text	00000000 TIM1_CC_IRQHandler
200003dc g     O .bss	00000004 rt_interrupt_to_thread
00000a3a g     F .text	00000002 key_up_press
00006422 g     F .text	00000032 str_add
00000cb0 g     F .text	00000014 qc_coil_dat_set
0000460a g     F .text	00000008 HardFault_Handler
0000ed34 g     O .text	00000004 __sys_init_sysinit_start
000076c0 g     F .text	000000f2 com_timer_run
00001bb6 g     F .text	000000be QC_UART8_IRQHandler
00009fc0 g     F .text	00000002 __malloc_unlock
000007ae g     F .text	00000038 key_scan
20002f30 g     O .bss	00000202 mb_tst
00002548 g     F .text	00000030 task_console
000005ae g     F .text	0000002a oled1_write_cmd
00001488 g     F .text	00000014 user_key_dir_in_up
00000406 g     F .text	0000000c .hidden __riscv_restore_3
00000fe4 g     F .text	0000001c TIM6_IRQHandler
000091bc g     F .text	000002ae .hidden __divsf3
00001086 g     F .text	00000014 o_led2_pin_out
00000a30 g     F .text	00000002 key_shift_release
00004074 g     F .text	00000020 SysTick_Handler
00007b16  w    F .text	00000002 qc_hold_dat_set
00006636 g     F .text	00000024 vtask_list_init
00000580 g     F .text	0000002e lcd_data_write
00003bc0 g     F .text	0000000c rt_thread_delay
00003590 g     F .text	0000007e rt_free
200003d8 g     O .bss	00000004 rt_interrupt_from_thread
000033f2 g     F .text	0000006e rt_system_heap_init
000074b4 g     F .text	00000082 com_tail_rcv_end_4B
000009e8 g     F .text	00000026 key_set_press
0000472c  w      .text	00000000 PVD_IRQHandler
0000ed08 g     O .text	00000004 __fun_ptr_func21
00002d60 g     F .text	00000010 main_thread_entry
0000478c  w      .text	00000000 SDIO_IRQHandler
0000a6ea g     F .text	00000046 memmove
00007c2e g     F .text	00000022 qc_exe_success
000047be  w      .text	00000000 TIM9_BRK_IRQHandler
00003e16 g     F .text	00000078 rt_timer_check
000003f2 g     F .text	00000020 .hidden __riscv_restore_10
00002a62 g     F .text	0000002c __sys_put_ch
0000382c g     F .text	0000004c rt_schedule_insert_thread
000047d2  w      .text	00000000 DMA2_Channel8_IRQHandler
000045f6 g     F .text	00000014 NMI_Handler
00007bd2 g     F .text	0000004a qc_package_send
0000053c g     F .text	00000028 oled_init
00009904 g     F .text	00000062 .hidden __fixsfsi
000047ac  w      .text	00000000 CAN2_RX1_IRQHandler
000044d0 g     F .text	00000024 EXTI3_IRQHandler
0000285e  w    F .text	00000002 napp_list_hook
000003ba g     F .text	00000028 .hidden __riscv_save_11
0000767c g     F .text	0000001c com_snd_st_clr
00000a32 g     F .text	00000002 key_shift_keep
00007ad4 g     F .text	00000042 mb_crc
00000c4c g     F .text	00000024 mb_os_send
00006110 g     F .text	00000018 str_search_ch
0000ed50 g       .text	00000000 __rtmsymtab_start
00001324 g     F .text	0000003e bsp_gpio_mode_out_od
00002866 g     F .text	00000002 func11
000047b4  w      .text	00000000 USBHS_IRQHandler
0000ed04 g     O .text	00000004 __fun_ptr_func22
0000ecfc g     O .text	00000004 __fun_ptr_func24
00006032 g     F .text	00000020 copy_str
000047d4  w      .text	00000000 DMA2_Channel9_IRQHandler
00002e54 g     F .text	00000076 rt_thread_idle_excute
00001842 g     F .text	000000cc QC_UART7_IRQHandler
0000d560 g     O .text	0000001c o_led2
00003b34 g     F .text	0000004a rt_thread_suspend
000073c4 g     F .text	00000078 com_tail_rcv_multi
000047cc  w      .text	00000000 TIM10_CC_IRQHandler
200077c8 g     O .bss	00000004 errno
00006128 g     F .text	0000002c str_nsearch_ch
00006d1e g     F .text	00000018 pulse_init
20000348 g       .bss	00000000 _sbss
00000800 g       *ABS*	00000000 __stack_size
0000139e g     F .text	00000014 spi_cs_dir_out_od
000010c8 g     F .text	0000000c oled_dc_pin_en
0000957c g     F .text	00000388 .hidden __subsf3
000039fa g     F .text	00000024 rt_thread_timeout
20000350 g     O .bss	00000004 local_time
20002490 g     O .bss	00000aa0 mb
0000ed20 g     O .text	00000004 __fun_ptr_func12
000077b2 g     F .text	000000b6 mqc_cmd_next
000026d4 g     F .text	0000005c dbg_fun_list_find
0000ecc4 g       .text	00000000 __rt_init_start
00000406 g     F .text	0000000c .hidden __riscv_restore_2
0000ecc4 g       .text	00000000 __fsymtab_end
00001440 g     F .text	00000048 bsp_gpio_mode_in_up
0000669e g     F .text	00000032 vtask_list_run_once
0000288a g     F .text	00000024 napp_list_run_once
0000104e g     F .text	00000010 o_led1_pin_out_st
0000e60c g     O .text	0000000c srtc_mon_day_p
000060d8 g     F .text	00000014 str_remove_site
00009b4c g     F .text	000000b2 memcpy
00005f22 g     F .text	00000032 list_bit_1_num_get
00006454 g     F .text	0000004a str_split
0000ed2c g     O .text	00000004 __fun_ptr_nsys_tail
0000788a g     F .text	0000003e mqc_dyna_cmd_req
00005fe0 g     F .text	00000018 copy_u8
0000a0a2 g     F .text	00000264 _svfprintf_r
00002954 g     F .text	00000070 os_obj_create
00002d40 g     F .text	00000020 rt_components_init
00002b58 g     F .text	0000000c sys_init
00004464 g     F .text	00000024 EXTI0_IRQHandler
0000476c  w      .text	00000000 I2C2_EV_IRQHandler
000047ca  w      .text	00000000 TIM10_TRG_COM_IRQHandler
00003cd0 g     F .text	0000003a rt_timer_init
0000ecd8 g       .text	00000000 __rt_init_end
00007698 g     F .text	00000028 com_timer_cal
00002eec g     F .text	00000040 rt_thread_idle_init
0000ecf8 g     O .text	00000004 __fun_ptr_napp_head
20000324 g     O .data	00000004 SystemCoreClock
000015e4 g     F .text	0000001c lib_delay_ms
00002730 g     F .text	00000052 dbg_fun_list_exe
00008174 g     F .text	00000498 sqc_mb_poll
20003970 g     O .bss	00000050 cmd_back_dat
0000375c g     F .text	00000032 rt_system_scheduler_init
00002dd2 g     F .text	0000004a rt_device_find
0000e850  w    O .text	00000018 qc_mb_slave
00000200 g       .text	00000000 rt_hw_context_switch_to
0000eccc g     O .text	00000004 __rt_init_rt_hw_pin_init
00004df4 g     F .text	0000008e key_st_handle
00000038 g       .init	00000000 _einit
000066d0 g     F .text	00000138 txt_cmd_format
000029c4 g     F .text	00000050 os_task_info_print
200003e0 g     O .bss	00000004 rt_thread_switch_interrupt_flag
0000630a g     F .text	0000009e str_to_float_array
00009f74 g     F .text	00000012 vsnprintf
000089a0 g     F .text	0000008c mqc_mb_multi_coils_write
000016ee g     F .text	00000016 uart01_timer_handle
000094f0 g     F .text	0000008c .hidden __lesf2
00004b7c g     F .text	0000001e RCC_APB2PeriphClockCmd
000003b2 g     F .text	00000030 .hidden __riscv_save_12
000047ae  w      .text	00000000 CAN2_SCE_IRQHandler
0000474e  w      .text	00000000 ADC1_2_IRQHandler
0000ecd4 g     O .text	00000004 __rt_init_rti_end
00007ea4 g     F .text	00000102 sqc_mb_discrete_read
00007b26  w    F .text	00000004 qc_input_dat_get
00002b88 g     F .text	00000064 system_info
000048fe g     F .text	000000c0 GPIO_Init
00001020 g     F .text	00000014 o_led1_pin_out
000060ec g     F .text	00000024 str_search_chs
0000280a g     F .text	00000044 cmd_shell
00004724  w      .text	00000000 Break_Point_Handler
0000d31c g     O .text	00000014 key_api
00002cb6 g     F .text	00000002 nsys_list_hook
00000a40 g     F .text	00000002 key_set_shift_press
0000e5f4 g     O .text	00000018 srtc_day_in_year_r
000003f2 g     F .text	00000020 .hidden __riscv_restore_11
00004770  w      .text	00000000 SPI1_IRQHandler
2000034c g     O .bss	00000004 hal_tick_cnt
00003c56 g     F .text	00000068 rt_thread_control
00003f00 g     F .text	00000024 rt_hw_context_switch_interrupt
000065a6 g     F .text	00000090 sig_time_to_min
00009d70 g     F .text	00000032 _sbrk_r
0000472e  w      .text	00000000 TAMPER_IRQHandler
000003e2 g     F .text	0000000c .hidden __riscv_save_1
0000110e g     F .text	0000000c oled_dc_pin_out_st
00000406 g     F .text	0000000c .hidden __riscv_restore_0
000007e6 g     F .text	00000042 gui_task_creat
00003a58 g     F .text	00000048 rt_thread_create
00003aa0 g     F .text	0000003e rt_thread_delete
00004ee2 g     F .text	00000024 lcd_yl_font_set
000003c8 g     F .text	0000001a .hidden __riscv_save_7
000063d6 g     F .text	0000004c str_is_inum
0000ed48 g     O .text	00000004 __sys_init_sysinit_end
0000ed50 g       .text	00000000 __rtmsymtab_end
00008782 g     F .text	00000066 mqc_mb_coils_read
00005e08 g     F .text	000000b2 sub2_add8
000047aa  w      .text	00000000 CAN2_RX0_IRQHandler
00000a44 g     F .text	00000002 qc_callback
0000ccdc g     O .text	00000600 Font_8_16
000078c8 g     F .text	00000052 mqc_stc_cmd_req
00003ade g     F .text	00000056 rt_thread_yield
00005eba g     F .text	00000020 lrc_u8
00009a2c g     F .text	000000ac .hidden __extendsfdf2
000063a8 g     F .text	0000002e str_insert_ch
00004782  w      .text	00000000 TIM8_UP_IRQHandler
00002d70 g     F .text	0000002a rt_application_init
00004b9a g     F .text	0000001e RCC_APB1PeriphClockCmd
00007b20 g     F .text	00000002 qc_proc_callback_def
00004720  w      .text	00000000 Ecall_M_Mode_Handler
00005ef0 g     F .text	00000032 list_bit_0_num_get
00003460 g     F .text	00000130 rt_malloc
200031c0 g     O .bss	00000130 com
2000f800 g       .stack	00000000 _heap_end
00007b2a g     F .text	000000a8 qc_obj_init
00000c70 g     F .text	00000028 qc_reg_get
00006f6a g     F .text	00000034 com_rx_rcv_keep_new
00003036 g     F .text	00000042 rt_sem_release
00001034 g     F .text	0000001a o_led1_pin_tog
000021da g     F .text	00000160 com01_Init
000003fc g     F .text	00000016 .hidden __riscv_restore_5
0000ed28 g     O .text	00000004 __fun_ptr_sys_led_ctr
0000a730 g     F .text	00000058 _realloc_r
00003ff2  w    F .text	0000000a rt_heap_begin_get
00004f1c g     F .text	00000014 lcd_yl_space_set
00001170 g     F .text	00000014 spi_cs_pin_out
0000479c  w      .text	00000000 DMA2_Channel2_IRQHandler
00004746  w      .text	00000000 DMA1_Channel4_IRQHandler
00003ed0 g     F .text	00000010 sw_setpend
20001c04 g     O .bss	0000000a click_key
00005118 g     F .text	0000002c lcd_yl_ram_fill
0000ece8 g     O .text	00000008 __dbg_func_func
00004d08 g     F .text	0000002a _sbrk
0000ed18 g     O .text	00000004 __fun_ptr_func14
00000cf6 g     F .text	0000001a bsp_Init
20000080 g     O .data	000000c0 pin_irq_hdr_tab
00002a8e g     F .text	00000018 sys_hw_console_output
00005fb6 g     F .text	0000002a comp_string
0000109a g     F .text	0000001c o_led2_pin_tog
000012ca g     F .text	00000014 o_led2_dir_out_pp
00005a66 g     F .text	000000e4 lcd_yl_ascii_alain_disp
0000649e g     F .text	00000108 TimeRun
00003d0a g     F .text	00000020 rt_timer_detach
00009efc g     F .text	0000001e strtol
000010e0 g     F .text	00000014 oled_dc_pin_out
00005144 g     F .text	00000036 lcd_yl_init
0000891a g     F .text	00000050 mqc_mb_coils_write
000047c0  w      .text	00000000 TIM9_UP_IRQHandler
0000ecd8 g     O .text	00000008 __dbg_func_dbg_fun_list_start
000003fc g     F .text	00000016 .hidden __riscv_restore_6
00000eb0 g     F .text	00000020 USART3_IRQHandler
000048f4 g     F .text	0000000a EXTI_ClearITPendingBit
00002d20 g     F .text	00000020 rt_components_board_init
00004730  w      .text	00000000 RTC_IRQHandler
0000334a g     F .text	00000002 rt_show_version
200077cc g       .bss	00000000 _ebss
00001600 g     F .text	00000036 nor_spi_wb
0000ecc4 g     O .text	00000004 __rt_init_rti_start
0000474c  w      .text	00000000 DMA1_Channel7_IRQHandler
000006fe g     F .text	000000b0 key_task
00004006 g     F .text	0000006e rt_hw_board_init
00003f9a g     F .text	00000058 rt_device_pin_register
00009f74 g     F .text	00000012 vsniprintf
00007fa6 g     F .text	0000007c sqc_mb_coils_write
00006808 g     F .text	000001b6 txt_cmd_line_analysis
00004754  w      .text	00000000 CAN1_RX1_IRQHandler
00006154 g     F .text	00000038 str_search_inumch
00000a9a g     F .text	000001ac qc_task
00003bdc g     F .text	0000004c rt_thread_resume
00006f14 g     F .text	00000034 com_wait_for_idle
00002d9a g     F .text	0000002a rtthread_startup
0000ed10 g     O .text	00000004 __fun_ptr_napp_list_hook
00002854 g     F .text	00000002 func21
00004290 g     F .text	0000005a ch32_pin_dettach_irq
000047b6  w      .text	00000000 DVP_IRQHandler
00001184 g     F .text	0000001c spi_cs_pin_tog
00000ef0 g     F .text	00000020 UART5_IRQHandler
00007942 g     F .text	00000012 mqc_cmd_ready_num
000011de g     F .text	0000000c oled_cs_pin_en
00000cdc g     F .text	0000001a bsp_pw_delay_for_bug
000013b2 g     F .text	0000000a oled_cs_dir_out_od
00000a34 g     F .text	00000002 key_down_press
20000400 g     O .bss	00001804 LcdRam
0000154a g     F .text	00000036 bsp_gpio_mode_ain
00000a24 g     F .text	00000002 key_idle
000051da g     F .text	00000064 lcd_yl_dot_clr
0000ed14 g     O .text	00000004 __fun_ptr_nsys_head
00006052 g     F .text	0000002e str_remove_ch_with_end
00003dde g     F .text	00000038 rt_timer_control
00008022 g     F .text	00000152 sqc_mb_multi_coils_write
0000946a g     F .text	00000086 .hidden __gtsf2
0000360e g     F .text	0000002a rt_object_get_information
20006700 g     O .bss	00000080 rt_thread_priority_table
000049c8 g     F .text	00000004 GPIO_SetBits
000011c2 g     F .text	0000000a oled_cs_pin_out_st
00004766  w      .text	00000000 TIM4_IRQHandler
20000390 g     O .bss	00000004 rt_object_put_hook
20000334 g     O .data	00000001 lcd_yl_block_num
000003ba g     F .text	00000028 .hidden __riscv_save_9
000049d0 g     F .text	0000000a GPIO_WriteBit
00007b18  w    F .text	00000004 qc_hold_dat_get
00003912 g     F .text	0000005a rt_thread_exit
0000479a  w      .text	00000000 DMA2_Channel1_IRQHandler
00002e1c g     F .text	00000038 rt_device_register
0000111a g     F .text	0000000c oled_rst_pin_en
0000eb14 g     O .text	00000020 __sf_fake_stderr
0000ed30 g     O .text	00000004 __fun_ptr_nsys_list_hook
000003c8 g     F .text	0000001a .hidden __riscv_save_4
00004440 g     F .text	00000024 HAL_GPIO_EXTI_Callback
000087e8 g     F .text	00000066 mqc_mb_discrete_read
00007396 g     F .text	0000002e com_tail_rcv_byte
00004768  w      .text	00000000 I2C1_EV_IRQHandler
00005ff8 g     F .text	00000018 copy_u32
0000171a g     F .text	00000016 uart08_timer_handle
00009fc2 g     F .text	000000e0 __ssputs_r
00002860 g     F .text	00000002 func12
00002858 g     F .text	00000002 func14
00004d52 g     F .text	000000a2 key_api_handle
00002b64 g     F .text	00000024 sys_app_run_once
0000b51c g     O .text	000017c0 Font_16_32
00004a06 g     F .text	00000176 RCC_GetClocksFreq
00001376 g     F .text	00000014 oled_dc_dir_out_od
0000474a  w      .text	00000000 DMA1_Channel6_IRQHandler
00009ad8 g     F .text	0000006e .hidden __clzsi2
20003a28 g     O .bss	00002898 os_obj
00000ed0 g     F .text	00000020 UART4_IRQHandler
0000577a g     F .text	000000a8 PutNum
000047a0  w      .text	00000000 DMA2_Channel4_IRQHandler
0000a6d2 g     F .text	00000018 memchr
00004c4c g     F .text	000000bc USART_Init
000024f4 g     F .text	00000054 cmd_analysis
00009bfe g     F .text	000000a4 _free_r
000012f2 g     F .text	00000014 oled_rst_dir_out_pp
00004764  w      .text	00000000 TIM3_IRQHandler
00004734  w      .text	00000000 RCC_IRQHandler
000003e2 g     F .text	0000000c .hidden __riscv_save_3
00000a3e g     F .text	00000002 key_up_keep
0000475e  w      .text	00000000 TIM1_TRG_COM_IRQHandler
000058dc g     F .text	0000018a lcd_yl_alain_sq_and_line
0000107a g     F .text	0000000c o_led2_pin_dis
00004740  w      .text	00000000 DMA1_Channel1_IRQHandler
00002868 g     F .text	00000022 nsys_list_run_once
2000039c g     O .bss	00000001 rt_current_priority
00004180 g     F .text	0000007e ch32_pin_mode
00006010 g     F .text	00000010 set_u8
00000a42 g     F .text	00000002 key_set_shift_release
00000000 g       .init	00000000 _start
000047d0  w      .text	00000000 DMA2_Channel7_IRQHandler
00001146 g     F .text	0000001c oled_rst_pin_tog
0000194c g     F .text	00000174 qc07_Init
00005898 g     F .text	00000044 lcd_yl_poll
0000d5b4 g     O .text	0000001c oled_rst
00009966 g     F .text	000000c6 .hidden __floatsisf
0000d544 g     O .text	0000001c o_led1
00004584 g     F .text	00000072 EXTI15_10_IRQHandler
00005eda g     F .text	00000016 xor_u8
00000cc4 g     F .text	00000018 qc_coil_dat_get
00000df8 g     F .text	00000028 app_timer_task_add
00005f8e g     F .text	00000028 str_to_upper
00001306 g     F .text	00000014 spi_cs_dir_out_pp
00004e82 g     F .text	00000056 key_click_handle
0000e5dc g     O .text	00000018 srtc_day_in_year_p
0000ece0 g     O .text	00000008 __dbg_func_cmd_shell
00004f14 g     F .text	00000008 lcd_yl_half_en
0000486c g     F .text	0000006a EXTI_Init
00007d24 g     F .text	0000004c com_quene_get
000006bc g     F .text	00000042 key_task_creat
00001636 g     F .text	0000006a nor_spi_init
0000ed24 g     O .text	00000004 __fun_ptr_func11
00007da2 g     F .text	00000102 sqc_mb_coils_read
00006fb4 g     F .text	00000044 com_snd_byte
00001000 g     F .text	00000008 bsp_dly_get_cnt
00006a9e g     F .text	00000024 dat_password_to_num_asc
00001162 g     F .text	0000000e oled_rst_pin_out_st
00002cbe g     F .text	0000002a rt_tick_increase
00007c50 g     F .text	00000022 qc_exe_fail
00002850 g     F .text	00000002 func23
0000ecf0 g     O .text	00000008 __dbg_func_dbg_fun_list_end
00007b1e g     F .text	00000002 qc_dat_send_def
0000d57c g     O .text	0000001c oled_cs
000011a0 g     F .text	0000000e spi_cs_pin_out_st
00006c46 g     F .text	000000d8 string10_passward_creat
000049cc g     F .text	00000004 GPIO_ResetBits
00007d70 g     F .text	0000001a com_quene_used_amount
00000dbc g     F .text	0000003c TIM7_IRQHandler
20000349 g     O .bss	00000001 click_key_cnt
0000ed50 g       .text	00000000 __sys_obj_fn_end
00003dac g     F .text	00000032 rt_timer_stop
000047a8  w      .text	00000000 CAN2_TX_IRQHandler
00007224 g     F .text	00000088 com_rcv_end_3B
20000000 g       .dalign	00000000 _data_vma
0000478e  w      .text	00000000 TIM5_IRQHandler
000062aa g     F .text	00000060 str_to_i8_array
00005708 g     F .text	00000072 lcd_yl_puts
00004140 g     F .text	00000022 ch32_pin_write
0000ed4c g     O .text	00000004 __sys_init_sysapp_end
00004518 g     F .text	0000006c EXTI9_5_IRQHandler
00001704 g     F .text	00000016 uart07_timer_handle
00003ee0 g     F .text	0000000e sw_clearpend
00002ce8 g     F .text	00000028 rt_tick_from_millisecond
00007b1c g     F .text	00000002 qc_os_event_send_def
00003ffc  w    F .text	0000000a rt_heap_end_get
00006f9e g     F .text	00000016 com_rx_rcv
00002c38 g     F .text	0000007e task_system
000049da g     F .text	0000002c GPIO_EXTILineConfig
00009f1a g     F .text	0000005a _vsnprintf_r
000003ba g     F .text	00000028 .hidden __riscv_save_10
000047a6  w      .text	00000000 ETH_WKUP_IRQHandler
00009fbe g     F .text	00000002 __malloc_lock
000003fc g     F .text	00000016 .hidden __riscv_restore_4
00000e20 g     F .text	00000050 nvic_irq_set
000003f2 g     F .text	00000020 .hidden __riscv_restore_8
00000a22 g     F .text	00000002 key_set_shift_keep
0000334c g     F .text	0000004e __rt_ffs
000003c8 g     F .text	0000001a .hidden __riscv_save_6
000048d6 g     F .text	0000001e EXTI_GetITStatus
00005420 g     F .text	000000b6 lcd_yl_square
000028fa g     F .text	0000005a os_thread_init
00004772  w      .text	00000000 SPI2_IRQHandler
0000eb34 g     O .text	00000020 __sf_fake_stdin
00002782 g     F .text	00000088 shell_case
000038c2 g     F .text	0000001a rt_enter_critical
00003b7e g     F .text	00000042 rt_thread_sleep
0000791a g     F .text	00000028 mqc_stc_cmd_del
00002a14 g     F .text	0000004e os_task_info
000003f2 g     F .text	00000020 .hidden __riscv_restore_9
00000a0e g     F .text	00000014 key_set_release
000003fc g     F .text	00000016 .hidden __riscv_restore_7
00004612 g     F .text	00000012 main
000016d8 g     F .text	00000016 bsp_uart_init
00000db6 g     F .text	00000006 app_tick_get
00000a46 g     F .text	00000054 mb_task_creat
000047c6  w      .text	00000000 TIM10_BRK_IRQHandler
0000d5d0 g     O .text	00000010 user_key
0000323e g     F .text	0000002e rt_interrupt_leave
000094f0 g     F .text	0000008c .hidden __ltsf2
000047c4  w      .text	00000000 TIM9_CC_IRQHandler
000047a2  w      .text	00000000 DMA2_Channel5_IRQHandler
00007954 g     F .text	00000012 mqc_cmd_idle_num
00003e98 g     F .text	00000002 rt_system_timer_thread_init
0000523e g     F .text	000001e2 lcd_yl_line
00003a1e g     F .text	00000034 rt_thread_init
00000564 g     F .text	0000001c lcd_hal_init
00000c46 g     F .text	00000006 modbus_task
00009ca2 g     F .text	000000ce _malloc_r
0000a6b4 g     F .text	0000001e __ascii_wctomb
00008aca g     F .text	000000da mqc_mb_holding_rw
0000ecc4 g       .text	00000000 __vsymtab_start
00006d36 g     F .text	000001ce pulse_creat
00004748  w      .text	00000000 DMA1_Channel5_IRQHandler
0000ed44 g     O .text	00000004 __sys_init_system_info
000044f4 g     F .text	00000024 EXTI4_IRQHandler
00002bec g     F .text	0000004a sys_led_ctr
20000364 g     O .bss	00000001 rt_interrupt_nest
00004752  w      .text	00000000 USB_LP_CAN1_RX0_IRQHandler
0000ed0c g     O .text	00000004 __fun_ptr_napp_tail
00005b5a g     F .text	000001e0 i32_to_string
00000a2c g     F .text	00000002 key_set_keep
20000394 g     O .bss	00000004 rt_object_take_hook
00004c32 g     F .text	0000001a SPI_Cmd
0000138a g     F .text	00000014 oled_rst_dir_out_od
000054d6 g     F .text	000001fc lcd_yl_imgage_quick
00004624 g     F .text	000000f8 SystemInit
00004788  w      .text	00000000 RNG_IRQHandler
00003eee g     F .text	0000000c rt_hw_interrupt_disable
000030a2 g     F .text	000000cc rt_mutex_take
00003c28 g     F .text	0000002e rt_thread_startup
00007022 g     F .text	00000052 com_snd_string
00008ba4 g     F .text	000002ae mqc_mb_poll
200003a0 g     O .bss	00000004 rt_current_thread
00007648 g     F .text	00000034 com_rcv_st_clr
0000e630 g     O .text	00000020 password_asc_list
000014f8 g     F .text	0000003e bsp_gpio_mode_in_ft
0000ed1c g     O .text	00000004 __fun_ptr_func13
00004750  w      .text	00000000 USB_HP_CAN1_TX_IRQHandler
0000ea14 g     O .text	00000100 .hidden __clz_tab
00000000 g       .init	00000000 _sinit
00002b38 g     F .text	00000020 sys_app_init
000013bc g     F .text	00000040 bsp_gpio_mode_out_pp_spd
0000665a g     F .text	00000044 vtask_list_add
20000336 g     O .data	00000002 lcd_yl_size_x
0000884e g     F .text	00000066 mqc_mb_holding_read
000011f6 g     F .text	00000096 bsp_gpio_init
0000946a g     F .text	00000086 .hidden __gesf2
00007966 g     F .text	0000003c qc_data_rcv
00004744  w      .text	00000000 DMA1_Channel3_IRQHandler
200003b4 g     O .bss	00000004 rt_thread_ready_priority_group
00000a2a g     F .text	00000002 key_keep_any
00007326 g     F .text	0000001e com_snd_remain_amount
0000478a  w      .text	00000000 FSMC_IRQHandler
000079a2 g     F .text	00000018 qc_send_end
000047a4  w      .text	00000000 ETH_IRQHandler
0000a306 g     F .text	0000010c _printf_common
0000d598 g     O .text	0000001c oled_dc
000060a2 g     F .text	00000036 str_remove_la20_ascii_at_tail
20000330 g     O .data	00000004 _impure_ptr
0000475c  w      .text	00000000 TIM1_UP_IRQHandler
000072ac g     F .text	0000007a com_rcv_end_2B
000010d4 g     F .text	0000000c oled_dc_pin_dis
00006080 g     F .text	00000022 str_remove_l20_ascii
00007140 g     F .text	0000006e com_rcv_line
200003ac g     O .bss	00000008 rt_thread_defunct
0000ed00 g     O .text	00000004 __fun_ptr_func23
00001014 g     F .text	0000000c o_led1_pin_dis
0000ecd0 g     O .text	00000004 __rt_init_rti_board_end
0000a0a2 g     F .text	00000264 _svfiprintf_r
0000106e g     F .text	0000000c o_led2_pin_en
0000896a g     F .text	00000036 mqc_mb_holding_write
0000472a  w      .text	00000000 WWDG_IRQHandler
00007c72 g     F .text	00000064 swap_bit_map_u8
00002f88 g     F .text	0000002a rt_sem_init
00000276 g       .text	00000000 rt_hw_context_switch_exit
000047b2  w      .text	00000000 USBHSWakeup_IRQHandler
0000326c g     F .text	00000088 rt_memset
000047d8  w      .text	00000000 DMA2_Channel11_IRQHandler
00004bd6 g     F .text	0000001e RCC_APB1PeriphResetCmd
00009f8c g     F .text	00000032 __ascii_mbtowc
00004f30 g     F .text	000001e8 lcd_yl_put_space
00004722  w      .text	00000000 Ecall_U_Mode_Handler
00003320 g     F .text	0000002a rt_strncmp
0000149c g     F .text	00000048 bsp_gpio_mode_in_dn
000047ce  w      .text	00000000 DMA2_Channel6_IRQHandler
0000ecc4 g       .text	00000000 __vsymtab_end
00007cd6 g     F .text	0000004e com_quene_fill
00004762  w      .text	00000000 TIM2_IRQHandler
20010000 g       .stack	00000000 _eusrstack
000071ae g     F .text	00000076 com_rcv_end_4B
00003698 g     F .text	0000002e rt_object_detach
000003e2 g     F .text	0000000c .hidden __riscv_save_2
00009f1a g     F .text	0000005a _vsniprintf_r
000002d0 g       .text	00000000 SW_Handler
00000412 g     F .text	0000012a lcd_delay_us
00004ed8 g     F .text	0000000a lcd_yl_origin_set
0000233a g     F .text	000001a6 cmd_callback
000024e0 g     F .text	00000014 func
00004f0c g     F .text	00000008 lcd_yl_anti
00004f06 g     F .text	00000006 lcd_yl_disp_buff_set
00001580 g     F .text	0000004e bsp_gpio_mode_set
00003e8e g     F .text	0000000a rt_system_timer_init
00006ff8 g     F .text	0000002a com_rcv_byte
0000475a  w      .text	00000000 TIM1_BRK_IRQHandler
00003878 g     F .text	0000004a rt_schedule_remove_thread
000075c2 g     F .text	00000086 com_tail_rcv_end_2B
00003210 g     F .text	0000002e rt_interrupt_enter
00004d32 g     F .text	00000020 key_st_sample
000047d6  w      .text	00000000 DMA2_Channel10_IRQHandler
20000335 g     O .data	00000001 lcd_yl_page_size
00004488 g     F .text	00000024 EXTI1_IRQHandler
00007074 g     F .text	00000062 com_snd_data
00007126 g     F .text	0000001a com_rcv_remain_amount
2000034a g     O .bss	00000001 click_lost_cnt
000070d6 g     F .text	00000050 com_rcv_multi
00003efa g     F .text	00000006 rt_hw_interrupt_enable
000011b8 g     F .text	0000000a oled_cs_pin_tog
000003c8 g     F .text	0000001a .hidden __riscv_save_5
20000348 g       .data	00000000 _edata
200077cc g       .bss	00000000 _end
00002c36 g     F .text	00000002 sys_tick_exe
000056d2 g     F .text	00000036 lcd_yl_put_char
000038dc g     F .text	00000036 rt_exit_critical
0000477c  w      .text	00000000 RTCAlarm_IRQHandler
00002862 g     F .text	00000002 func13
000011ae g     F .text	0000000a oled_cs_pin_out
00000a26 g     F .text	00000002 key_down_any
0000ed50 g       .dlalign	00000000 _data_lma
00006ac2 g     F .text	000000c2 string6_passward_creat
000047c8  w      .text	00000000 TIM10_UP_IRQHandler
200063b4 g     O .bss	0000009c sys_st
0000d330 g     O .text	00000060 key_list
000047c2  w      .text	00000000 TIM9_TRG_COM_IRQHandler
00000f30 g     F .text	00000020 UART7_IRQHandler
00002aa6 g     F .text	0000002c sys_hw_puts
00005f54 g     F .text	00000016 sum_u8
00004120 g     F .text	00000020 get_pin
00000e90 g     F .text	00000020 USART2_IRQHandler
00000f10 g     F .text	00000020 UART6_IRQHandler
0000743c g     F .text	00000078 com_tail_rcv_line
00001132 g     F .text	00000014 oled_rst_pin_out
20003134 g     O .bss	00000010 coil_reg
0000ed40 g     O .text	00000004 __sys_init_mb_task_creat
00007344 g     F .text	00000052 com_tail_back_site
00003a52 g     F .text	00000006 rt_thread_self
00006b84 g     F .text	000000c2 string8_passward_creat
00005f6a g     F .text	00000024 bit16_roll_shift_left
200031b0 g     O .bss	00000010 uart_timer
0000476e  w      .text	00000000 I2C2_ER_IRQHandler
00004742  w      .text	00000000 DMA1_Channel2_IRQHandler
00000a3c g     F .text	00000002 key_up_release
0000316e g     F .text	000000a2 rt_mutex_release
00003720 g     F .text	00000034 rt_object_delete
00007b22  w    F .text	00000004 qc_disc_dat_get
00002126 g     F .text	000000b4 COM_USART1_IRQHandler
00002cb8 g     F .text	00000006 rt_tick_get
0000eb54 g     O .text	00000020 __sf_fake_stdout
00009b46 g     F .text	00000006 atoi
00000a38 g     F .text	00000002 key_down_keep
000003ee g     F .text	00000024 .hidden __riscv_restore_12
0000131a g     F .text	0000000a oled_cs_dir_out_pp
00004780  w      .text	00000000 TIM8_BRK_IRQHandler
00006f48 g     F .text	00000022 com_rx_rcv_keep_old
0000ebc0 g     O .text	00000101 _ctype_
00002852 g     F .text	00000002 func24
000028ae g     F .text	0000004c os_obj_init
000047da  w      .text	00000000 handle_reset
0000517a g     F .text	00000060 lcd_yl_dot_set
00004756  w      .text	00000000 CAN1_SCE_IRQHandler
0000ecd8 g       .text	00000000 __sys_obj_fn_start
000010b6 g     F .text	00000012 o_led2_pin_out_st
20000398 g     O .bss	00000004 rt_object_trytake_hook
00004732  w      .text	00000000 FLASH_IRQHandler
000003e2 g     F .text	0000000c .hidden __riscv_save_0
00002fb2 g     F .text	00000084 rt_sem_take
0000257c g     F .text	00000004 dbg_fun_list_end
00005d3a g     F .text	000000ce str_to_float
00003078 g     F .text	0000002a rt_mutex_init
00000e70 g     F .text	00000020 USART1_IRQHandler
00000a28 g     F .text	00000002 key_release_any
00009db2 g     F .text	00000012 strlen
000047b0  w      .text	00000000 OTG_FS_IRQHandler
0000a412 g     F .text	000002a2 _printf_i
00004790  w      .text	00000000 SPI3_IRQHandler
00009f86 g     F .text	00000006 __locale_ctype_ptr_l
00002580 g     F .text	0000008a mem_head_disp
000011cc g     F .text	00000012 user_key_pin_in_st
0000d7cc g     O .text	000002bc cmd_list
00001126 g     F .text	0000000c oled_rst_pin_dis
200003fc g     O .bss	00000004 __malloc_sbrk_start
00000f70 g     F .text	00000074 bsp_dly_init
00004bb8 g     F .text	0000001e RCC_APB2PeriphResetCmd
0000260a g     F .text	000000ca mem_u32_disp
000041fe g     F .text	00000092 ch32_pin_attach_irq
0000476a  w      .text	00000000 I2C1_ER_IRQHandler
20000338 g     O .data	00000002 lcd_yl_size_y
00001536 g     F .text	00000014 user_key_dir_in_ft
00004bf4 g     F .text	0000003e SPI_Init
000011ea g     F .text	0000000c oled_cs_pin_dis
00001362 g     F .text	00000014 o_led2_dir_out_od
0000ecc8 g     O .text	00000004 __rt_init_rti_board_start
000013fc g     F .text	00000044 bsp_gpio_mode_out_od_spd
00000602 g     F .text	000000ba ssd1306_m1_init
200003f8 g     O .bss	00000004 __malloc_free_list
0000ecc4 g       .text	00000000 __fsymtab_start
00000406 g     F .text	0000000c .hidden __riscv_restore_1
000005d8 g     F .text	0000002a oled1_write_data
00000a36 g     F .text	00000002 key_down_release
00004104 g     F .text	0000001c rt_hw_pin_init
00000c98 g     F .text	00000018 qc_reg_set
000037be g     F .text	0000006e rt_schedule
00003638 g     F .text	00000060 rt_object_init
00004162 g     F .text	0000001e ch32_pin_read
000069be g     F .text	000000e0 txt_cmd_analysis
000049be g     F .text	0000000a GPIO_ReadInputDataBit
0000ed3c g     O .text	00000004 __sys_init_gui_task_creat
00003d2a g     F .text	00000082 rt_timer_start
00002ad2 g     F .text	0000005e sys_hw_printf
00007868 g     F .text	00000022 mqc_cmd_clr
00008e52 g     F .text	0000036a .hidden __addsf3
200001b0 g     O .data	0000016c __global_locale
00000828 g     F .text	000001c0 gui_task
0000ed38 g     O .text	00000004 __sys_init_key_task_creat
0000477e  w      .text	00000000 USBWakeUp_IRQHandler
0000618c g     F .text	00000056 str_search_fnumch
0000021c g       .text	00000000 rt_hw_context_switch
000079f6 g     F .text	000000de qc_timer_handle
00006f04 g     F .text	00000010 com_idle_check
000012de g     F .text	00000014 oled_dc_dir_out_pp
0000479e  w      .text	00000000 DMA2_Channel3_IRQHandler
000042ea g     F .text	00000156 ch32_pin_irq_enable
20003190 g     O .bss	00000020 cpu_it



Disassembly of section .init:

00000000 <_sinit>:
   0:	7da0406f          	j	47da <handle_reset>
   4:	00000013          	nop
   8:	00000013          	nop
   c:	00000013          	nop
  10:	00000013          	nop
  14:	00000013          	nop
  18:	00000013          	nop
  1c:	00000013          	nop
  20:	00000013          	nop
  24:	00000013          	nop
  28:	00000013          	nop
  2c:	00000013          	nop
  30:	00000013          	nop
  34:	00100073          	ebreak

Disassembly of section .vector:

00000038 <_vector_base>:
	...
  40:	45f6                	lw	a1,92(sp)
  42:	0000                	unimp
  44:	460a                	lw	a2,128(sp)
  46:	0000                	unimp
  48:	0000                	unimp
  4a:	0000                	unimp
  4c:	4720                	lw	s0,72(a4)
	...
  56:	0000                	unimp
  58:	4722                	lw	a4,8(sp)
  5a:	0000                	unimp
  5c:	4724                	lw	s1,72(a4)
	...
  66:	0000                	unimp
  68:	4074                	lw	a3,68(s0)
  6a:	0000                	unimp
  6c:	0000                	unimp
  6e:	0000                	unimp
  70:	02d0                	addi	a2,sp,324
  72:	0000                	unimp
  74:	0000                	unimp
  76:	0000                	unimp
  78:	472a                	lw	a4,136(sp)
  7a:	0000                	unimp
  7c:	472c                	lw	a1,72(a4)
  7e:	0000                	unimp
  80:	472e                	lw	a4,200(sp)
  82:	0000                	unimp
  84:	4730                	lw	a2,72(a4)
  86:	0000                	unimp
  88:	4732                	lw	a4,12(sp)
  8a:	0000                	unimp
  8c:	4734                	lw	a3,72(a4)
  8e:	0000                	unimp
  90:	4464                	lw	s1,76(s0)
  92:	0000                	unimp
  94:	4488                	lw	a0,8(s1)
  96:	0000                	unimp
  98:	44ac                	lw	a1,72(s1)
  9a:	0000                	unimp
  9c:	44d0                	lw	a2,12(s1)
  9e:	0000                	unimp
  a0:	44f4                	lw	a3,76(s1)
  a2:	0000                	unimp
  a4:	4740                	lw	s0,12(a4)
  a6:	0000                	unimp
  a8:	4742                	lw	a4,16(sp)
  aa:	0000                	unimp
  ac:	4744                	lw	s1,12(a4)
  ae:	0000                	unimp
  b0:	4746                	lw	a4,80(sp)
  b2:	0000                	unimp
  b4:	4748                	lw	a0,12(a4)
  b6:	0000                	unimp
  b8:	474a                	lw	a4,144(sp)
  ba:	0000                	unimp
  bc:	474c                	lw	a1,12(a4)
  be:	0000                	unimp
  c0:	474e                	lw	a4,208(sp)
  c2:	0000                	unimp
  c4:	4750                	lw	a2,12(a4)
  c6:	0000                	unimp
  c8:	4752                	lw	a4,20(sp)
  ca:	0000                	unimp
  cc:	4754                	lw	a3,12(a4)
  ce:	0000                	unimp
  d0:	4756                	lw	a4,84(sp)
  d2:	0000                	unimp
  d4:	4518                	lw	a4,8(a0)
  d6:	0000                	unimp
  d8:	475a                	lw	a4,148(sp)
  da:	0000                	unimp
  dc:	475c                	lw	a5,12(a4)
  de:	0000                	unimp
  e0:	475e                	lw	a4,212(sp)
  e2:	0000                	unimp
  e4:	4760                	lw	s0,76(a4)
  e6:	0000                	unimp
  e8:	4762                	lw	a4,24(sp)
  ea:	0000                	unimp
  ec:	4764                	lw	s1,76(a4)
  ee:	0000                	unimp
  f0:	4766                	lw	a4,88(sp)
  f2:	0000                	unimp
  f4:	4768                	lw	a0,76(a4)
  f6:	0000                	unimp
  f8:	476a                	lw	a4,152(sp)
  fa:	0000                	unimp
  fc:	476c                	lw	a1,76(a4)
  fe:	0000                	unimp
 100:	476e                	lw	a4,216(sp)
 102:	0000                	unimp
 104:	4770                	lw	a2,76(a4)
 106:	0000                	unimp
 108:	4772                	lw	a4,28(sp)
 10a:	0000                	unimp
 10c:	0e70                	addi	a2,sp,796
 10e:	0000                	unimp
 110:	0e90                	addi	a2,sp,848
 112:	0000                	unimp
 114:	0eb0                	addi	a2,sp,856
 116:	0000                	unimp
 118:	4584                	lw	s1,8(a1)
 11a:	0000                	unimp
 11c:	477c                	lw	a5,76(a4)
 11e:	0000                	unimp
 120:	477e                	lw	a4,220(sp)
 122:	0000                	unimp
 124:	4780                	lw	s0,8(a5)
 126:	0000                	unimp
 128:	4782                	lw	a5,0(sp)
 12a:	0000                	unimp
 12c:	4784                	lw	s1,8(a5)
 12e:	0000                	unimp
 130:	4786                	lw	a5,64(sp)
 132:	0000                	unimp
 134:	4788                	lw	a0,8(a5)
 136:	0000                	unimp
 138:	478a                	lw	a5,128(sp)
 13a:	0000                	unimp
 13c:	478c                	lw	a1,8(a5)
 13e:	0000                	unimp
 140:	478e                	lw	a5,192(sp)
 142:	0000                	unimp
 144:	4790                	lw	a2,8(a5)
 146:	0000                	unimp
 148:	0ed0                	addi	a2,sp,852
 14a:	0000                	unimp
 14c:	0ef0                	addi	a2,sp,860
 14e:	0000                	unimp
 150:	0fe4                	addi	s1,sp,988
 152:	0000                	unimp
 154:	0dbc                	addi	a5,sp,728
 156:	0000                	unimp
 158:	479a                	lw	a5,132(sp)
 15a:	0000                	unimp
 15c:	479c                	lw	a5,8(a5)
 15e:	0000                	unimp
 160:	479e                	lw	a5,196(sp)
 162:	0000                	unimp
 164:	47a0                	lw	s0,72(a5)
 166:	0000                	unimp
 168:	47a2                	lw	a5,8(sp)
 16a:	0000                	unimp
 16c:	47a4                	lw	s1,72(a5)
 16e:	0000                	unimp
 170:	47a6                	lw	a5,72(sp)
 172:	0000                	unimp
 174:	47a8                	lw	a0,72(a5)
 176:	0000                	unimp
 178:	47aa                	lw	a5,136(sp)
 17a:	0000                	unimp
 17c:	47ac                	lw	a1,72(a5)
 17e:	0000                	unimp
 180:	47ae                	lw	a5,200(sp)
 182:	0000                	unimp
 184:	47b0                	lw	a2,72(a5)
 186:	0000                	unimp
 188:	47b2                	lw	a5,12(sp)
 18a:	0000                	unimp
 18c:	47b4                	lw	a3,72(a5)
 18e:	0000                	unimp
 190:	47b6                	lw	a5,76(sp)
 192:	0000                	unimp
 194:	0f10                	addi	a2,sp,912
 196:	0000                	unimp
 198:	0f30                	addi	a2,sp,920
 19a:	0000                	unimp
 19c:	0f50                	addi	a2,sp,916
 19e:	0000                	unimp
 1a0:	47be                	lw	a5,204(sp)
 1a2:	0000                	unimp
 1a4:	47c0                	lw	s0,12(a5)
 1a6:	0000                	unimp
 1a8:	47c2                	lw	a5,16(sp)
 1aa:	0000                	unimp
 1ac:	47c4                	lw	s1,12(a5)
 1ae:	0000                	unimp
 1b0:	47c6                	lw	a5,80(sp)
 1b2:	0000                	unimp
 1b4:	47c8                	lw	a0,12(a5)
 1b6:	0000                	unimp
 1b8:	47ca                	lw	a5,144(sp)
 1ba:	0000                	unimp
 1bc:	47cc                	lw	a1,12(a5)
 1be:	0000                	unimp
 1c0:	47ce                	lw	a5,208(sp)
 1c2:	0000                	unimp
 1c4:	47d0                	lw	a2,12(a5)
 1c6:	0000                	unimp
 1c8:	47d2                	lw	a5,20(sp)
 1ca:	0000                	unimp
 1cc:	47d4                	lw	a3,12(a5)
 1ce:	0000                	unimp
 1d0:	47d6                	lw	a5,84(sp)
 1d2:	0000                	unimp
 1d4:	47d8                	lw	a4,12(a5)
	...

Disassembly of section .text:

00000200 <rt_hw_context_switch_to>:
     200:	20010297          	auipc	t0,0x20010
     204:	e0028293          	addi	t0,t0,-512 # 20010000 <_eusrstack>
     208:	e0028293          	addi	t0,t0,-512
     20c:	34029073          	csrw	mscratch,t0
     210:	00052103          	lw	sp,0(a0)
     214:	4522                	lw	a0,8(sp)
     216:	30051073          	csrw	mstatus,a0
     21a:	a8b1                	j	276 <rt_hw_context_switch_exit>

0000021c <rt_hw_context_switch>:
     21c:	7119                	addi	sp,sp,-128
     21e:	00252023          	sw	sp,0(a0)
     222:	c006                	sw	ra,0(sp)
     224:	c206                	sw	ra,4(sp)
     226:	ca16                	sw	t0,20(sp)
     228:	300022f3          	csrr	t0,mstatus
     22c:	0082f293          	andi	t0,t0,8
     230:	00028463          	beqz	t0,238 <rt_hw_context_switch+0x1c>
     234:	08000293          	li	t0,128
     238:	c416                	sw	t0,8(sp)
     23a:	c812                	sw	tp,16(sp)
     23c:	cc1a                	sw	t1,24(sp)
     23e:	ce1e                	sw	t2,28(sp)
     240:	d022                	sw	s0,32(sp)
     242:	d226                	sw	s1,36(sp)
     244:	d42a                	sw	a0,40(sp)
     246:	d62e                	sw	a1,44(sp)
     248:	d832                	sw	a2,48(sp)
     24a:	da36                	sw	a3,52(sp)
     24c:	dc3a                	sw	a4,56(sp)
     24e:	de3e                	sw	a5,60(sp)
     250:	c0c2                	sw	a6,64(sp)
     252:	c2c6                	sw	a7,68(sp)
     254:	c4ca                	sw	s2,72(sp)
     256:	c6ce                	sw	s3,76(sp)
     258:	c8d2                	sw	s4,80(sp)
     25a:	cad6                	sw	s5,84(sp)
     25c:	ccda                	sw	s6,88(sp)
     25e:	cede                	sw	s7,92(sp)
     260:	d0e2                	sw	s8,96(sp)
     262:	d2e6                	sw	s9,100(sp)
     264:	d4ea                	sw	s10,104(sp)
     266:	d6ee                	sw	s11,108(sp)
     268:	d8f2                	sw	t3,112(sp)
     26a:	daf6                	sw	t4,116(sp)
     26c:	dcfa                	sw	t5,120(sp)
     26e:	defe                	sw	t6,124(sp)
     270:	0005a103          	lw	sp,0(a1)
     274:	a009                	j	276 <rt_hw_context_switch_exit>

00000276 <rt_hw_context_switch_exit>:
     276:	4502                	lw	a0,0(sp)
     278:	34151073          	csrw	mepc,a0
     27c:	4092                	lw	ra,4(sp)
     27e:	00008537          	lui	a0,0x8
     282:	80050513          	addi	a0,a0,-2048 # 7800 <mqc_cmd_next+0x4e>
     286:	30052073          	csrs	mstatus,a0
     28a:	4522                	lw	a0,8(sp)
     28c:	30052073          	csrs	mstatus,a0
     290:	4242                	lw	tp,16(sp)
     292:	42d2                	lw	t0,20(sp)
     294:	4362                	lw	t1,24(sp)
     296:	43f2                	lw	t2,28(sp)
     298:	5402                	lw	s0,32(sp)
     29a:	5492                	lw	s1,36(sp)
     29c:	5522                	lw	a0,40(sp)
     29e:	55b2                	lw	a1,44(sp)
     2a0:	5642                	lw	a2,48(sp)
     2a2:	56d2                	lw	a3,52(sp)
     2a4:	5762                	lw	a4,56(sp)
     2a6:	57f2                	lw	a5,60(sp)
     2a8:	4806                	lw	a6,64(sp)
     2aa:	4896                	lw	a7,68(sp)
     2ac:	4926                	lw	s2,72(sp)
     2ae:	49b6                	lw	s3,76(sp)
     2b0:	4a46                	lw	s4,80(sp)
     2b2:	4ad6                	lw	s5,84(sp)
     2b4:	4b66                	lw	s6,88(sp)
     2b6:	4bf6                	lw	s7,92(sp)
     2b8:	5c06                	lw	s8,96(sp)
     2ba:	5c96                	lw	s9,100(sp)
     2bc:	5d26                	lw	s10,104(sp)
     2be:	5db6                	lw	s11,108(sp)
     2c0:	5e46                	lw	t3,112(sp)
     2c2:	5ed6                	lw	t4,116(sp)
     2c4:	5f66                	lw	t5,120(sp)
     2c6:	5ff6                	lw	t6,124(sp)
     2c8:	6109                	addi	sp,sp,128
     2ca:	30200073          	mret
	...

000002d0 <SW_Handler>:
     2d0:	7119                	addi	sp,sp,-128
     2d2:	ca16                	sw	t0,20(sp)
     2d4:	08000293          	li	t0,128
     2d8:	c416                	sw	t0,8(sp)
     2da:	02000293          	li	t0,32
     2de:	8042a073          	csrs	0x804,t0
     2e2:	c206                	sw	ra,4(sp)
     2e4:	c812                	sw	tp,16(sp)
     2e6:	cc1a                	sw	t1,24(sp)
     2e8:	ce1e                	sw	t2,28(sp)
     2ea:	d022                	sw	s0,32(sp)
     2ec:	d226                	sw	s1,36(sp)
     2ee:	d42a                	sw	a0,40(sp)
     2f0:	d62e                	sw	a1,44(sp)
     2f2:	d832                	sw	a2,48(sp)
     2f4:	da36                	sw	a3,52(sp)
     2f6:	dc3a                	sw	a4,56(sp)
     2f8:	de3e                	sw	a5,60(sp)
     2fa:	c0c2                	sw	a6,64(sp)
     2fc:	c2c6                	sw	a7,68(sp)
     2fe:	c4ca                	sw	s2,72(sp)
     300:	c6ce                	sw	s3,76(sp)
     302:	c8d2                	sw	s4,80(sp)
     304:	cad6                	sw	s5,84(sp)
     306:	ccda                	sw	s6,88(sp)
     308:	cede                	sw	s7,92(sp)
     30a:	d0e2                	sw	s8,96(sp)
     30c:	d2e6                	sw	s9,100(sp)
     30e:	d4ea                	sw	s10,104(sp)
     310:	d6ee                	sw	s11,108(sp)
     312:	d8f2                	sw	t3,112(sp)
     314:	daf6                	sw	t4,116(sp)
     316:	dcfa                	sw	t5,120(sp)
     318:	defe                	sw	t6,124(sp)
     31a:	34011173          	csrrw	sp,mscratch,sp
     31e:	6f3020ef          	jal	ra,3210 <rt_interrupt_enter>
     322:	3bf030ef          	jal	ra,3ee0 <sw_clearpend>
     326:	719020ef          	jal	ra,323e <rt_interrupt_leave>
     32a:	34011173          	csrrw	sp,mscratch,sp
     32e:	8c018413          	addi	s0,gp,-1856 # 200003e0 <rt_thread_switch_interrupt_flag>
     332:	00042903          	lw	s2,0(s0)
     336:	02090463          	beqz	s2,35e <SW_Handler+0x8e>
     33a:	00042023          	sw	zero,0(s0)
     33e:	34102573          	csrr	a0,mepc
     342:	c02a                	sw	a0,0(sp)
     344:	8b818413          	addi	s0,gp,-1864 # 200003d8 <rt_interrupt_from_thread>
     348:	4004                	lw	s1,0(s0)
     34a:	0024a023          	sw	sp,0(s1)
     34e:	8bc18413          	addi	s0,gp,-1860 # 200003dc <rt_interrupt_to_thread>
     352:	4004                	lw	s1,0(s0)
     354:	0004a103          	lw	sp,0(s1)
     358:	4502                	lw	a0,0(sp)
     35a:	34151073          	csrw	mepc,a0
     35e:	4092                	lw	ra,4(sp)
     360:	000082b7          	lui	t0,0x8
     364:	80028293          	addi	t0,t0,-2048 # 7800 <mqc_cmd_next+0x4e>
     368:	3002a073          	csrs	mstatus,t0
     36c:	42a2                	lw	t0,8(sp)
     36e:	3002a073          	csrs	mstatus,t0
     372:	4242                	lw	tp,16(sp)
     374:	42d2                	lw	t0,20(sp)
     376:	4362                	lw	t1,24(sp)
     378:	43f2                	lw	t2,28(sp)
     37a:	5402                	lw	s0,32(sp)
     37c:	5492                	lw	s1,36(sp)
     37e:	5522                	lw	a0,40(sp)
     380:	55b2                	lw	a1,44(sp)
     382:	5642                	lw	a2,48(sp)
     384:	56d2                	lw	a3,52(sp)
     386:	5762                	lw	a4,56(sp)
     388:	57f2                	lw	a5,60(sp)
     38a:	4806                	lw	a6,64(sp)
     38c:	4896                	lw	a7,68(sp)
     38e:	4926                	lw	s2,72(sp)
     390:	49b6                	lw	s3,76(sp)
     392:	4a46                	lw	s4,80(sp)
     394:	4ad6                	lw	s5,84(sp)
     396:	4b66                	lw	s6,88(sp)
     398:	4bf6                	lw	s7,92(sp)
     39a:	5c06                	lw	s8,96(sp)
     39c:	5c96                	lw	s9,100(sp)
     39e:	5d26                	lw	s10,104(sp)
     3a0:	5db6                	lw	s11,108(sp)
     3a2:	5e46                	lw	t3,112(sp)
     3a4:	5ed6                	lw	t4,116(sp)
     3a6:	5f66                	lw	t5,120(sp)
     3a8:	5ff6                	lw	t6,124(sp)
     3aa:	6109                	addi	sp,sp,128
     3ac:	30200073          	mret
	...

000003b2 <__riscv_save_12>:
     3b2:	7139                	addi	sp,sp,-64
     3b4:	4301                	li	t1,0
     3b6:	c66e                	sw	s11,12(sp)
     3b8:	a019                	j	3be <__riscv_save_10+0x4>

000003ba <__riscv_save_10>:
     3ba:	7139                	addi	sp,sp,-64
     3bc:	5341                	li	t1,-16
     3be:	c86a                	sw	s10,16(sp)
     3c0:	ca66                	sw	s9,20(sp)
     3c2:	cc62                	sw	s8,24(sp)
     3c4:	ce5e                	sw	s7,28(sp)
     3c6:	a019                	j	3cc <__riscv_save_4+0x4>

000003c8 <__riscv_save_4>:
     3c8:	7139                	addi	sp,sp,-64
     3ca:	5301                	li	t1,-32
     3cc:	d05a                	sw	s6,32(sp)
     3ce:	d256                	sw	s5,36(sp)
     3d0:	d452                	sw	s4,40(sp)
     3d2:	d64e                	sw	s3,44(sp)
     3d4:	d84a                	sw	s2,48(sp)
     3d6:	da26                	sw	s1,52(sp)
     3d8:	dc22                	sw	s0,56(sp)
     3da:	de06                	sw	ra,60(sp)
     3dc:	40610133          	sub	sp,sp,t1
     3e0:	8282                	jr	t0

000003e2 <__riscv_save_0>:
     3e2:	1141                	addi	sp,sp,-16
     3e4:	c04a                	sw	s2,0(sp)
     3e6:	c226                	sw	s1,4(sp)
     3e8:	c422                	sw	s0,8(sp)
     3ea:	c606                	sw	ra,12(sp)
     3ec:	8282                	jr	t0

000003ee <__riscv_restore_12>:
     3ee:	4db2                	lw	s11,12(sp)
     3f0:	0141                	addi	sp,sp,16

000003f2 <__riscv_restore_10>:
     3f2:	4d02                	lw	s10,0(sp)
     3f4:	4c92                	lw	s9,4(sp)
     3f6:	4c22                	lw	s8,8(sp)
     3f8:	4bb2                	lw	s7,12(sp)
     3fa:	0141                	addi	sp,sp,16

000003fc <__riscv_restore_4>:
     3fc:	4b02                	lw	s6,0(sp)
     3fe:	4a92                	lw	s5,4(sp)
     400:	4a22                	lw	s4,8(sp)
     402:	49b2                	lw	s3,12(sp)
     404:	0141                	addi	sp,sp,16

00000406 <__riscv_restore_0>:
     406:	4902                	lw	s2,0(sp)
     408:	4492                	lw	s1,4(sp)
     40a:	4422                	lw	s0,8(sp)
     40c:	40b2                	lw	ra,12(sp)
     40e:	0141                	addi	sp,sp,16
     410:	8082                	ret

00000412 <lcd_delay_us>:
     412:	0ff00793          	li	a5,255
     416:	157d                	addi	a0,a0,-1
     418:	0ff57513          	andi	a0,a0,255
     41c:	00f51363          	bne	a0,a5,422 <lcd_delay_us+0x10>
     420:	8082                	ret
     422:	0001                	nop
     424:	0001                	nop
     426:	0001                	nop
     428:	0001                	nop
     42a:	0001                	nop
     42c:	0001                	nop
     42e:	0001                	nop
     430:	0001                	nop
     432:	0001                	nop
     434:	0001                	nop
     436:	0001                	nop
     438:	0001                	nop
     43a:	0001                	nop
     43c:	0001                	nop
     43e:	0001                	nop
     440:	0001                	nop
     442:	0001                	nop
     444:	0001                	nop
     446:	0001                	nop
     448:	0001                	nop
     44a:	0001                	nop
     44c:	0001                	nop
     44e:	0001                	nop
     450:	0001                	nop
     452:	0001                	nop
     454:	0001                	nop
     456:	0001                	nop
     458:	0001                	nop
     45a:	0001                	nop
     45c:	0001                	nop
     45e:	0001                	nop
     460:	0001                	nop
     462:	0001                	nop
     464:	0001                	nop
     466:	0001                	nop
     468:	0001                	nop
     46a:	0001                	nop
     46c:	0001                	nop
     46e:	0001                	nop
     470:	0001                	nop
     472:	0001                	nop
     474:	0001                	nop
     476:	0001                	nop
     478:	0001                	nop
     47a:	0001                	nop
     47c:	0001                	nop
     47e:	0001                	nop
     480:	0001                	nop
     482:	0001                	nop
     484:	0001                	nop
     486:	0001                	nop
     488:	0001                	nop
     48a:	0001                	nop
     48c:	0001                	nop
     48e:	0001                	nop
     490:	0001                	nop
     492:	0001                	nop
     494:	0001                	nop
     496:	0001                	nop
     498:	0001                	nop
     49a:	0001                	nop
     49c:	0001                	nop
     49e:	0001                	nop
     4a0:	0001                	nop
     4a2:	0001                	nop
     4a4:	0001                	nop
     4a6:	0001                	nop
     4a8:	0001                	nop
     4aa:	0001                	nop
     4ac:	0001                	nop
     4ae:	0001                	nop
     4b0:	0001                	nop
     4b2:	0001                	nop
     4b4:	0001                	nop
     4b6:	0001                	nop
     4b8:	0001                	nop
     4ba:	0001                	nop
     4bc:	0001                	nop
     4be:	0001                	nop
     4c0:	0001                	nop
     4c2:	0001                	nop
     4c4:	0001                	nop
     4c6:	0001                	nop
     4c8:	0001                	nop
     4ca:	0001                	nop
     4cc:	0001                	nop
     4ce:	0001                	nop
     4d0:	0001                	nop
     4d2:	0001                	nop
     4d4:	0001                	nop
     4d6:	0001                	nop
     4d8:	0001                	nop
     4da:	0001                	nop
     4dc:	0001                	nop
     4de:	0001                	nop
     4e0:	0001                	nop
     4e2:	0001                	nop
     4e4:	0001                	nop
     4e6:	0001                	nop
     4e8:	0001                	nop
     4ea:	0001                	nop
     4ec:	0001                	nop
     4ee:	0001                	nop
     4f0:	0001                	nop
     4f2:	0001                	nop
     4f4:	0001                	nop
     4f6:	0001                	nop
     4f8:	0001                	nop
     4fa:	0001                	nop
     4fc:	0001                	nop
     4fe:	0001                	nop
     500:	0001                	nop
     502:	0001                	nop
     504:	0001                	nop
     506:	0001                	nop
     508:	0001                	nop
     50a:	0001                	nop
     50c:	0001                	nop
     50e:	0001                	nop
     510:	0001                	nop
     512:	0001                	nop
     514:	0001                	nop
     516:	0001                	nop
     518:	0001                	nop
     51a:	0001                	nop
     51c:	0001                	nop
     51e:	0001                	nop
     520:	0001                	nop
     522:	0001                	nop
     524:	0001                	nop
     526:	0001                	nop
     528:	0001                	nop
     52a:	0001                	nop
     52c:	0001                	nop
     52e:	0001                	nop
     530:	0001                	nop
     532:	0001                	nop
     534:	0001                	nop
     536:	0001                	nop
     538:	0001                	nop
     53a:	bdf1                	j	416 <lcd_delay_us+0x4>

0000053c <oled_init>:
     53c:	ea7ff2ef          	jal	t0,3e2 <__riscv_save_0>
     540:	6435                	lui	s0,0xd
     542:	5b440793          	addi	a5,s0,1460 # d5b4 <oled_rst>
     546:	43dc                	lw	a5,4(a5)
     548:	9782                	jalr	a5
     54a:	06400513          	li	a0,100
     54e:	35d1                	jal	412 <lcd_delay_us>
     550:	5b442783          	lw	a5,1460(s0)
     554:	9782                	jalr	a5
     556:	4551                	li	a0,20
     558:	3d6d                	jal	412 <lcd_delay_us>
     55a:	4529                	li	a0,10
     55c:	3d5d                	jal	412 <lcd_delay_us>
     55e:	2055                	jal	602 <ssd1306_m1_init>
     560:	4501                	li	a0,0
     562:	b555                	j	406 <__riscv_restore_0>

00000564 <lcd_hal_init>:
     564:	e7fff2ef          	jal	t0,3e2 <__riscv_save_0>
     568:	20000537          	lui	a0,0x20000
     56c:	40050513          	addi	a0,a0,1024 # 20000400 <LcdRam>
     570:	197040ef          	jal	ra,4f06 <lcd_yl_disp_buff_set>
     574:	37e1                	jal	53c <oled_init>
     576:	0ff00513          	li	a0,255
     57a:	39f040ef          	jal	ra,5118 <lcd_yl_ram_fill>
     57e:	b561                	j	406 <__riscv_restore_0>

00000580 <lcd_data_write>:
     580:	e63ff2ef          	jal	t0,3e2 <__riscv_save_0>
     584:	842a                	mv	s0,a0
     586:	02200513          	li	a0,34
     58a:	892e                	mv	s2,a1
     58c:	200d                	jal	5ae <oled1_write_cmd>
     58e:	0ff47513          	andi	a0,s0,255
     592:	2831                	jal	5ae <oled1_write_cmd>
     594:	451d                	li	a0,7
     596:	2821                	jal	5ae <oled1_write_cmd>
     598:	4401                	li	s0,0
     59a:	08000493          	li	s1,128
     59e:	008907b3          	add	a5,s2,s0
     5a2:	2388                	lbu	a0,0(a5)
     5a4:	0405                	addi	s0,s0,1
     5a6:	280d                	jal	5d8 <oled1_write_data>
     5a8:	fe941be3          	bne	s0,s1,59e <lcd_data_write+0x1e>
     5ac:	bda9                	j	406 <__riscv_restore_0>

000005ae <oled1_write_cmd>:
     5ae:	e35ff2ef          	jal	t0,3e2 <__riscv_save_0>
     5b2:	6435                	lui	s0,0xd
     5b4:	57c40793          	addi	a5,s0,1404 # d57c <oled_cs>
     5b8:	43dc                	lw	a5,4(a5)
     5ba:	1141                	addi	sp,sp,-16
     5bc:	c62a                	sw	a0,12(sp)
     5be:	9782                	jalr	a5
     5c0:	67b5                	lui	a5,0xd
     5c2:	59c7a783          	lw	a5,1436(a5) # d59c <oled_dc+0x4>
     5c6:	9782                	jalr	a5
     5c8:	4532                	lw	a0,12(sp)
     5ca:	036010ef          	jal	ra,1600 <nor_spi_wb>
     5ce:	57c42783          	lw	a5,1404(s0)
     5d2:	9782                	jalr	a5
     5d4:	0141                	addi	sp,sp,16
     5d6:	bd05                	j	406 <__riscv_restore_0>

000005d8 <oled1_write_data>:
     5d8:	e0bff2ef          	jal	t0,3e2 <__riscv_save_0>
     5dc:	6435                	lui	s0,0xd
     5de:	57c40793          	addi	a5,s0,1404 # d57c <oled_cs>
     5e2:	43dc                	lw	a5,4(a5)
     5e4:	1141                	addi	sp,sp,-16
     5e6:	c62a                	sw	a0,12(sp)
     5e8:	9782                	jalr	a5
     5ea:	67b5                	lui	a5,0xd
     5ec:	5987a783          	lw	a5,1432(a5) # d598 <oled_dc>
     5f0:	9782                	jalr	a5
     5f2:	4532                	lw	a0,12(sp)
     5f4:	00c010ef          	jal	ra,1600 <nor_spi_wb>
     5f8:	57c42783          	lw	a5,1404(s0)
     5fc:	9782                	jalr	a5
     5fe:	0141                	addi	sp,sp,16
     600:	b519                	j	406 <__riscv_restore_0>

00000602 <ssd1306_m1_init>:
     602:	de1ff2ef          	jal	t0,3e2 <__riscv_save_0>
     606:	0ae00513          	li	a0,174
     60a:	3755                	jal	5ae <oled1_write_cmd>
     60c:	4501                	li	a0,0
     60e:	3745                	jal	5ae <oled1_write_cmd>
     610:	4541                	li	a0,16
     612:	3f71                	jal	5ae <oled1_write_cmd>
     614:	04000513          	li	a0,64
     618:	3f59                	jal	5ae <oled1_write_cmd>
     61a:	08100513          	li	a0,129
     61e:	3f41                	jal	5ae <oled1_write_cmd>
     620:	0f000513          	li	a0,240
     624:	3769                	jal	5ae <oled1_write_cmd>
     626:	0a100513          	li	a0,161
     62a:	3751                	jal	5ae <oled1_write_cmd>
     62c:	0c800513          	li	a0,200
     630:	3fbd                	jal	5ae <oled1_write_cmd>
     632:	0a600513          	li	a0,166
     636:	3fa5                	jal	5ae <oled1_write_cmd>
     638:	0a800513          	li	a0,168
     63c:	3f8d                	jal	5ae <oled1_write_cmd>
     63e:	03f00513          	li	a0,63
     642:	37b5                	jal	5ae <oled1_write_cmd>
     644:	0d300513          	li	a0,211
     648:	379d                	jal	5ae <oled1_write_cmd>
     64a:	4501                	li	a0,0
     64c:	378d                	jal	5ae <oled1_write_cmd>
     64e:	0d500513          	li	a0,213
     652:	3fb1                	jal	5ae <oled1_write_cmd>
     654:	08000513          	li	a0,128
     658:	3f99                	jal	5ae <oled1_write_cmd>
     65a:	0d900513          	li	a0,217
     65e:	3f81                	jal	5ae <oled1_write_cmd>
     660:	0f100513          	li	a0,241
     664:	37a9                	jal	5ae <oled1_write_cmd>
     666:	0da00513          	li	a0,218
     66a:	3791                	jal	5ae <oled1_write_cmd>
     66c:	4549                	li	a0,18
     66e:	3781                	jal	5ae <oled1_write_cmd>
     670:	0db00513          	li	a0,219
     674:	3f2d                	jal	5ae <oled1_write_cmd>
     676:	03000513          	li	a0,48
     67a:	3f15                	jal	5ae <oled1_write_cmd>
     67c:	08d00513          	li	a0,141
     680:	373d                	jal	5ae <oled1_write_cmd>
     682:	4551                	li	a0,20
     684:	372d                	jal	5ae <oled1_write_cmd>
     686:	4401                	li	s0,0
     688:	4921                	li	s2,8
     68a:	02200513          	li	a0,34
     68e:	3705                	jal	5ae <oled1_write_cmd>
     690:	8522                	mv	a0,s0
     692:	3f31                	jal	5ae <oled1_write_cmd>
     694:	451d                	li	a0,7
     696:	3f21                	jal	5ae <oled1_write_cmd>
     698:	08000493          	li	s1,128
     69c:	4501                	li	a0,0
     69e:	14fd                	addi	s1,s1,-1
     6a0:	3f25                	jal	5d8 <oled1_write_data>
     6a2:	fced                	bnez	s1,69c <ssd1306_m1_init+0x9a>
     6a4:	0405                	addi	s0,s0,1
     6a6:	0ff47413          	andi	s0,s0,255
     6aa:	ff2410e3          	bne	s0,s2,68a <ssd1306_m1_init+0x88>
     6ae:	0af00513          	li	a0,175
     6b2:	3df5                	jal	5ae <oled1_write_cmd>
     6b4:	0a600513          	li	a0,166
     6b8:	3ddd                	jal	5ae <oled1_write_cmd>
     6ba:	b3b1                	j	406 <__riscv_restore_0>

000006bc <key_task_creat>:
     6bc:	d27ff2ef          	jal	t0,3e2 <__riscv_save_0>
     6c0:	20002437          	lui	s0,0x20002
     6c4:	20002737          	lui	a4,0x20002
     6c8:	0000d6b7          	lui	a3,0xd
     6cc:	00000637          	lui	a2,0x0
     6d0:	0000d5b7          	lui	a1,0xd
     6d4:	48a9                	li	a7,10
     6d6:	4821                	li	a6,8
     6d8:	20000793          	li	a5,512
     6dc:	c4870713          	addi	a4,a4,-952 # 20001c48 <stk.9588>
     6e0:	2ec68693          	addi	a3,a3,748 # d2ec <Font_8_16+0x610>
     6e4:	6fe60613          	addi	a2,a2,1790 # 6fe <key_task>
     6e8:	2f458593          	addi	a1,a1,756 # d2f4 <Font_8_16+0x618>
     6ec:	e4840513          	addi	a0,s0,-440 # 20001e48 <tcb.9589>
     6f0:	32e030ef          	jal	ra,3a1e <rt_thread_init>
     6f4:	e4840513          	addi	a0,s0,-440
     6f8:	530030ef          	jal	ra,3c28 <rt_thread_startup>
     6fc:	b329                	j	406 <__riscv_restore_0>

000006fe <key_task>:
     6fe:	cbdff2ef          	jal	t0,3ba <__riscv_save_10>
     702:	00000537          	lui	a0,0x0
     706:	7ae50513          	addi	a0,a0,1966 # 7ae <key_scan>
     70a:	6ee000ef          	jal	ra,df8 <app_timer_task_add>
     70e:	6a8000ef          	jal	ra,db6 <app_tick_get>
     712:	01051593          	slli	a1,a0,0x10
     716:	20002937          	lui	s2,0x20002
     71a:	81c1                	srli	a1,a1,0x10
     71c:	c1090513          	addi	a0,s2,-1008 # 20001c10 <key_pulse>
     720:	200024b7          	lui	s1,0x20002
     724:	69b5                	lui	s3,0xd
     726:	20002437          	lui	s0,0x20002
     72a:	5f4060ef          	jal	ra,6d1e <pulse_init>
     72e:	ec848493          	addi	s1,s1,-312 # 20001ec8 <gui_st>
     732:	31c98993          	addi	s3,s3,796 # d31c <key_api>
     736:	20002a37          	lui	s4,0x20002
     73a:	c0440413          	addi	s0,s0,-1020 # 20001c04 <click_key>
     73e:	0000dab7          	lui	s5,0xd
     742:	03200513          	li	a0,50
     746:	47a030ef          	jal	ra,3bc0 <rt_thread_delay>
     74a:	c1090793          	addi	a5,s2,-1008
     74e:	33ac                	lbu	a1,3(a5)
     750:	edca0513          	addi	a0,s4,-292 # 20001edc <gui_st+0x14>
     754:	0534a023          	sw	s3,64(s1)
     758:	69c040ef          	jal	ra,4df4 <key_st_handle>
     75c:	508c                	lw	a1,32(s1)
     75e:	20600793          	li	a5,518
     762:	4605                	li	a2,1
     764:	8985                	andi	a1,a1,1
     766:	8522                	mv	a0,s0
     768:	a01e                	sh	a5,0(s0)
     76a:	718040ef          	jal	ra,4e82 <key_click_handle>
     76e:	305c                	lbu	a5,5(s0)
     770:	cf81                	beqz	a5,788 <key_task+0x8a>
     772:	2dca8513          	addi	a0,s5,732 # d2dc <Font_8_16+0x600>
     776:	330020ef          	jal	ra,2aa6 <sys_hw_puts>
     77a:	82918713          	addi	a4,gp,-2007 # 20000349 <click_key_cnt>
     77e:	231c                	lbu	a5,0(a4)
     780:	0785                	addi	a5,a5,1
     782:	0ff7f793          	andi	a5,a5,255
     786:	a31c                	sb	a5,0(a4)
     788:	207c                	lbu	a5,6(s0)
     78a:	cb81                	beqz	a5,79a <key_task+0x9c>
     78c:	82818713          	addi	a4,gp,-2008 # 20000348 <_edata>
     790:	231c                	lbu	a5,0(a4)
     792:	0785                	addi	a5,a5,1
     794:	0ff7f793          	andi	a5,a5,255
     798:	a31c                	sb	a5,0(a4)
     79a:	307c                	lbu	a5,7(s0)
     79c:	d3dd                	beqz	a5,742 <key_task+0x44>
     79e:	82a18713          	addi	a4,gp,-2006 # 2000034a <click_lost_cnt>
     7a2:	231c                	lbu	a5,0(a4)
     7a4:	0785                	addi	a5,a5,1
     7a6:	0ff7f793          	andi	a5,a5,255
     7aa:	a31c                	sb	a5,0(a4)
     7ac:	bf59                	j	742 <key_task+0x44>

000007ae <key_scan>:
     7ae:	c35ff2ef          	jal	t0,3e2 <__riscv_save_0>
     7b2:	82b18413          	addi	s0,gp,-2005 # 2000034b <key_scnt.9596>
     7b6:	201c                	lbu	a5,0(s0)
     7b8:	4711                	li	a4,4
     7ba:	0785                	addi	a5,a5,1
     7bc:	07e2                	slli	a5,a5,0x18
     7be:	87e1                	srai	a5,a5,0x18
     7c0:	a01c                	sb	a5,0(s0)
     7c2:	02f75163          	bge	a4,a5,7e4 <key_scan+0x36>
     7c6:	67b5                	lui	a5,0xd
     7c8:	5d07a783          	lw	a5,1488(a5) # d5d0 <user_key>
     7cc:	9782                	jalr	a5
     7ce:	00a03633          	snez	a2,a0
     7d2:	20002537          	lui	a0,0x20002
     7d6:	458d                	li	a1,3
     7d8:	edc50513          	addi	a0,a0,-292 # 20001edc <gui_st+0x14>
     7dc:	00040023          	sb	zero,0(s0)
     7e0:	552040ef          	jal	ra,4d32 <key_st_sample>
     7e4:	b10d                	j	406 <__riscv_restore_0>

000007e6 <gui_task_creat>:
     7e6:	bfdff2ef          	jal	t0,3e2 <__riscv_save_0>
     7ea:	20002437          	lui	s0,0x20002
     7ee:	20002737          	lui	a4,0x20002
     7f2:	0000d6b7          	lui	a3,0xd
     7f6:	00001637          	lui	a2,0x1
     7fa:	0000d5b7          	lui	a1,0xd
     7fe:	48a9                	li	a7,10
     800:	4821                	li	a6,8
     802:	40000793          	li	a5,1024
     806:	01070713          	addi	a4,a4,16 # 20002010 <gui_stk.10492>
     80a:	2ec68693          	addi	a3,a3,748 # d2ec <Font_8_16+0x610>
     80e:	82860613          	addi	a2,a2,-2008 # 828 <gui_task>
     812:	2f458593          	addi	a1,a1,756 # d2f4 <Font_8_16+0x618>
     816:	41040513          	addi	a0,s0,1040 # 20002410 <tcb_gui.10493>
     81a:	204030ef          	jal	ra,3a1e <rt_thread_init>
     81e:	41040513          	addi	a0,s0,1040
     822:	406030ef          	jal	ra,3c28 <rt_thread_startup>
     826:	b6c5                	j	406 <__riscv_restore_0>

00000828 <gui_task>:
     828:	b93ff2ef          	jal	t0,3ba <__riscv_save_10>
     82c:	1141                	addi	sp,sp,-16
     82e:	4551                	li	a0,20
     830:	390030ef          	jal	ra,3bc0 <rt_thread_delay>
     834:	111040ef          	jal	ra,5144 <lcd_yl_init>
     838:	45c1                	li	a1,16
     83a:	4501                	li	a0,0
     83c:	69c040ef          	jal	ra,4ed8 <lcd_yl_origin_set>
     840:	20002437          	lui	s0,0x20002
     844:	662d                	lui	a2,0xb
     846:	51c60613          	addi	a2,a2,1308 # b51c <Font_16_32>
     84a:	ec840493          	addi	s1,s0,-312 # 20001ec8 <gui_st>
     84e:	02000593          	li	a1,32
     852:	02000513          	li	a0,32
     856:	10049023          	sh	zero,256(s1)
     85a:	688040ef          	jal	ra,4ee2 <lcd_yl_font_set>
     85e:	0ff00513          	li	a0,255
     862:	0b7040ef          	jal	ra,5118 <lcd_yl_ram_fill>
     866:	6a6040ef          	jal	ra,4f0c <lcd_yl_anti>
     86a:	45c1                	li	a1,16
     86c:	02000513          	li	a0,32
     870:	668040ef          	jal	ra,4ed8 <lcd_yl_origin_set>
     874:	07c48593          	addi	a1,s1,124
     878:	0000d537          	lui	a0,0xd
     87c:	200024b7          	lui	s1,0x20002
     880:	08000613          	li	a2,128
     884:	2f850513          	addi	a0,a0,760 # d2f8 <Font_8_16+0x61c>
     888:	20002937          	lui	s2,0x20002
     88c:	49048493          	addi	s1,s1,1168 # 20002490 <mb>
     890:	6985                	lui	s3,0x1
     892:	7a0050ef          	jal	ra,6032 <copy_str>
     896:	ec840413          	addi	s0,s0,-312
     89a:	f4490913          	addi	s2,s2,-188 # 20001f44 <gui_st+0x7c>
     89e:	6a35                	lui	s4,0xd
     8a0:	0000dab7          	lui	s5,0xd
     8a4:	99a6                	add	s3,s3,s1
     8a6:	0000db37          	lui	s6,0xd
     8aa:	6ba9                	lui	s7,0xa
     8ac:	4509                	li	a0,2
     8ae:	312030ef          	jal	ra,3bc0 <rt_thread_delay>
     8b2:	4621                	li	a2,8
     8b4:	4589                	li	a1,2
     8b6:	02000513          	li	a0,32
     8ba:	7df040ef          	jal	ra,5898 <lcd_yl_poll>
     8be:	205e                	lhu	a5,4(s0)
     8c0:	201a                	lhu	a4,0(s0)
     8c2:	00f70a63          	beq	a4,a5,8d6 <gui_task+0xae>
     8c6:	205e                	lhu	a5,4(s0)
     8c8:	0ff00513          	li	a0,255
     8cc:	a01e                	sh	a5,0(s0)
     8ce:	04b040ef          	jal	ra,5118 <lcd_yl_ram_fill>
     8d2:	00042823          	sw	zero,16(s0)
     8d6:	00041783          	lh	a5,0(s0)
     8da:	4705                	li	a4,1
     8dc:	08e78963          	beq	a5,a4,96e <gui_task+0x146>
     8e0:	4709                	li	a4,2
     8e2:	0ae78463          	beq	a5,a4,98a <gui_task+0x162>
     8e6:	0e079e63          	bnez	a5,9e2 <gui_task+0x1ba>
     8ea:	4511                	li	a0,4
     8ec:	630040ef          	jal	ra,4f1c <lcd_yl_space_set>
     8f0:	624040ef          	jal	ra,4f14 <lcd_yl_half_en>
     8f4:	79cb8613          	addi	a2,s7,1948 # a79c <Font_12_24>
     8f8:	45e1                	li	a1,24
     8fa:	4561                	li	a0,24
     8fc:	5e6040ef          	jal	ra,4ee2 <lcd_yl_font_set>
     900:	6691                	lui	a3,0x4
     902:	0000d637          	lui	a2,0xd
     906:	1e568693          	addi	a3,a3,485 # 41e5 <ch32_pin_mode+0x65>
     90a:	30060613          	addi	a2,a2,768 # d300 <Font_8_16+0x624>
     90e:	02000593          	li	a1,32
     912:	04000513          	li	a0,64
     916:	234050ef          	jal	ra,5b4a <lcd_yl_alain_puts>
     91a:	2971                	jal	db6 <app_tick_get>
     91c:	3e800593          	li	a1,1000
     920:	02b555b3          	divu	a1,a0,a1
     924:	4681                	li	a3,0
     926:	04000613          	li	a2,64
     92a:	0028                	addi	a0,sp,8
     92c:	22e050ef          	jal	ra,5b5a <i32_to_string>
     930:	0000d5b7          	lui	a1,0xd
     934:	4621                	li	a2,8
     936:	30858593          	addi	a1,a1,776 # d308 <Font_8_16+0x62c>
     93a:	0028                	addi	a0,sp,8
     93c:	2e7050ef          	jal	ra,6422 <str_add>
     940:	cdca0613          	addi	a2,s4,-804 # ccdc <Font_8_16>
     944:	45c1                	li	a1,16
     946:	4541                	li	a0,16
     948:	59a040ef          	jal	ra,4ee2 <lcd_yl_font_set>
     94c:	4509                	li	a0,2
     94e:	5ce040ef          	jal	ra,4f1c <lcd_yl_space_set>
     952:	4685                	li	a3,1
     954:	0030                	addi	a2,sp,8
     956:	03000593          	li	a1,48
     95a:	04000513          	li	a0,64
     95e:	1ec050ef          	jal	ra,5b4a <lcd_yl_alain_puts>
     962:	201e                	lhu	a5,0(s0)
     964:	a03e                	sh	a5,2(s0)
     966:	481c                	lw	a5,16(s0)
     968:	0785                	addi	a5,a5,1
     96a:	c81c                	sw	a5,16(s0)
     96c:	b781                	j	8ac <gui_task+0x84>
     96e:	4501                	li	a0,0
     970:	5ac040ef          	jal	ra,4f1c <lcd_yl_space_set>
     974:	cdca0613          	addi	a2,s4,-804
     978:	45c1                	li	a1,16
     97a:	4541                	li	a0,16
     97c:	566040ef          	jal	ra,4ee2 <lcd_yl_font_set>
     980:	4695                	li	a3,5
     982:	864a                	mv	a2,s2
     984:	02000593          	li	a1,32
     988:	bfc9                	j	95a <gui_task+0x132>
     98a:	4501                	li	a0,0
     98c:	590040ef          	jal	ra,4f1c <lcd_yl_space_set>
     990:	56a4d583          	lhu	a1,1386(s1)
     994:	4681                	li	a3,0
     996:	05000613          	li	a2,80
     99a:	0028                	addi	a0,sp,8
     99c:	1be050ef          	jal	ra,5b5a <i32_to_string>
     9a0:	30ca8613          	addi	a2,s5,780 # d30c <Font_8_16+0x630>
     9a4:	4581                	li	a1,0
     9a6:	4501                	li	a0,0
     9a8:	561040ef          	jal	ra,5708 <lcd_yl_puts>
     9ac:	0030                	addi	a2,sp,8
     9ae:	4581                	li	a1,0
     9b0:	02800513          	li	a0,40
     9b4:	555040ef          	jal	ra,5708 <lcd_yl_puts>
     9b8:	8129d583          	lhu	a1,-2030(s3) # 812 <__stack_size+0x12>
     9bc:	4681                	li	a3,0
     9be:	05000613          	li	a2,80
     9c2:	0028                	addi	a0,sp,8
     9c4:	196050ef          	jal	ra,5b5a <i32_to_string>
     9c8:	314b0613          	addi	a2,s6,788 # d314 <Font_8_16+0x638>
     9cc:	45c1                	li	a1,16
     9ce:	4501                	li	a0,0
     9d0:	539040ef          	jal	ra,5708 <lcd_yl_puts>
     9d4:	0030                	addi	a2,sp,8
     9d6:	45c1                	li	a1,16
     9d8:	02800513          	li	a0,40
     9dc:	52d040ef          	jal	ra,5708 <lcd_yl_puts>
     9e0:	b749                	j	962 <gui_task+0x13a>
     9e2:	00041223          	sh	zero,4(s0)
     9e6:	bfb5                	j	962 <gui_task+0x13a>

000009e8 <key_set_press>:
     9e8:	9fbff2ef          	jal	t0,3e2 <__riscv_save_0>
     9ec:	0000d537          	lui	a0,0xd
     9f0:	39050513          	addi	a0,a0,912 # d390 <key_list+0x60>
     9f4:	0b2020ef          	jal	ra,2aa6 <sys_hw_puts>
     9f8:	20002737          	lui	a4,0x20002
     9fc:	ec870713          	addi	a4,a4,-312 # 20001ec8 <gui_st>
     a00:	235e                	lhu	a5,4(a4)
     a02:	0785                	addi	a5,a5,1
     a04:	07c2                	slli	a5,a5,0x10
     a06:	87c1                	srai	a5,a5,0x10
     a08:	a35e                	sh	a5,4(a4)
     a0a:	9fdff06f          	j	406 <__riscv_restore_0>

00000a0e <key_set_release>:
     a0e:	9d5ff2ef          	jal	t0,3e2 <__riscv_save_0>
     a12:	0000d537          	lui	a0,0xd
     a16:	3a450513          	addi	a0,a0,932 # d3a4 <key_list+0x74>
     a1a:	08c020ef          	jal	ra,2aa6 <sys_hw_puts>
     a1e:	9e9ff06f          	j	406 <__riscv_restore_0>

00000a22 <key_set_shift_keep>:
     a22:	8082                	ret

00000a24 <key_idle>:
     a24:	8082                	ret

00000a26 <key_down_any>:
     a26:	8082                	ret

00000a28 <key_release_any>:
     a28:	8082                	ret

00000a2a <key_keep_any>:
     a2a:	8082                	ret

00000a2c <key_set_keep>:
     a2c:	8082                	ret

00000a2e <key_shift_press>:
     a2e:	8082                	ret

00000a30 <key_shift_release>:
     a30:	8082                	ret

00000a32 <key_shift_keep>:
     a32:	8082                	ret

00000a34 <key_down_press>:
     a34:	8082                	ret

00000a36 <key_down_release>:
     a36:	8082                	ret

00000a38 <key_down_keep>:
     a38:	8082                	ret

00000a3a <key_up_press>:
     a3a:	8082                	ret

00000a3c <key_up_release>:
     a3c:	8082                	ret

00000a3e <key_up_keep>:
     a3e:	8082                	ret

00000a40 <key_set_shift_press>:
     a40:	8082                	ret

00000a42 <key_set_shift_release>:
     a42:	8082                	ret

00000a44 <qc_callback>:
     a44:	8082                	ret

00000a46 <mb_task_creat>:
     a46:	99dff2ef          	jal	t0,3e2 <__riscv_save_0>
     a4a:	20005537          	lui	a0,0x20005
     a4e:	20005437          	lui	s0,0x20005
     a52:	a2840413          	addi	s0,s0,-1496 # 20004a28 <os_obj+0x1000>
     a56:	ab050793          	addi	a5,a0,-1360 # 20004ab0 <os_obj+0x1088>
     a5a:	20005737          	lui	a4,0x20005
     a5e:	0000d6b7          	lui	a3,0xd
     a62:	00001637          	lui	a2,0x1
     a66:	0000d5b7          	lui	a1,0xd
     a6a:	10f42423          	sw	a5,264(s0)
     a6e:	48a9                	li	a7,10
     a70:	4811                	li	a6,4
     a72:	60000793          	li	a5,1536
     a76:	b3870713          	addi	a4,a4,-1224 # 20004b38 <os_obj+0x1110>
     a7a:	2ec68693          	addi	a3,a3,748 # d2ec <Font_8_16+0x610>
     a7e:	c4660613          	addi	a2,a2,-954 # c46 <modbus_task>
     a82:	3b858593          	addi	a1,a1,952 # d3b8 <key_list+0x88>
     a86:	ab050513          	addi	a0,a0,-1360
     a8a:	795020ef          	jal	ra,3a1e <rt_thread_init>
     a8e:	10842503          	lw	a0,264(s0)
     a92:	196030ef          	jal	ra,3c28 <rt_thread_startup>
     a96:	971ff06f          	j	406 <__riscv_restore_0>

00000a9a <qc_task>:
     a9a:	921ff2ef          	jal	t0,3ba <__riscv_save_10>
     a9e:	64f1                	lui	s1,0x1c
     aa0:	1101                	addi	sp,sp,-32
     aa2:	20048593          	addi	a1,s1,512 # 1c200 <__rtmsymtab_end+0xd4b0>
     aa6:	4601                	li	a2,0
     aa8:	4505                	li	a0,1
     aaa:	6a3000ef          	jal	ra,194c <qc07_Init>
     aae:	20002bb7          	lui	s7,0x20002
     ab2:	00001437          	lui	s0,0x1
     ab6:	490b8b13          	addi	s6,s7,1168 # 20002490 <mb>
     aba:	c4c40413          	addi	s0,s0,-948 # c4c <mb_os_send>
     abe:	20048593          	addi	a1,s1,512
     ac2:	4601                	li	a2,0
     ac4:	4501                	li	a0,0
     ac6:	20003ab7          	lui	s5,0x20003
     aca:	f30a8993          	addi	s3,s5,-208 # 20002f30 <mb_tst>
     ace:	5a8b2423          	sw	s0,1448(s6)
     ad2:	1d4010ef          	jal	ra,1ca6 <qc08_Init>
     ad6:	18098793          	addi	a5,s3,384
     ada:	cc3e                	sw	a5,24(sp)
     adc:	10098793          	addi	a5,s3,256
     ae0:	ca3e                	sw	a5,20(sp)
     ae2:	000017b7          	lui	a5,0x1
     ae6:	a4478793          	addi	a5,a5,-1468 # a44 <qc_callback>
     aea:	ce3e                	sw	a5,28(sp)
     aec:	020607b7          	lui	a5,0x2060
     af0:	40178793          	addi	a5,a5,1025 # 2060401 <__rtmsymtab_end+0x20516b1>
     af4:	200034b7          	lui	s1,0x20003
     af8:	c63e                	sw	a5,12(sp)
     afa:	6905                	lui	s2,0x1
     afc:	001017b7          	lui	a5,0x101
     b00:	995a                	add	s2,s2,s6
     b02:	0795                	addi	a5,a5,5
     b04:	0070                	addi	a2,sp,12
     b06:	4581                	li	a1,0
     b08:	9e048513          	addi	a0,s1,-1568 # 200029e0 <mb+0x550>
     b0c:	84892823          	sw	s0,-1968(s2) # 850 <gui_task+0x28>
     b10:	c83e                	sw	a5,16(sp)
     b12:	20003437          	lui	s0,0x20003
     b16:	5b3060ef          	jal	ra,78c8 <mqc_stc_cmd_req>
     b1a:	0070                	addi	a2,sp,12
     b1c:	4581                	li	a1,0
     b1e:	c8840513          	addi	a0,s0,-888 # 20002c88 <mb+0x7f8>
     b22:	5a7060ef          	jal	ra,78c8 <mqc_stc_cmd_req>
     b26:	6a05                	lui	s4,0x1
     b28:	00ca0793          	addi	a5,s4,12 # 100c <o_led1_pin_en+0x4>
     b2c:	0070                	addi	a2,sp,12
     b2e:	4585                	li	a1,1
     b30:	9e048513          	addi	a0,s1,-1568
     b34:	80fc                	sh	a5,16(sp)
     b36:	000106a3          	sb	zero,13(sp)
     b3a:	58f060ef          	jal	ra,78c8 <mqc_stc_cmd_req>
     b3e:	0070                	addi	a2,sp,12
     b40:	4585                	li	a1,1
     b42:	c8840513          	addi	a0,s0,-888
     b46:	583060ef          	jal	ra,78c8 <mqc_stc_cmd_req>
     b4a:	08098793          	addi	a5,s3,128
     b4e:	cc3e                	sw	a5,24(sp)
     b50:	4791                	li	a5,4
     b52:	86dc                	sb	a5,13(sp)
     b54:	20400793          	li	a5,516
     b58:	877c                	sh	a5,14(sp)
     b5a:	020807b7          	lui	a5,0x2080
     b5e:	20878793          	addi	a5,a5,520 # 2080208 <__rtmsymtab_end+0x20714b8>
     b62:	c83e                	sw	a5,16(sp)
     b64:	5b4b2783          	lw	a5,1460(s6)
     b68:	ca4e                	sw	s3,20(sp)
     b6a:	006c                	addi	a1,sp,12
     b6c:	47dc                	lw	a5,12(a5)
     b6e:	4509                	li	a0,2
     b70:	4b01                	li	s6,0
     b72:	9782                	jalr	a5
     b74:	85c92783          	lw	a5,-1956(s2)
     b78:	006c                	addi	a1,sp,12
     b7a:	4509                	li	a0,2
     b7c:	47dc                	lw	a5,12(a5)
     b7e:	f30a8a93          	addi	s5,s5,-208
     b82:	16800c13          	li	s8,360
     b86:	9782                	jalr	a5
     b88:	006c                	addi	a1,sp,12
     b8a:	9e048513          	addi	a0,s1,-1568
     b8e:	4fd060ef          	jal	ra,788a <mqc_dyna_cmd_req>
     b92:	006c                	addi	a1,sp,12
     b94:	c8840513          	addi	a0,s0,-888
     b98:	4f3060ef          	jal	ra,788a <mqc_dyna_cmd_req>
     b9c:	006c                	addi	a1,sp,12
     b9e:	9e048513          	addi	a0,s1,-1568
     ba2:	4e9060ef          	jal	ra,788a <mqc_dyna_cmd_req>
     ba6:	006c                	addi	a1,sp,12
     ba8:	c8840513          	addi	a0,s0,-888
     bac:	4df060ef          	jal	ra,788a <mqc_dyna_cmd_req>
     bb0:	6795                	lui	a5,0x5
     bb2:	58878793          	addi	a5,a5,1416 # 5588 <lcd_yl_imgage_quick+0xb2>
     bb6:	08f99023          	sh	a5,128(s3)
     bba:	85c92783          	lw	a5,-1956(s2)
     bbe:	200039b7          	lui	s3,0x20003
     bc2:	895e                	mv	s2,s7
     bc4:	43dc                	lw	a5,4(a5)
     bc6:	20007bb7          	lui	s7,0x20007
     bca:	49098993          	addi	s3,s3,1168 # 20003490 <com_tx_buff+0x120>
     bce:	9782                	jalr	a5
     bd0:	a28b8b93          	addi	s7,s7,-1496 # 20006a28 <rt_heap+0x260>
     bd4:	e20a0a13          	addi	s4,s4,-480
     bd8:	840ba503          	lw	a0,-1984(s7)
     bdc:	3e800593          	li	a1,1000
     be0:	3d2020ef          	jal	ra,2fb2 <rt_sem_take>
     be4:	49090513          	addi	a0,s2,1168
     be8:	034070ef          	jal	ra,7c1c <qc_mb_poll>
     bec:	9e048513          	addi	a0,s1,-1568
     bf0:	02c070ef          	jal	ra,7c1c <qc_mb_poll>
     bf4:	c8840513          	addi	a0,s0,-888
     bf8:	024070ef          	jal	ra,7c1c <qc_mb_poll>
     bfc:	8129d783          	lhu	a5,-2030(s3)
     c00:	218a9023          	sh	s8,512(s5)
     c04:	8b8d                	andi	a5,a5,3
     c06:	ef95                	bnez	a5,c42 <qc_task+0x1a8>
     c08:	000b1563          	bnez	s6,c12 <qc_task+0x178>
     c0c:	01411823          	sh	s4,16(sp)
     c10:	4b05                	li	s6,1
     c12:	82c9c783          	lbu	a5,-2004(s3)
     c16:	d3e9                	beqz	a5,bd8 <qc_task+0x13e>
     c18:	006c                	addi	a1,sp,12
     c1a:	9e048513          	addi	a0,s1,-1568
     c1e:	46d060ef          	jal	ra,788a <mqc_dyna_cmd_req>
     c22:	006c                	addi	a1,sp,12
     c24:	c8840513          	addi	a0,s0,-888
     c28:	463060ef          	jal	ra,788a <mqc_dyna_cmd_req>
     c2c:	006c                	addi	a1,sp,12
     c2e:	9e048513          	addi	a0,s1,-1568
     c32:	459060ef          	jal	ra,788a <mqc_dyna_cmd_req>
     c36:	006c                	addi	a1,sp,12
     c38:	c8840513          	addi	a0,s0,-888
     c3c:	44f060ef          	jal	ra,788a <mqc_dyna_cmd_req>
     c40:	bf61                	j	bd8 <qc_task+0x13e>
     c42:	4b01                	li	s6,0
     c44:	b7f9                	j	c12 <qc_task+0x178>

00000c46 <modbus_task>:
     c46:	f9cff2ef          	jal	t0,3e2 <__riscv_save_0>
     c4a:	3d81                	jal	a9a <qc_task>

00000c4c <mb_os_send>:
     c4c:	f96ff2ef          	jal	t0,3e2 <__riscv_save_0>
     c50:	2e45                	jal	1000 <bsp_dly_get_cnt>
     c52:	200067b7          	lui	a5,0x20006
     c56:	3b478793          	addi	a5,a5,948 # 200063b4 <sys_st>
     c5a:	c788                	sw	a0,8(a5)
     c5c:	200077b7          	lui	a5,0x20007
     c60:	a2878793          	addi	a5,a5,-1496 # 20006a28 <rt_heap+0x260>
     c64:	8407a503          	lw	a0,-1984(a5)
     c68:	3ce020ef          	jal	ra,3036 <rt_sem_release>
     c6c:	f9aff06f          	j	406 <__riscv_restore_0>

00000c70 <qc_reg_get>:
     c70:	47bd                	li	a5,15
     c72:	872a                	mv	a4,a0
     c74:	02a7e163          	bltu	a5,a0,c96 <qc_reg_get+0x26>
     c78:	200037b7          	lui	a5,0x20003
     c7c:	00151693          	slli	a3,a0,0x1
     c80:	14478793          	addi	a5,a5,324 # 20003144 <hdat>
     c84:	97b6                	add	a5,a5,a3
     c86:	468d                	li	a3,3
     c88:	238a                	lhu	a0,0(a5)
     c8a:	00e6e663          	bltu	a3,a4,c96 <qc_reg_get+0x26>
     c8e:	00150713          	addi	a4,a0,1
     c92:	a39a                	sh	a4,0(a5)
     c94:	8082                	ret
     c96:	8082                	ret

00000c98 <qc_reg_set>:
     c98:	47bd                	li	a5,15
     c9a:	00a7ea63          	bltu	a5,a0,cae <qc_reg_set+0x16>
     c9e:	00151793          	slli	a5,a0,0x1
     ca2:	20003537          	lui	a0,0x20003
     ca6:	14450513          	addi	a0,a0,324 # 20003144 <hdat>
     caa:	953e                	add	a0,a0,a5
     cac:	a10e                	sh	a1,0(a0)
     cae:	8082                	ret

00000cb0 <qc_coil_dat_set>:
     cb0:	47bd                	li	a5,15
     cb2:	00a7e863          	bltu	a5,a0,cc2 <qc_coil_dat_set+0x12>
     cb6:	200037b7          	lui	a5,0x20003
     cba:	13478793          	addi	a5,a5,308 # 20003134 <coil_reg>
     cbe:	97aa                	add	a5,a5,a0
     cc0:	a38c                	sb	a1,0(a5)
     cc2:	8082                	ret

00000cc4 <qc_coil_dat_get>:
     cc4:	47bd                	li	a5,15
     cc6:	00a7e963          	bltu	a5,a0,cd8 <qc_coil_dat_get+0x14>
     cca:	200037b7          	lui	a5,0x20003
     cce:	13478793          	addi	a5,a5,308 # 20003134 <coil_reg>
     cd2:	97aa                	add	a5,a5,a0
     cd4:	2388                	lbu	a0,0(a5)
     cd6:	8082                	ret
     cd8:	4501                	li	a0,0
     cda:	8082                	ret

00000cdc <bsp_pw_delay_for_bug>:
     cdc:	009897b7          	lui	a5,0x989
     ce0:	1141                	addi	sp,sp,-16
     ce2:	68078793          	addi	a5,a5,1664 # 989680 <__rtmsymtab_end+0x97a930>
     ce6:	c63e                	sw	a5,12(sp)
     ce8:	47b2                	lw	a5,12(sp)
     cea:	fff78713          	addi	a4,a5,-1
     cee:	c63a                	sw	a4,12(sp)
     cf0:	ffe5                	bnez	a5,ce8 <bsp_pw_delay_for_bug+0xc>
     cf2:	0141                	addi	sp,sp,16
     cf4:	8082                	ret

00000cf6 <bsp_Init>:
     cf6:	eecff2ef          	jal	t0,3e2 <__riscv_save_0>
     cfa:	37cd                	jal	cdc <bsp_pw_delay_for_bug>
     cfc:	29ed                	jal	11f6 <bsp_gpio_init>
     cfe:	4505                	li	a0,1
     d00:	2801                	jal	d10 <app_tick_init>
     d02:	24bd                	jal	f70 <bsp_dly_init>
     d04:	1d5000ef          	jal	ra,16d8 <bsp_uart_init>
     d08:	12f000ef          	jal	ra,1636 <nor_spi_init>
     d0c:	efaff06f          	j	406 <__riscv_restore_0>

00000d10 <app_tick_init>:
     d10:	ed2ff2ef          	jal	t0,3e2 <__riscv_save_0>
     d14:	1101                	addi	sp,sp,-32
     d16:	1d8030ef          	jal	ra,3eee <rt_hw_interrupt_disable>
     d1a:	842a                	mv	s0,a0
     d1c:	4585                	li	a1,1
     d1e:	02000513          	li	a0,32
     d22:	679030ef          	jal	ra,4b9a <RCC_APB1PeriphClockCmd>
     d26:	4585                	li	a1,1
     d28:	02000513          	li	a0,32
     d2c:	6ab030ef          	jal	ra,4bd6 <RCC_APB1PeriphResetCmd>
     d30:	4581                	li	a1,0
     d32:	02000513          	li	a0,32
     d36:	6a1030ef          	jal	ra,4bd6 <RCC_APB1PeriphResetCmd>
     d3a:	8522                	mv	a0,s0
     d3c:	1be030ef          	jal	ra,3efa <rt_hw_interrupt_enable>
     d40:	0068                	addi	a0,sp,12
     d42:	4c5030ef          	jal	ra,4a06 <RCC_GetClocksFreq>
     d46:	47d2                	lw	a5,20(sp)
     d48:	000f4737          	lui	a4,0xf4
     d4c:	24070713          	addi	a4,a4,576 # f4240 <__rtmsymtab_end+0xe54f0>
     d50:	02e7d7b3          	divu	a5,a5,a4
     d54:	400014b7          	lui	s1,0x40001
     d58:	40049023          	sh	zero,1024(s1) # 40001400 <_eusrstack+0x1fff1400>
     d5c:	40049223          	sh	zero,1028(s1)
     d60:	40049623          	sh	zero,1036(s1)
     d64:	40049823          	sh	zero,1040(s1)
     d68:	4605                	li	a2,1
     d6a:	458d                	li	a1,3
     d6c:	04700513          	li	a0,71
     d70:	40048413          	addi	s0,s1,1024
     d74:	0786                	slli	a5,a5,0x1
     d76:	17fd                	addi	a5,a5,-1
     d78:	07c2                	slli	a5,a5,0x10
     d7a:	83c1                	srli	a5,a5,0x10
     d7c:	42f49423          	sh	a5,1064(s1)
     d80:	3e700793          	li	a5,999
     d84:	42f49623          	sh	a5,1068(s1)
     d88:	2861                	jal	e20 <nvic_irq_set>
     d8a:	4795                	li	a5,5
     d8c:	200035b7          	lui	a1,0x20003
     d90:	20003537          	lui	a0,0x20003
     d94:	40f49023          	sh	a5,1024(s1)
     d98:	4681                	li	a3,0
     d9a:	4621                	li	a2,8
     d9c:	16458593          	addi	a1,a1,356 # 20003164 <task_list>
     da0:	18450513          	addi	a0,a0,388 # 20003184 <task_vect>
     da4:	093050ef          	jal	ra,6636 <vtask_list_init>
     da8:	4785                	li	a5,1
     daa:	40f49623          	sh	a5,1036(s1)
     dae:	4501                	li	a0,0
     db0:	6105                	addi	sp,sp,32
     db2:	e54ff06f          	j	406 <__riscv_restore_0>

00000db6 <app_tick_get>:
     db6:	82c1a503          	lw	a0,-2004(gp) # 2000034c <hal_tick_cnt>
     dba:	8082                	ret

00000dbc <TIM7_IRQHandler>:
     dbc:	34011173          	csrrw	sp,mscratch,sp
     dc0:	450020ef          	jal	ra,3210 <rt_interrupt_enter>
     dc4:	400017b7          	lui	a5,0x40001
     dc8:	40079823          	sh	zero,1040(a5) # 40001410 <_eusrstack+0x1fff1410>
     dcc:	82c18793          	addi	a5,gp,-2004 # 2000034c <hal_tick_cnt>
     dd0:	4398                	lw	a4,0(a5)
     dd2:	20003537          	lui	a0,0x20003
     dd6:	18450513          	addi	a0,a0,388 # 20003184 <task_vect>
     dda:	0705                	addi	a4,a4,1
     ddc:	c398                	sw	a4,0(a5)
     dde:	83018793          	addi	a5,gp,-2000 # 20000350 <local_time>
     de2:	4398                	lw	a4,0(a5)
     de4:	0705                	addi	a4,a4,1
     de6:	c398                	sw	a4,0(a5)
     de8:	0b7050ef          	jal	ra,669e <vtask_list_run_once>
     dec:	452020ef          	jal	ra,323e <rt_interrupt_leave>
     df0:	34011173          	csrrw	sp,mscratch,sp
     df4:	30200073          	mret

00000df8 <app_timer_task_add>:
     df8:	deaff2ef          	jal	t0,3e2 <__riscv_save_0>
     dfc:	1141                	addi	sp,sp,-16
     dfe:	c62a                	sw	a0,12(sp)
     e00:	0ee030ef          	jal	ra,3eee <rt_hw_interrupt_disable>
     e04:	45b2                	lw	a1,12(sp)
     e06:	842a                	mv	s0,a0
     e08:	20003537          	lui	a0,0x20003
     e0c:	18450513          	addi	a0,a0,388 # 20003184 <task_vect>
     e10:	04b050ef          	jal	ra,665a <vtask_list_add>
     e14:	8522                	mv	a0,s0
     e16:	0e4030ef          	jal	ra,3efa <rt_hw_interrupt_enable>
     e1a:	0141                	addi	sp,sp,16
     e1c:	deaff06f          	j	406 <__riscv_restore_0>

00000e20 <nvic_irq_set>:
     e20:	dc2ff2ef          	jal	t0,3e2 <__riscv_save_0>
     e24:	1141                	addi	sp,sp,-16
     e26:	842a                	mv	s0,a0
     e28:	c432                	sw	a2,8(sp)
     e2a:	c62e                	sw	a1,12(sp)
     e2c:	0c2030ef          	jal	ra,3eee <rt_hw_interrupt_disable>
     e30:	4622                	lw	a2,8(sp)
     e32:	4705                	li	a4,1
     e34:	00545793          	srli	a5,s0,0x5
     e38:	00871733          	sll	a4,a4,s0
     e3c:	c605                	beqz	a2,e64 <nvic_irq_set+0x44>
     e3e:	45b2                	lw	a1,12(sp)
     e40:	e000e6b7          	lui	a3,0xe000e
     e44:	9436                	add	s0,s0,a3
     e46:	0596                	slli	a1,a1,0x5
     e48:	0ff5f593          	andi	a1,a1,255
     e4c:	04078793          	addi	a5,a5,64
     e50:	40b40023          	sb	a1,1024(s0)
     e54:	078a                	slli	a5,a5,0x2
     e56:	97b6                	add	a5,a5,a3
     e58:	c398                	sw	a4,0(a5)
     e5a:	0a0030ef          	jal	ra,3efa <rt_hw_interrupt_enable>
     e5e:	0141                	addi	sp,sp,16
     e60:	da6ff06f          	j	406 <__riscv_restore_0>
     e64:	06078793          	addi	a5,a5,96
     e68:	078a                	slli	a5,a5,0x2
     e6a:	e000e6b7          	lui	a3,0xe000e
     e6e:	b7e5                	j	e56 <nvic_irq_set+0x36>

00000e70 <USART1_IRQHandler>:
     e70:	34011173          	csrrw	sp,mscratch,sp
     e74:	39c020ef          	jal	ra,3210 <rt_interrupt_enter>
     e78:	200037b7          	lui	a5,0x20003
     e7c:	1907a783          	lw	a5,400(a5) # 20003190 <cpu_it>
     e80:	c391                	beqz	a5,e84 <USART1_IRQHandler+0x14>
     e82:	9782                	jalr	a5
     e84:	3ba020ef          	jal	ra,323e <rt_interrupt_leave>
     e88:	34011173          	csrrw	sp,mscratch,sp
     e8c:	30200073          	mret

00000e90 <USART2_IRQHandler>:
     e90:	34011173          	csrrw	sp,mscratch,sp
     e94:	37c020ef          	jal	ra,3210 <rt_interrupt_enter>
     e98:	200037b7          	lui	a5,0x20003
     e9c:	1947a783          	lw	a5,404(a5) # 20003194 <cpu_it+0x4>
     ea0:	c391                	beqz	a5,ea4 <USART2_IRQHandler+0x14>
     ea2:	9782                	jalr	a5
     ea4:	39a020ef          	jal	ra,323e <rt_interrupt_leave>
     ea8:	34011173          	csrrw	sp,mscratch,sp
     eac:	30200073          	mret

00000eb0 <USART3_IRQHandler>:
     eb0:	34011173          	csrrw	sp,mscratch,sp
     eb4:	35c020ef          	jal	ra,3210 <rt_interrupt_enter>
     eb8:	200037b7          	lui	a5,0x20003
     ebc:	1987a783          	lw	a5,408(a5) # 20003198 <cpu_it+0x8>
     ec0:	c391                	beqz	a5,ec4 <USART3_IRQHandler+0x14>
     ec2:	9782                	jalr	a5
     ec4:	37a020ef          	jal	ra,323e <rt_interrupt_leave>
     ec8:	34011173          	csrrw	sp,mscratch,sp
     ecc:	30200073          	mret

00000ed0 <UART4_IRQHandler>:
     ed0:	34011173          	csrrw	sp,mscratch,sp
     ed4:	33c020ef          	jal	ra,3210 <rt_interrupt_enter>
     ed8:	200037b7          	lui	a5,0x20003
     edc:	19c7a783          	lw	a5,412(a5) # 2000319c <cpu_it+0xc>
     ee0:	c391                	beqz	a5,ee4 <UART4_IRQHandler+0x14>
     ee2:	9782                	jalr	a5
     ee4:	35a020ef          	jal	ra,323e <rt_interrupt_leave>
     ee8:	34011173          	csrrw	sp,mscratch,sp
     eec:	30200073          	mret

00000ef0 <UART5_IRQHandler>:
     ef0:	34011173          	csrrw	sp,mscratch,sp
     ef4:	31c020ef          	jal	ra,3210 <rt_interrupt_enter>
     ef8:	200037b7          	lui	a5,0x20003
     efc:	1a07a783          	lw	a5,416(a5) # 200031a0 <cpu_it+0x10>
     f00:	c391                	beqz	a5,f04 <UART5_IRQHandler+0x14>
     f02:	9782                	jalr	a5
     f04:	33a020ef          	jal	ra,323e <rt_interrupt_leave>
     f08:	34011173          	csrrw	sp,mscratch,sp
     f0c:	30200073          	mret

00000f10 <UART6_IRQHandler>:
     f10:	34011173          	csrrw	sp,mscratch,sp
     f14:	2fc020ef          	jal	ra,3210 <rt_interrupt_enter>
     f18:	200037b7          	lui	a5,0x20003
     f1c:	1a47a783          	lw	a5,420(a5) # 200031a4 <cpu_it+0x14>
     f20:	c391                	beqz	a5,f24 <UART6_IRQHandler+0x14>
     f22:	9782                	jalr	a5
     f24:	31a020ef          	jal	ra,323e <rt_interrupt_leave>
     f28:	34011173          	csrrw	sp,mscratch,sp
     f2c:	30200073          	mret

00000f30 <UART7_IRQHandler>:
     f30:	34011173          	csrrw	sp,mscratch,sp
     f34:	2dc020ef          	jal	ra,3210 <rt_interrupt_enter>
     f38:	200037b7          	lui	a5,0x20003
     f3c:	1a87a783          	lw	a5,424(a5) # 200031a8 <cpu_it+0x18>
     f40:	c391                	beqz	a5,f44 <UART7_IRQHandler+0x14>
     f42:	9782                	jalr	a5
     f44:	2fa020ef          	jal	ra,323e <rt_interrupt_leave>
     f48:	34011173          	csrrw	sp,mscratch,sp
     f4c:	30200073          	mret

00000f50 <UART8_IRQHandler>:
     f50:	34011173          	csrrw	sp,mscratch,sp
     f54:	2bc020ef          	jal	ra,3210 <rt_interrupt_enter>
     f58:	200037b7          	lui	a5,0x20003
     f5c:	1ac7a783          	lw	a5,428(a5) # 200031ac <cpu_it+0x1c>
     f60:	c391                	beqz	a5,f64 <UART8_IRQHandler+0x14>
     f62:	9782                	jalr	a5
     f64:	2da020ef          	jal	ra,323e <rt_interrupt_leave>
     f68:	34011173          	csrrw	sp,mscratch,sp
     f6c:	30200073          	mret

00000f70 <bsp_dly_init>:
     f70:	c72ff2ef          	jal	t0,3e2 <__riscv_save_0>
     f74:	1101                	addi	sp,sp,-32
     f76:	779020ef          	jal	ra,3eee <rt_hw_interrupt_disable>
     f7a:	842a                	mv	s0,a0
     f7c:	4585                	li	a1,1
     f7e:	4541                	li	a0,16
     f80:	41b030ef          	jal	ra,4b9a <RCC_APB1PeriphClockCmd>
     f84:	4585                	li	a1,1
     f86:	4541                	li	a0,16
     f88:	44f030ef          	jal	ra,4bd6 <RCC_APB1PeriphResetCmd>
     f8c:	4581                	li	a1,0
     f8e:	4541                	li	a0,16
     f90:	447030ef          	jal	ra,4bd6 <RCC_APB1PeriphResetCmd>
     f94:	8522                	mv	a0,s0
     f96:	765020ef          	jal	ra,3efa <rt_hw_interrupt_enable>
     f9a:	0068                	addi	a0,sp,12
     f9c:	26b030ef          	jal	ra,4a06 <RCC_GetClocksFreq>
     fa0:	400017b7          	lui	a5,0x40001
     fa4:	00079023          	sh	zero,0(a5) # 40001000 <_eusrstack+0x1fff1000>
     fa8:	00079223          	sh	zero,4(a5)
     fac:	4705                	li	a4,1
     fae:	a7da                	sh	a4,12(a5)
     fb0:	00079823          	sh	zero,16(a5)
     fb4:	4742                	lw	a4,16(sp)
     fb6:	47d2                	lw	a5,20(sp)
     fb8:	00f70363          	beq	a4,a5,fbe <bsp_dly_init+0x4e>
     fbc:	0786                	slli	a5,a5,0x1
     fbe:	016e3737          	lui	a4,0x16e3
     fc2:	60070713          	addi	a4,a4,1536 # 16e3600 <__rtmsymtab_end+0x16d48b0>
     fc6:	02e7d7b3          	divu	a5,a5,a4
     fca:	40001737          	lui	a4,0x40001
     fce:	17fd                	addi	a5,a5,-1
     fd0:	07c2                	slli	a5,a5,0x10
     fd2:	83c1                	srli	a5,a5,0x10
     fd4:	b71e                	sh	a5,40(a4)
     fd6:	57fd                	li	a5,-1
     fd8:	b75e                	sh	a5,44(a4)
     fda:	4795                	li	a5,5
     fdc:	a31e                	sh	a5,0(a4)
     fde:	6105                	addi	sp,sp,32
     fe0:	c26ff06f          	j	406 <__riscv_restore_0>

00000fe4 <TIM6_IRQHandler>:
     fe4:	34011173          	csrrw	sp,mscratch,sp
     fe8:	228020ef          	jal	ra,3210 <rt_interrupt_enter>
     fec:	400017b7          	lui	a5,0x40001
     ff0:	00079823          	sh	zero,16(a5) # 40001010 <_eusrstack+0x1fff1010>
     ff4:	24a020ef          	jal	ra,323e <rt_interrupt_leave>
     ff8:	34011173          	csrrw	sp,mscratch,sp
     ffc:	30200073          	mret

00001000 <bsp_dly_get_cnt>:
    1000:	400017b7          	lui	a5,0x40001
    1004:	33ca                	lhu	a0,36(a5)
    1006:	8082                	ret

00001008 <o_led1_pin_en>:
    1008:	400117b7          	lui	a5,0x40011
    100c:	4705                	li	a4,1
    100e:	80e7aa23          	sw	a4,-2028(a5) # 40010814 <_eusrstack+0x20000814>
    1012:	8082                	ret

00001014 <o_led1_pin_dis>:
    1014:	400117b7          	lui	a5,0x40011
    1018:	4705                	li	a4,1
    101a:	80e7a823          	sw	a4,-2032(a5) # 40010810 <_eusrstack+0x20000810>
    101e:	8082                	ret

00001020 <o_led1_pin_out>:
    1020:	400117b7          	lui	a5,0x40011
    1024:	80078793          	addi	a5,a5,-2048 # 40010800 <_eusrstack+0x20000800>
    1028:	4705                	li	a4,1
    102a:	e119                	bnez	a0,1030 <o_led1_pin_out+0x10>
    102c:	cb98                	sw	a4,16(a5)
    102e:	8082                	ret
    1030:	cbd8                	sw	a4,20(a5)
    1032:	8082                	ret

00001034 <o_led1_pin_tog>:
    1034:	400117b7          	lui	a5,0x40011
    1038:	80078793          	addi	a5,a5,-2048 # 40010800 <_eusrstack+0x20000800>
    103c:	47d8                	lw	a4,12(a5)
    103e:	8b05                	andi	a4,a4,1
    1040:	c701                	beqz	a4,1048 <o_led1_pin_tog+0x14>
    1042:	4705                	li	a4,1
    1044:	cbd8                	sw	a4,20(a5)
    1046:	8082                	ret
    1048:	4705                	li	a4,1
    104a:	cb98                	sw	a4,16(a5)
    104c:	8082                	ret

0000104e <o_led1_pin_out_st>:
    104e:	400117b7          	lui	a5,0x40011
    1052:	80c7a503          	lw	a0,-2036(a5) # 4001080c <_eusrstack+0x2000080c>
    1056:	fff54513          	not	a0,a0
    105a:	8905                	andi	a0,a0,1
    105c:	8082                	ret

0000105e <o_led1_pin_in_st>:
    105e:	400117b7          	lui	a5,0x40011
    1062:	8087a503          	lw	a0,-2040(a5) # 40010808 <_eusrstack+0x20000808>
    1066:	fff54513          	not	a0,a0
    106a:	8905                	andi	a0,a0,1
    106c:	8082                	ret

0000106e <o_led2_pin_en>:
    106e:	400117b7          	lui	a5,0x40011
    1072:	4709                	li	a4,2
    1074:	80e7aa23          	sw	a4,-2028(a5) # 40010814 <_eusrstack+0x20000814>
    1078:	8082                	ret

0000107a <o_led2_pin_dis>:
    107a:	400117b7          	lui	a5,0x40011
    107e:	4709                	li	a4,2
    1080:	80e7a823          	sw	a4,-2032(a5) # 40010810 <_eusrstack+0x20000810>
    1084:	8082                	ret

00001086 <o_led2_pin_out>:
    1086:	400117b7          	lui	a5,0x40011
    108a:	80078793          	addi	a5,a5,-2048 # 40010800 <_eusrstack+0x20000800>
    108e:	4709                	li	a4,2
    1090:	e119                	bnez	a0,1096 <o_led2_pin_out+0x10>
    1092:	cb98                	sw	a4,16(a5)
    1094:	8082                	ret
    1096:	cbd8                	sw	a4,20(a5)
    1098:	8082                	ret

0000109a <o_led2_pin_tog>:
    109a:	400117b7          	lui	a5,0x40011
    109e:	80078793          	addi	a5,a5,-2048 # 40010800 <_eusrstack+0x20000800>
    10a2:	47d8                	lw	a4,12(a5)
    10a4:	8305                	srli	a4,a4,0x1
    10a6:	8b05                	andi	a4,a4,1
    10a8:	c701                	beqz	a4,10b0 <o_led2_pin_tog+0x16>
    10aa:	4709                	li	a4,2
    10ac:	cbd8                	sw	a4,20(a5)
    10ae:	8082                	ret
    10b0:	4709                	li	a4,2
    10b2:	cb98                	sw	a4,16(a5)
    10b4:	8082                	ret

000010b6 <o_led2_pin_out_st>:
    10b6:	400117b7          	lui	a5,0x40011
    10ba:	80c7a503          	lw	a0,-2036(a5) # 4001080c <_eusrstack+0x2000080c>
    10be:	8105                	srli	a0,a0,0x1
    10c0:	fff54513          	not	a0,a0
    10c4:	8905                	andi	a0,a0,1
    10c6:	8082                	ret

000010c8 <oled_dc_pin_en>:
    10c8:	400117b7          	lui	a5,0x40011
    10cc:	4705                	li	a4,1
    10ce:	c0e7a823          	sw	a4,-1008(a5) # 40010c10 <_eusrstack+0x20000c10>
    10d2:	8082                	ret

000010d4 <oled_dc_pin_dis>:
    10d4:	400117b7          	lui	a5,0x40011
    10d8:	4705                	li	a4,1
    10da:	c0e7aa23          	sw	a4,-1004(a5) # 40010c14 <_eusrstack+0x20000c14>
    10de:	8082                	ret

000010e0 <oled_dc_pin_out>:
    10e0:	400117b7          	lui	a5,0x40011
    10e4:	c0078793          	addi	a5,a5,-1024 # 40010c00 <_eusrstack+0x20000c00>
    10e8:	4705                	li	a4,1
    10ea:	c119                	beqz	a0,10f0 <oled_dc_pin_out+0x10>
    10ec:	cb98                	sw	a4,16(a5)
    10ee:	8082                	ret
    10f0:	cbd8                	sw	a4,20(a5)
    10f2:	8082                	ret

000010f4 <oled_dc_pin_tog>:
    10f4:	400117b7          	lui	a5,0x40011
    10f8:	c0078793          	addi	a5,a5,-1024 # 40010c00 <_eusrstack+0x20000c00>
    10fc:	47d8                	lw	a4,12(a5)
    10fe:	8b05                	andi	a4,a4,1
    1100:	c701                	beqz	a4,1108 <oled_dc_pin_tog+0x14>
    1102:	4705                	li	a4,1
    1104:	cbd8                	sw	a4,20(a5)
    1106:	8082                	ret
    1108:	4705                	li	a4,1
    110a:	cb98                	sw	a4,16(a5)
    110c:	8082                	ret

0000110e <oled_dc_pin_out_st>:
    110e:	400117b7          	lui	a5,0x40011
    1112:	c0c7a503          	lw	a0,-1012(a5) # 40010c0c <_eusrstack+0x20000c0c>
    1116:	8905                	andi	a0,a0,1
    1118:	8082                	ret

0000111a <oled_rst_pin_en>:
    111a:	400117b7          	lui	a5,0x40011
    111e:	4709                	li	a4,2
    1120:	c0e7a823          	sw	a4,-1008(a5) # 40010c10 <_eusrstack+0x20000c10>
    1124:	8082                	ret

00001126 <oled_rst_pin_dis>:
    1126:	400117b7          	lui	a5,0x40011
    112a:	4709                	li	a4,2
    112c:	c0e7aa23          	sw	a4,-1004(a5) # 40010c14 <_eusrstack+0x20000c14>
    1130:	8082                	ret

00001132 <oled_rst_pin_out>:
    1132:	400117b7          	lui	a5,0x40011
    1136:	c0078793          	addi	a5,a5,-1024 # 40010c00 <_eusrstack+0x20000c00>
    113a:	4709                	li	a4,2
    113c:	c119                	beqz	a0,1142 <oled_rst_pin_out+0x10>
    113e:	cb98                	sw	a4,16(a5)
    1140:	8082                	ret
    1142:	cbd8                	sw	a4,20(a5)
    1144:	8082                	ret

00001146 <oled_rst_pin_tog>:
    1146:	400117b7          	lui	a5,0x40011
    114a:	c0078793          	addi	a5,a5,-1024 # 40010c00 <_eusrstack+0x20000c00>
    114e:	47d8                	lw	a4,12(a5)
    1150:	8305                	srli	a4,a4,0x1
    1152:	8b05                	andi	a4,a4,1
    1154:	c701                	beqz	a4,115c <oled_rst_pin_tog+0x16>
    1156:	4709                	li	a4,2
    1158:	cbd8                	sw	a4,20(a5)
    115a:	8082                	ret
    115c:	4709                	li	a4,2
    115e:	cb98                	sw	a4,16(a5)
    1160:	8082                	ret

00001162 <oled_rst_pin_out_st>:
    1162:	400117b7          	lui	a5,0x40011
    1166:	c0c7a503          	lw	a0,-1012(a5) # 40010c0c <_eusrstack+0x20000c0c>
    116a:	8105                	srli	a0,a0,0x1
    116c:	8905                	andi	a0,a0,1
    116e:	8082                	ret

00001170 <spi_cs_pin_out>:
    1170:	400117b7          	lui	a5,0x40011
    1174:	c0078793          	addi	a5,a5,-1024 # 40010c00 <_eusrstack+0x20000c00>
    1178:	6705                	lui	a4,0x1
    117a:	c119                	beqz	a0,1180 <spi_cs_pin_out+0x10>
    117c:	cb98                	sw	a4,16(a5)
    117e:	8082                	ret
    1180:	cbd8                	sw	a4,20(a5)
    1182:	8082                	ret

00001184 <spi_cs_pin_tog>:
    1184:	400117b7          	lui	a5,0x40011
    1188:	c0078793          	addi	a5,a5,-1024 # 40010c00 <_eusrstack+0x20000c00>
    118c:	47d8                	lw	a4,12(a5)
    118e:	01371693          	slli	a3,a4,0x13
    1192:	6705                	lui	a4,0x1
    1194:	0006d463          	bgez	a3,119c <spi_cs_pin_tog+0x18>
    1198:	cbd8                	sw	a4,20(a5)
    119a:	8082                	ret
    119c:	cb98                	sw	a4,16(a5)
    119e:	8082                	ret

000011a0 <spi_cs_pin_out_st>:
    11a0:	400117b7          	lui	a5,0x40011
    11a4:	c0c7a503          	lw	a0,-1012(a5) # 40010c0c <_eusrstack+0x20000c0c>
    11a8:	8131                	srli	a0,a0,0xc
    11aa:	8905                	andi	a0,a0,1
    11ac:	8082                	ret

000011ae <oled_cs_pin_out>:
    11ae:	a34ff2ef          	jal	t0,3e2 <__riscv_save_0>
    11b2:	3f7d                	jal	1170 <spi_cs_pin_out>
    11b4:	a52ff06f          	j	406 <__riscv_restore_0>

000011b8 <oled_cs_pin_tog>:
    11b8:	a2aff2ef          	jal	t0,3e2 <__riscv_save_0>
    11bc:	37e1                	jal	1184 <spi_cs_pin_tog>
    11be:	a48ff06f          	j	406 <__riscv_restore_0>

000011c2 <oled_cs_pin_out_st>:
    11c2:	a20ff2ef          	jal	t0,3e2 <__riscv_save_0>
    11c6:	3fe9                	jal	11a0 <spi_cs_pin_out_st>
    11c8:	a3eff06f          	j	406 <__riscv_restore_0>

000011cc <user_key_pin_in_st>:
    11cc:	400117b7          	lui	a5,0x40011
    11d0:	8087a503          	lw	a0,-2040(a5) # 40010808 <_eusrstack+0x20000808>
    11d4:	8139                	srli	a0,a0,0xe
    11d6:	fff54513          	not	a0,a0
    11da:	8905                	andi	a0,a0,1
    11dc:	8082                	ret

000011de <oled_cs_pin_en>:
    11de:	400117b7          	lui	a5,0x40011
    11e2:	6705                	lui	a4,0x1
    11e4:	c0e7a823          	sw	a4,-1008(a5) # 40010c10 <_eusrstack+0x20000c10>
    11e8:	8082                	ret

000011ea <oled_cs_pin_dis>:
    11ea:	400117b7          	lui	a5,0x40011
    11ee:	6705                	lui	a4,0x1
    11f0:	c0e7aa23          	sw	a4,-1004(a5) # 40010c14 <_eusrstack+0x20000c14>
    11f4:	8082                	ret

000011f6 <bsp_gpio_init>:
    11f6:	9d2ff2ef          	jal	t0,3c8 <__riscv_save_4>
    11fa:	1141                	addi	sp,sp,-16
    11fc:	4585                	li	a1,1
    11fe:	4511                	li	a0,4
    1200:	17d030ef          	jal	ra,4b7c <RCC_APB2PeriphClockCmd>
    1204:	4585                	li	a1,1
    1206:	4521                	li	a0,8
    1208:	175030ef          	jal	ra,4b7c <RCC_APB2PeriphClockCmd>
    120c:	4585                	li	a1,1
    120e:	4541                	li	a0,16
    1210:	16d030ef          	jal	ra,4b7c <RCC_APB2PeriphClockCmd>
    1214:	4585                	li	a1,1
    1216:	02000513          	li	a0,32
    121a:	163030ef          	jal	ra,4b7c <RCC_APB2PeriphClockCmd>
    121e:	4585                	li	a1,1
    1220:	04000513          	li	a0,64
    1224:	159030ef          	jal	ra,4b7c <RCC_APB2PeriphClockCmd>
    1228:	6435                	lui	s0,0xd
    122a:	4585                	li	a1,1
    122c:	4505                	li	a0,1
    122e:	41840413          	addi	s0,s0,1048 # d418 <gpio_cfg>
    1232:	14b030ef          	jal	ra,4b7c <RCC_APB2PeriphClockCmd>
    1236:	12c40a13          	addi	s4,s0,300
    123a:	4ac1                	li	s5,16
    123c:	4044                	lw	s1,4(s0)
    123e:	00042903          	lw	s2,0(s0)
    1242:	01045983          	lhu	s3,16(s0)
    1246:	441c                	lw	a5,8(s0)
    1248:	c626                	sw	s1,12(sp)
    124a:	004c                	addi	a1,sp,4
    124c:	854a                	mv	a0,s2
    124e:	98ed                	andi	s1,s1,-5
    1250:	01311223          	sh	s3,4(sp)
    1254:	c43e                	sw	a5,8(sp)
    1256:	6a8030ef          	jal	ra,48fe <GPIO_Init>
    125a:	01549863          	bne	s1,s5,126a <bsp_gpio_init+0x74>
    125e:	445c                	lw	a5,12(s0)
    1260:	85ce                	mv	a1,s3
    1262:	854a                	mv	a0,s2
    1264:	c38d                	beqz	a5,1286 <bsp_gpio_init+0x90>
    1266:	762030ef          	jal	ra,49c8 <GPIO_SetBits>
    126a:	0451                	addi	s0,s0,20
    126c:	fd4418e3          	bne	s0,s4,123c <bsp_gpio_init+0x46>
    1270:	400117b7          	lui	a5,0x40011
    1274:	4705                	li	a4,1
    1276:	80e7a823          	sw	a4,-2032(a5) # 40010810 <_eusrstack+0x20000810>
    127a:	4709                	li	a4,2
    127c:	80e7a823          	sw	a4,-2032(a5)
    1280:	0141                	addi	sp,sp,16
    1282:	97aff06f          	j	3fc <__riscv_restore_4>
    1286:	746030ef          	jal	ra,49cc <GPIO_ResetBits>
    128a:	b7c5                	j	126a <bsp_gpio_init+0x74>

0000128c <bsp_gpio_mode_out_pp>:
    128c:	956ff2ef          	jal	t0,3e2 <__riscv_save_0>
    1290:	1141                	addi	sp,sp,-16
    1292:	842a                	mv	s0,a0
    1294:	c62e                	sw	a1,12(sp)
    1296:	459020ef          	jal	ra,3eee <rt_hw_interrupt_disable>
    129a:	45b2                	lw	a1,12(sp)
    129c:	47bd                	li	a5,15
    129e:	0035d713          	srli	a4,a1,0x3
    12a2:	070a                	slli	a4,a4,0x2
    12a4:	9722                	add	a4,a4,s0
    12a6:	899d                	andi	a1,a1,7
    12a8:	4314                	lw	a3,0(a4)
    12aa:	058a                	slli	a1,a1,0x2
    12ac:	00b797b3          	sll	a5,a5,a1
    12b0:	fff7c793          	not	a5,a5
    12b4:	8ff5                	and	a5,a5,a3
    12b6:	4685                	li	a3,1
    12b8:	00b695b3          	sll	a1,a3,a1
    12bc:	8fcd                	or	a5,a5,a1
    12be:	c31c                	sw	a5,0(a4)
    12c0:	43b020ef          	jal	ra,3efa <rt_hw_interrupt_enable>
    12c4:	0141                	addi	sp,sp,16
    12c6:	940ff06f          	j	406 <__riscv_restore_0>

000012ca <o_led2_dir_out_pp>:
    12ca:	918ff2ef          	jal	t0,3e2 <__riscv_save_0>
    12ce:	40011537          	lui	a0,0x40011
    12d2:	4585                	li	a1,1
    12d4:	80050513          	addi	a0,a0,-2048 # 40010800 <_eusrstack+0x20000800>
    12d8:	3f55                	jal	128c <bsp_gpio_mode_out_pp>
    12da:	92cff06f          	j	406 <__riscv_restore_0>

000012de <oled_dc_dir_out_pp>:
    12de:	904ff2ef          	jal	t0,3e2 <__riscv_save_0>
    12e2:	40011537          	lui	a0,0x40011
    12e6:	4581                	li	a1,0
    12e8:	c0050513          	addi	a0,a0,-1024 # 40010c00 <_eusrstack+0x20000c00>
    12ec:	3745                	jal	128c <bsp_gpio_mode_out_pp>
    12ee:	918ff06f          	j	406 <__riscv_restore_0>

000012f2 <oled_rst_dir_out_pp>:
    12f2:	8f0ff2ef          	jal	t0,3e2 <__riscv_save_0>
    12f6:	40011537          	lui	a0,0x40011
    12fa:	4585                	li	a1,1
    12fc:	c0050513          	addi	a0,a0,-1024 # 40010c00 <_eusrstack+0x20000c00>
    1300:	3771                	jal	128c <bsp_gpio_mode_out_pp>
    1302:	904ff06f          	j	406 <__riscv_restore_0>

00001306 <spi_cs_dir_out_pp>:
    1306:	8dcff2ef          	jal	t0,3e2 <__riscv_save_0>
    130a:	40011537          	lui	a0,0x40011
    130e:	45b1                	li	a1,12
    1310:	c0050513          	addi	a0,a0,-1024 # 40010c00 <_eusrstack+0x20000c00>
    1314:	3fa5                	jal	128c <bsp_gpio_mode_out_pp>
    1316:	8f0ff06f          	j	406 <__riscv_restore_0>

0000131a <oled_cs_dir_out_pp>:
    131a:	8c8ff2ef          	jal	t0,3e2 <__riscv_save_0>
    131e:	37e5                	jal	1306 <spi_cs_dir_out_pp>
    1320:	8e6ff06f          	j	406 <__riscv_restore_0>

00001324 <bsp_gpio_mode_out_od>:
    1324:	8beff2ef          	jal	t0,3e2 <__riscv_save_0>
    1328:	1141                	addi	sp,sp,-16
    132a:	842a                	mv	s0,a0
    132c:	c62e                	sw	a1,12(sp)
    132e:	3c1020ef          	jal	ra,3eee <rt_hw_interrupt_disable>
    1332:	45b2                	lw	a1,12(sp)
    1334:	47bd                	li	a5,15
    1336:	0035d713          	srli	a4,a1,0x3
    133a:	070a                	slli	a4,a4,0x2
    133c:	9722                	add	a4,a4,s0
    133e:	899d                	andi	a1,a1,7
    1340:	4314                	lw	a3,0(a4)
    1342:	058a                	slli	a1,a1,0x2
    1344:	00b797b3          	sll	a5,a5,a1
    1348:	fff7c793          	not	a5,a5
    134c:	8ff5                	and	a5,a5,a3
    134e:	4695                	li	a3,5
    1350:	00b695b3          	sll	a1,a3,a1
    1354:	8fcd                	or	a5,a5,a1
    1356:	c31c                	sw	a5,0(a4)
    1358:	3a3020ef          	jal	ra,3efa <rt_hw_interrupt_enable>
    135c:	0141                	addi	sp,sp,16
    135e:	8a8ff06f          	j	406 <__riscv_restore_0>

00001362 <o_led2_dir_out_od>:
    1362:	880ff2ef          	jal	t0,3e2 <__riscv_save_0>
    1366:	40011537          	lui	a0,0x40011
    136a:	4585                	li	a1,1
    136c:	80050513          	addi	a0,a0,-2048 # 40010800 <_eusrstack+0x20000800>
    1370:	3f55                	jal	1324 <bsp_gpio_mode_out_od>
    1372:	894ff06f          	j	406 <__riscv_restore_0>

00001376 <oled_dc_dir_out_od>:
    1376:	86cff2ef          	jal	t0,3e2 <__riscv_save_0>
    137a:	40011537          	lui	a0,0x40011
    137e:	4581                	li	a1,0
    1380:	c0050513          	addi	a0,a0,-1024 # 40010c00 <_eusrstack+0x20000c00>
    1384:	3745                	jal	1324 <bsp_gpio_mode_out_od>
    1386:	880ff06f          	j	406 <__riscv_restore_0>

0000138a <oled_rst_dir_out_od>:
    138a:	858ff2ef          	jal	t0,3e2 <__riscv_save_0>
    138e:	40011537          	lui	a0,0x40011
    1392:	4585                	li	a1,1
    1394:	c0050513          	addi	a0,a0,-1024 # 40010c00 <_eusrstack+0x20000c00>
    1398:	3771                	jal	1324 <bsp_gpio_mode_out_od>
    139a:	86cff06f          	j	406 <__riscv_restore_0>

0000139e <spi_cs_dir_out_od>:
    139e:	844ff2ef          	jal	t0,3e2 <__riscv_save_0>
    13a2:	40011537          	lui	a0,0x40011
    13a6:	45b1                	li	a1,12
    13a8:	c0050513          	addi	a0,a0,-1024 # 40010c00 <_eusrstack+0x20000c00>
    13ac:	3fa5                	jal	1324 <bsp_gpio_mode_out_od>
    13ae:	858ff06f          	j	406 <__riscv_restore_0>

000013b2 <oled_cs_dir_out_od>:
    13b2:	830ff2ef          	jal	t0,3e2 <__riscv_save_0>
    13b6:	37e5                	jal	139e <spi_cs_dir_out_od>
    13b8:	84eff06f          	j	406 <__riscv_restore_0>

000013bc <bsp_gpio_mode_out_pp_spd>:
    13bc:	826ff2ef          	jal	t0,3e2 <__riscv_save_0>
    13c0:	1141                	addi	sp,sp,-16
    13c2:	842a                	mv	s0,a0
    13c4:	c62e                	sw	a1,12(sp)
    13c6:	c432                	sw	a2,8(sp)
    13c8:	327020ef          	jal	ra,3eee <rt_hw_interrupt_disable>
    13cc:	45b2                	lw	a1,12(sp)
    13ce:	4622                	lw	a2,8(sp)
    13d0:	47bd                	li	a5,15
    13d2:	0035d713          	srli	a4,a1,0x3
    13d6:	070a                	slli	a4,a4,0x2
    13d8:	9722                	add	a4,a4,s0
    13da:	899d                	andi	a1,a1,7
    13dc:	4314                	lw	a3,0(a4)
    13de:	058a                	slli	a1,a1,0x2
    13e0:	00b797b3          	sll	a5,a5,a1
    13e4:	fff7c793          	not	a5,a5
    13e8:	8ff5                	and	a5,a5,a3
    13ea:	00b615b3          	sll	a1,a2,a1
    13ee:	8fcd                	or	a5,a5,a1
    13f0:	c31c                	sw	a5,0(a4)
    13f2:	309020ef          	jal	ra,3efa <rt_hw_interrupt_enable>
    13f6:	0141                	addi	sp,sp,16
    13f8:	80eff06f          	j	406 <__riscv_restore_0>

000013fc <bsp_gpio_mode_out_od_spd>:
    13fc:	fe7fe2ef          	jal	t0,3e2 <__riscv_save_0>
    1400:	1141                	addi	sp,sp,-16
    1402:	842a                	mv	s0,a0
    1404:	c62e                	sw	a1,12(sp)
    1406:	c432                	sw	a2,8(sp)
    1408:	2e7020ef          	jal	ra,3eee <rt_hw_interrupt_disable>
    140c:	45b2                	lw	a1,12(sp)
    140e:	4622                	lw	a2,8(sp)
    1410:	47bd                	li	a5,15
    1412:	0035d713          	srli	a4,a1,0x3
    1416:	070a                	slli	a4,a4,0x2
    1418:	9722                	add	a4,a4,s0
    141a:	899d                	andi	a1,a1,7
    141c:	4314                	lw	a3,0(a4)
    141e:	058a                	slli	a1,a1,0x2
    1420:	00b797b3          	sll	a5,a5,a1
    1424:	00466613          	ori	a2,a2,4
    1428:	fff7c793          	not	a5,a5
    142c:	8ff5                	and	a5,a5,a3
    142e:	00b615b3          	sll	a1,a2,a1
    1432:	8fcd                	or	a5,a5,a1
    1434:	c31c                	sw	a5,0(a4)
    1436:	2c5020ef          	jal	ra,3efa <rt_hw_interrupt_enable>
    143a:	0141                	addi	sp,sp,16
    143c:	fcbfe06f          	j	406 <__riscv_restore_0>

00001440 <bsp_gpio_mode_in_up>:
    1440:	fa3fe2ef          	jal	t0,3e2 <__riscv_save_0>
    1444:	1141                	addi	sp,sp,-16
    1446:	842a                	mv	s0,a0
    1448:	c62e                	sw	a1,12(sp)
    144a:	2a5020ef          	jal	ra,3eee <rt_hw_interrupt_disable>
    144e:	45b2                	lw	a1,12(sp)
    1450:	47bd                	li	a5,15
    1452:	0035d713          	srli	a4,a1,0x3
    1456:	070a                	slli	a4,a4,0x2
    1458:	9722                	add	a4,a4,s0
    145a:	0075f693          	andi	a3,a1,7
    145e:	4310                	lw	a2,0(a4)
    1460:	068a                	slli	a3,a3,0x2
    1462:	00d797b3          	sll	a5,a5,a3
    1466:	fff7c793          	not	a5,a5
    146a:	8ff1                	and	a5,a5,a2
    146c:	4621                	li	a2,8
    146e:	00d616b3          	sll	a3,a2,a3
    1472:	8fd5                	or	a5,a5,a3
    1474:	c31c                	sw	a5,0(a4)
    1476:	4785                	li	a5,1
    1478:	00b797b3          	sll	a5,a5,a1
    147c:	c85c                	sw	a5,20(s0)
    147e:	27d020ef          	jal	ra,3efa <rt_hw_interrupt_enable>
    1482:	0141                	addi	sp,sp,16
    1484:	f83fe06f          	j	406 <__riscv_restore_0>

00001488 <user_key_dir_in_up>:
    1488:	f5bfe2ef          	jal	t0,3e2 <__riscv_save_0>
    148c:	40011537          	lui	a0,0x40011
    1490:	45b9                	li	a1,14
    1492:	80050513          	addi	a0,a0,-2048 # 40010800 <_eusrstack+0x20000800>
    1496:	376d                	jal	1440 <bsp_gpio_mode_in_up>
    1498:	f6ffe06f          	j	406 <__riscv_restore_0>

0000149c <bsp_gpio_mode_in_dn>:
    149c:	f47fe2ef          	jal	t0,3e2 <__riscv_save_0>
    14a0:	1141                	addi	sp,sp,-16
    14a2:	842a                	mv	s0,a0
    14a4:	c62e                	sw	a1,12(sp)
    14a6:	249020ef          	jal	ra,3eee <rt_hw_interrupt_disable>
    14aa:	45b2                	lw	a1,12(sp)
    14ac:	47bd                	li	a5,15
    14ae:	0035d713          	srli	a4,a1,0x3
    14b2:	070a                	slli	a4,a4,0x2
    14b4:	9722                	add	a4,a4,s0
    14b6:	0075f693          	andi	a3,a1,7
    14ba:	4310                	lw	a2,0(a4)
    14bc:	068a                	slli	a3,a3,0x2
    14be:	00d797b3          	sll	a5,a5,a3
    14c2:	fff7c793          	not	a5,a5
    14c6:	8ff1                	and	a5,a5,a2
    14c8:	4621                	li	a2,8
    14ca:	00d616b3          	sll	a3,a2,a3
    14ce:	8fd5                	or	a5,a5,a3
    14d0:	c31c                	sw	a5,0(a4)
    14d2:	4785                	li	a5,1
    14d4:	00b797b3          	sll	a5,a5,a1
    14d8:	c81c                	sw	a5,16(s0)
    14da:	221020ef          	jal	ra,3efa <rt_hw_interrupt_enable>
    14de:	0141                	addi	sp,sp,16
    14e0:	f27fe06f          	j	406 <__riscv_restore_0>

000014e4 <user_key_dir_in_dn>:
    14e4:	efffe2ef          	jal	t0,3e2 <__riscv_save_0>
    14e8:	40011537          	lui	a0,0x40011
    14ec:	45b9                	li	a1,14
    14ee:	80050513          	addi	a0,a0,-2048 # 40010800 <_eusrstack+0x20000800>
    14f2:	376d                	jal	149c <bsp_gpio_mode_in_dn>
    14f4:	f13fe06f          	j	406 <__riscv_restore_0>

000014f8 <bsp_gpio_mode_in_ft>:
    14f8:	eebfe2ef          	jal	t0,3e2 <__riscv_save_0>
    14fc:	1141                	addi	sp,sp,-16
    14fe:	842a                	mv	s0,a0
    1500:	c62e                	sw	a1,12(sp)
    1502:	1ed020ef          	jal	ra,3eee <rt_hw_interrupt_disable>
    1506:	45b2                	lw	a1,12(sp)
    1508:	47bd                	li	a5,15
    150a:	0035d713          	srli	a4,a1,0x3
    150e:	070a                	slli	a4,a4,0x2
    1510:	9722                	add	a4,a4,s0
    1512:	899d                	andi	a1,a1,7
    1514:	4314                	lw	a3,0(a4)
    1516:	058a                	slli	a1,a1,0x2
    1518:	00b797b3          	sll	a5,a5,a1
    151c:	fff7c793          	not	a5,a5
    1520:	8ff5                	and	a5,a5,a3
    1522:	4691                	li	a3,4
    1524:	00b695b3          	sll	a1,a3,a1
    1528:	8fcd                	or	a5,a5,a1
    152a:	c31c                	sw	a5,0(a4)
    152c:	1cf020ef          	jal	ra,3efa <rt_hw_interrupt_enable>
    1530:	0141                	addi	sp,sp,16
    1532:	ed5fe06f          	j	406 <__riscv_restore_0>

00001536 <user_key_dir_in_ft>:
    1536:	eadfe2ef          	jal	t0,3e2 <__riscv_save_0>
    153a:	40011537          	lui	a0,0x40011
    153e:	45b9                	li	a1,14
    1540:	80050513          	addi	a0,a0,-2048 # 40010800 <_eusrstack+0x20000800>
    1544:	3f55                	jal	14f8 <bsp_gpio_mode_in_ft>
    1546:	ec1fe06f          	j	406 <__riscv_restore_0>

0000154a <bsp_gpio_mode_ain>:
    154a:	e99fe2ef          	jal	t0,3e2 <__riscv_save_0>
    154e:	1141                	addi	sp,sp,-16
    1550:	842a                	mv	s0,a0
    1552:	c62e                	sw	a1,12(sp)
    1554:	19b020ef          	jal	ra,3eee <rt_hw_interrupt_disable>
    1558:	45b2                	lw	a1,12(sp)
    155a:	47bd                	li	a5,15
    155c:	0035d713          	srli	a4,a1,0x3
    1560:	070a                	slli	a4,a4,0x2
    1562:	9722                	add	a4,a4,s0
    1564:	899d                	andi	a1,a1,7
    1566:	4314                	lw	a3,0(a4)
    1568:	058a                	slli	a1,a1,0x2
    156a:	00b797b3          	sll	a5,a5,a1
    156e:	fff7c793          	not	a5,a5
    1572:	8ff5                	and	a5,a5,a3
    1574:	c31c                	sw	a5,0(a4)
    1576:	185020ef          	jal	ra,3efa <rt_hw_interrupt_enable>
    157a:	0141                	addi	sp,sp,16
    157c:	e8bfe06f          	j	406 <__riscv_restore_0>

00001580 <bsp_gpio_mode_set>:
    1580:	167d                	addi	a2,a2,-1
    1582:	0ff67613          	andi	a2,a2,255
    1586:	47d5                	li	a5,21
    1588:	04c7e263          	bltu	a5,a2,15cc <bsp_gpio_mode_set+0x4c>
    158c:	e57fe2ef          	jal	t0,3e2 <__riscv_save_0>
    1590:	67b5                	lui	a5,0xd
    1592:	3c078793          	addi	a5,a5,960 # d3c0 <key_list+0x90>
    1596:	060a                	slli	a2,a2,0x2
    1598:	963e                	add	a2,a2,a5
    159a:	421c                	lw	a5,0(a2)
    159c:	8782                	jr	a5
    159e:	354d                	jal	1440 <bsp_gpio_mode_in_up>
    15a0:	e67fe06f          	j	406 <__riscv_restore_0>
    15a4:	3de5                	jal	149c <bsp_gpio_mode_in_dn>
    15a6:	bfed                	j	15a0 <bsp_gpio_mode_set+0x20>
    15a8:	3f81                	jal	14f8 <bsp_gpio_mode_in_ft>
    15aa:	bfdd                	j	15a0 <bsp_gpio_mode_set+0x20>
    15ac:	3f79                	jal	154a <bsp_gpio_mode_ain>
    15ae:	bfcd                	j	15a0 <bsp_gpio_mode_set+0x20>
    15b0:	4609                	li	a2,2
    15b2:	3529                	jal	13bc <bsp_gpio_mode_out_pp_spd>
    15b4:	b7f5                	j	15a0 <bsp_gpio_mode_set+0x20>
    15b6:	4609                	li	a2,2
    15b8:	3591                	jal	13fc <bsp_gpio_mode_out_od_spd>
    15ba:	b7dd                	j	15a0 <bsp_gpio_mode_set+0x20>
    15bc:	4605                	li	a2,1
    15be:	bfd5                	j	15b2 <bsp_gpio_mode_set+0x32>
    15c0:	4605                	li	a2,1
    15c2:	bfdd                	j	15b8 <bsp_gpio_mode_set+0x38>
    15c4:	460d                	li	a2,3
    15c6:	b7f5                	j	15b2 <bsp_gpio_mode_set+0x32>
    15c8:	460d                	li	a2,3
    15ca:	b7fd                	j	15b8 <bsp_gpio_mode_set+0x38>
    15cc:	8082                	ret

000015ce <o_led1_mode_set>:
    15ce:	e15fe2ef          	jal	t0,3e2 <__riscv_save_0>
    15d2:	862a                	mv	a2,a0
    15d4:	40011537          	lui	a0,0x40011
    15d8:	4581                	li	a1,0
    15da:	80050513          	addi	a0,a0,-2048 # 40010800 <_eusrstack+0x20000800>
    15de:	374d                	jal	1580 <bsp_gpio_mode_set>
    15e0:	e27fe06f          	j	406 <__riscv_restore_0>

000015e4 <lib_delay_ms>:
    15e4:	dfffe2ef          	jal	t0,3e2 <__riscv_save_0>
    15e8:	3e800793          	li	a5,1000
    15ec:	02f50533          	mul	a0,a0,a5
    15f0:	3e750513          	addi	a0,a0,999
    15f4:	02f54533          	div	a0,a0,a5
    15f8:	5c8020ef          	jal	ra,3bc0 <rt_thread_delay>
    15fc:	e0bfe06f          	j	406 <__riscv_restore_0>

00001600 <nor_spi_wb>:
    1600:	400047b7          	lui	a5,0x40004
    1604:	1141                	addi	sp,sp,-16
    1606:	80a79623          	sh	a0,-2036(a5) # 4000380c <_eusrstack+0x1fff380c>
    160a:	0001                	nop
    160c:	0001                	nop
    160e:	0001                	nop
    1610:	0001                	nop
    1612:	0001                	nop
    1614:	0001                	nop
    1616:	0001                	nop
    1618:	0001                	nop
    161a:	400046b7          	lui	a3,0x40004
    161e:	8086d783          	lhu	a5,-2040(a3) # 40003808 <_eusrstack+0x1fff3808>
    1622:	8b85                	andi	a5,a5,1
    1624:	dfed                	beqz	a5,161e <nor_spi_wb+0x1e>
    1626:	80c6d783          	lhu	a5,-2036(a3)
    162a:	0ff7f793          	andi	a5,a5,255
    162e:	87dc                	sb	a5,15(sp)
    1630:	879c                	lbu	a5,15(sp)
    1632:	0141                	addi	sp,sp,16
    1634:	8082                	ret

00001636 <nor_spi_init>:
    1636:	dadfe2ef          	jal	t0,3e2 <__riscv_save_0>
    163a:	1101                	addi	sp,sp,-32
    163c:	0b3020ef          	jal	ra,3eee <rt_hw_interrupt_disable>
    1640:	842a                	mv	s0,a0
    1642:	4585                	li	a1,1
    1644:	6511                	lui	a0,0x4
    1646:	554030ef          	jal	ra,4b9a <RCC_APB1PeriphClockCmd>
    164a:	4585                	li	a1,1
    164c:	6511                	lui	a0,0x4
    164e:	588030ef          	jal	ra,4bd6 <RCC_APB1PeriphResetCmd>
    1652:	4581                	li	a1,0
    1654:	6511                	lui	a0,0x4
    1656:	580030ef          	jal	ra,4bd6 <RCC_APB1PeriphResetCmd>
    165a:	8522                	mv	a0,s0
    165c:	09f020ef          	jal	ra,3efa <rt_hw_interrupt_enable>
    1660:	010407b7          	lui	a5,0x1040
    1664:	c63e                	sw	a5,12(sp)
    1666:	000207b7          	lui	a5,0x20
    166a:	c83e                	sw	a5,16(sp)
    166c:	020007b7          	lui	a5,0x2000
    1670:	40004437          	lui	s0,0x40004
    1674:	0785                	addi	a5,a5,1
    1676:	ca3e                	sw	a5,20(sp)
    1678:	006c                	addi	a1,sp,12
    167a:	47a1                	li	a5,8
    167c:	80040513          	addi	a0,s0,-2048 # 40003800 <_eusrstack+0x1fff3800>
    1680:	cc3e                	sw	a5,24(sp)
    1682:	00011e23          	sh	zero,28(sp)
    1686:	56e030ef          	jal	ra,4bf4 <SPI_Init>
    168a:	4585                	li	a1,1
    168c:	80040513          	addi	a0,s0,-2048
    1690:	5a2030ef          	jal	ra,4c32 <SPI_Cmd>
    1694:	0ff00513          	li	a0,255
    1698:	37a5                	jal	1600 <nor_spi_wb>
    169a:	6105                	addi	sp,sp,32
    169c:	d6bfe06f          	j	406 <__riscv_restore_0>

000016a0 <stack_used>:
    16a0:	080007b7          	lui	a5,0x8000
    16a4:	439c                	lw	a5,0(a5)
    16a6:	777d                	lui	a4,0xfffff
    16a8:	4501                	li	a0,0
    16aa:	97ba                	add	a5,a5,a4
    16ac:	efeff737          	lui	a4,0xefeff
    16b0:	173d                	addi	a4,a4,-17
    16b2:	6685                	lui	a3,0x1
    16b4:	00a78633          	add	a2,a5,a0
    16b8:	4210                	lw	a2,0(a2)
    16ba:	00e61563          	bne	a2,a4,16c4 <stack_used+0x24>
    16be:	0511                	addi	a0,a0,4
    16c0:	fed51ae3          	bne	a0,a3,16b4 <stack_used+0x14>
    16c4:	3e800793          	li	a5,1000
    16c8:	02f50533          	mul	a0,a0,a5
    16cc:	8131                	srli	a0,a0,0xc
    16ce:	40a78533          	sub	a0,a5,a0
    16d2:	0542                	slli	a0,a0,0x10
    16d4:	8141                	srli	a0,a0,0x10
    16d6:	8082                	ret

000016d8 <bsp_uart_init>:
    16d8:	d0bfe2ef          	jal	t0,3e2 <__riscv_save_0>
    16dc:	65f1                	lui	a1,0x1c
    16de:	4601                	li	a2,0
    16e0:	20058593          	addi	a1,a1,512 # 1c200 <__rtmsymtab_end+0xd4b0>
    16e4:	4501                	li	a0,0
    16e6:	2f5000ef          	jal	ra,21da <com01_Init>
    16ea:	d1dfe06f          	j	406 <__riscv_restore_0>

000016ee <uart01_timer_handle>:
    16ee:	200037b7          	lui	a5,0x20003
    16f2:	1b07a783          	lw	a5,432(a5) # 200031b0 <uart_timer>
    16f6:	c791                	beqz	a5,1702 <uart01_timer_handle+0x14>
    16f8:	cebfe2ef          	jal	t0,3e2 <__riscv_save_0>
    16fc:	9782                	jalr	a5
    16fe:	d09fe06f          	j	406 <__riscv_restore_0>
    1702:	8082                	ret

00001704 <uart07_timer_handle>:
    1704:	200037b7          	lui	a5,0x20003
    1708:	1b87a783          	lw	a5,440(a5) # 200031b8 <uart_timer+0x8>
    170c:	c791                	beqz	a5,1718 <uart07_timer_handle+0x14>
    170e:	cd5fe2ef          	jal	t0,3e2 <__riscv_save_0>
    1712:	9782                	jalr	a5
    1714:	cf3fe06f          	j	406 <__riscv_restore_0>
    1718:	8082                	ret

0000171a <uart08_timer_handle>:
    171a:	200037b7          	lui	a5,0x20003
    171e:	1bc7a783          	lw	a5,444(a5) # 200031bc <uart_timer+0xc>
    1722:	c791                	beqz	a5,172e <uart08_timer_handle+0x14>
    1724:	cbffe2ef          	jal	t0,3e2 <__riscv_save_0>
    1728:	9782                	jalr	a5
    172a:	cddfe06f          	j	406 <__riscv_restore_0>
    172e:	8082                	ret

00001730 <qc_rtu_byte_send>:
    1730:	400027b7          	lui	a5,0x40002
    1734:	c0a79223          	sh	a0,-1020(a5) # 40001c04 <_eusrstack+0x1fff1c04>
    1738:	8082                	ret

0000173a <qc_timer_run>:
    173a:	ca9fe2ef          	jal	t0,3e2 <__riscv_save_0>
    173e:	20003537          	lui	a0,0x20003
    1742:	9e050513          	addi	a0,a0,-1568 # 200029e0 <mb+0x550>
    1746:	2b0060ef          	jal	ra,79f6 <qc_timer_handle>
    174a:	cbdfe06f          	j	406 <__riscv_restore_0>

0000174e <USART7_obj_init>:
    174e:	c95fe2ef          	jal	t0,3e2 <__riscv_save_0>
    1752:	86b2                	mv	a3,a2
    1754:	862e                	mv	a2,a1
    1756:	85aa                	mv	a1,a0
    1758:	20003537          	lui	a0,0x20003
    175c:	9e050513          	addi	a0,a0,-1568 # 200029e0 <mb+0x550>
    1760:	3ca060ef          	jal	ra,7b2a <qc_obj_init>
    1764:	ca3fe06f          	j	406 <__riscv_restore_0>

00001768 <USART7_cmd_idle_num>:
    1768:	c7bfe2ef          	jal	t0,3e2 <__riscv_save_0>
    176c:	20003537          	lui	a0,0x20003
    1770:	9e050513          	addi	a0,a0,-1568 # 200029e0 <mb+0x550>
    1774:	1e0060ef          	jal	ra,7954 <mqc_cmd_idle_num>
    1778:	c8ffe06f          	j	406 <__riscv_restore_0>

0000177c <USART7_cmd_ready_num>:
    177c:	c67fe2ef          	jal	t0,3e2 <__riscv_save_0>
    1780:	20003537          	lui	a0,0x20003
    1784:	9e050513          	addi	a0,a0,-1568 # 200029e0 <mb+0x550>
    1788:	1ba060ef          	jal	ra,7942 <mqc_cmd_ready_num>
    178c:	c7bfe06f          	j	406 <__riscv_restore_0>

00001790 <USART7_stc_cmd_del>:
    1790:	c53fe2ef          	jal	t0,3e2 <__riscv_save_0>
    1794:	85aa                	mv	a1,a0
    1796:	20003537          	lui	a0,0x20003
    179a:	9e050513          	addi	a0,a0,-1568 # 200029e0 <mb+0x550>
    179e:	17c060ef          	jal	ra,791a <mqc_stc_cmd_del>
    17a2:	c65fe06f          	j	406 <__riscv_restore_0>

000017a6 <USART7_stc_cmd_req>:
    17a6:	c3dfe2ef          	jal	t0,3e2 <__riscv_save_0>
    17aa:	862e                	mv	a2,a1
    17ac:	85aa                	mv	a1,a0
    17ae:	20003537          	lui	a0,0x20003
    17b2:	9e050513          	addi	a0,a0,-1568 # 200029e0 <mb+0x550>
    17b6:	112060ef          	jal	ra,78c8 <mqc_stc_cmd_req>
    17ba:	c4dfe06f          	j	406 <__riscv_restore_0>

000017be <USART7_dyna_cmd_req>:
    17be:	c25fe2ef          	jal	t0,3e2 <__riscv_save_0>
    17c2:	85aa                	mv	a1,a0
    17c4:	20003537          	lui	a0,0x20003
    17c8:	9e050513          	addi	a0,a0,-1568 # 200029e0 <mb+0x550>
    17cc:	0be060ef          	jal	ra,788a <mqc_dyna_cmd_req>
    17d0:	c37fe06f          	j	406 <__riscv_restore_0>

000017d4 <USART7_cmd_clr>:
    17d4:	c0ffe2ef          	jal	t0,3e2 <__riscv_save_0>
    17d8:	20003537          	lui	a0,0x20003
    17dc:	9e050513          	addi	a0,a0,-1568 # 200029e0 <mb+0x550>
    17e0:	088060ef          	jal	ra,7868 <mqc_cmd_clr>
    17e4:	c23fe06f          	j	406 <__riscv_restore_0>

000017e8 <qc_tx1_rx0_enable.part.0>:
    17e8:	400027b7          	lui	a5,0x40002
    17ec:	c0c7d703          	lhu	a4,-1012(a5) # 40001c0c <_eusrstack+0x1fff1c0c>
    17f0:	c0078793          	addi	a5,a5,-1024
    17f4:	1141                	addi	sp,sp,-16
    17f6:	0742                	slli	a4,a4,0x10
    17f8:	8341                	srli	a4,a4,0x10
    17fa:	f3f77713          	andi	a4,a4,-193
    17fe:	0742                	slli	a4,a4,0x10
    1800:	8341                	srli	a4,a4,0x10
    1802:	a7da                	sh	a4,12(a5)
    1804:	27da                	lhu	a4,12(a5)
    1806:	400026b7          	lui	a3,0x40002
    180a:	00476713          	ori	a4,a4,4
    180e:	a7da                	sh	a4,12(a5)
    1810:	23de                	lhu	a5,4(a5)
    1812:	0ff7f793          	andi	a5,a5,255
    1816:	87dc                	sb	a5,15(sp)
    1818:	c006d783          	lhu	a5,-1024(a3) # 40001c00 <_eusrstack+0x1fff1c00>
    181c:	c0068713          	addi	a4,a3,-1024
    1820:	0287f793          	andi	a5,a5,40
    1824:	eb91                	bnez	a5,1838 <qc_tx1_rx0_enable.part.0+0x50>
    1826:	879c                	lbu	a5,15(sp)
    1828:	2756                	lhu	a3,12(a4)
    182a:	6789                	lui	a5,0x2
    182c:	02478793          	addi	a5,a5,36 # 2024 <comapi_wait_for_idle+0xa>
    1830:	8fd5                	or	a5,a5,a3
    1832:	a75e                	sh	a5,12(a4)
    1834:	0141                	addi	sp,sp,16
    1836:	8082                	ret
    1838:	235e                	lhu	a5,4(a4)
    183a:	0ff7f793          	andi	a5,a5,255
    183e:	87dc                	sb	a5,15(sp)
    1840:	bfe1                	j	1818 <qc_tx1_rx0_enable.part.0+0x30>

00001842 <QC_UART7_IRQHandler>:
    1842:	ba1fe2ef          	jal	t0,3e2 <__riscv_save_0>
    1846:	400027b7          	lui	a5,0x40002
    184a:	c0078713          	addi	a4,a5,-1024 # 40001c00 <_eusrstack+0x1fff1c00>
    184e:	c007d783          	lhu	a5,-1024(a5)
    1852:	1141                	addi	sp,sp,-16
    1854:	07c2                	slli	a5,a5,0x10
    1856:	83c1                	srli	a5,a5,0x10
    1858:	c63e                	sw	a5,12(sp)
    185a:	47b2                	lw	a5,12(sp)
    185c:	0207f793          	andi	a5,a5,32
    1860:	cf85                	beqz	a5,1898 <QC_UART7_IRQHandler+0x56>
    1862:	235e                	lhu	a5,4(a4)
    1864:	0ff7f793          	andi	a5,a5,255
    1868:	85dc                	sb	a5,11(sp)
    186a:	47b2                	lw	a5,12(sp)
    186c:	8b8d                	andi	a5,a5,3
    186e:	cb99                	beqz	a5,1884 <QC_UART7_IRQHandler+0x42>
    1870:	200027b7          	lui	a5,0x20002
    1874:	49078793          	addi	a5,a5,1168 # 20002490 <mb>
    1878:	5657c703          	lbu	a4,1381(a5)
    187c:	c701                	beqz	a4,1884 <QC_UART7_IRQHandler+0x42>
    187e:	4705                	li	a4,1
    1880:	54e78ca3          	sb	a4,1369(a5)
    1884:	858c                	lbu	a1,11(sp)
    1886:	20003537          	lui	a0,0x20003
    188a:	9e050513          	addi	a0,a0,-1568 # 200029e0 <mb+0x550>
    188e:	0d8060ef          	jal	ra,7966 <qc_data_rcv>
    1892:	0141                	addi	sp,sp,16
    1894:	b73fe06f          	j	406 <__riscv_restore_0>
    1898:	200027b7          	lui	a5,0x20002
    189c:	49078793          	addi	a5,a5,1168 # 20002490 <mb>
    18a0:	5647c703          	lbu	a4,1380(a5)
    18a4:	5637c783          	lbu	a5,1379(a5)
    18a8:	00e7ee63          	bltu	a5,a4,18c4 <QC_UART7_IRQHandler+0x82>
    18ac:	47b2                	lw	a5,12(sp)
    18ae:	0407f793          	andi	a5,a5,64
    18b2:	cb89                	beqz	a5,18c4 <QC_UART7_IRQHandler+0x82>
    18b4:	20003537          	lui	a0,0x20003
    18b8:	9e050513          	addi	a0,a0,-1568 # 200029e0 <mb+0x550>
    18bc:	0e6060ef          	jal	ra,79a2 <qc_send_end>
    18c0:	3725                	jal	17e8 <qc_tx1_rx0_enable.part.0>
    18c2:	bfc1                	j	1892 <QC_UART7_IRQHandler+0x50>
    18c4:	47b2                	lw	a5,12(sp)
    18c6:	0807f793          	andi	a5,a5,128
    18ca:	d7e1                	beqz	a5,1892 <QC_UART7_IRQHandler+0x50>
    18cc:	000015b7          	lui	a1,0x1
    18d0:	20003537          	lui	a0,0x20003
    18d4:	4605                	li	a2,1
    18d6:	73058593          	addi	a1,a1,1840 # 1730 <qc_rtu_byte_send>
    18da:	9e050513          	addi	a0,a0,-1568 # 200029e0 <mb+0x550>
    18de:	0dc060ef          	jal	ra,79ba <qc_data_send>
    18e2:	d945                	beqz	a0,1892 <QC_UART7_IRQHandler+0x50>
    18e4:	40002737          	lui	a4,0x40002
    18e8:	c0c75783          	lhu	a5,-1012(a4) # 40001c0c <_eusrstack+0x1fff1c0c>
    18ec:	07c2                	slli	a5,a5,0x10
    18ee:	83c1                	srli	a5,a5,0x10
    18f0:	f7f7f793          	andi	a5,a5,-129
    18f4:	07c2                	slli	a5,a5,0x10
    18f6:	83c1                	srli	a5,a5,0x10
    18f8:	c0f71623          	sh	a5,-1012(a4)
    18fc:	c0c75683          	lhu	a3,-1012(a4)
    1900:	6789                	lui	a5,0x2
    1902:	04878793          	addi	a5,a5,72 # 2048 <com_rx_enable.part.0+0x4>
    1906:	8fd5                	or	a5,a5,a3
    1908:	c0f71623          	sh	a5,-1012(a4)
    190c:	b759                	j	1892 <QC_UART7_IRQHandler+0x50>

0000190e <qc_port_send>:
    190e:	400027b7          	lui	a5,0x40002
    1912:	c0c7d703          	lhu	a4,-1012(a5) # 40001c0c <_eusrstack+0x1fff1c0c>
    1916:	0742                	slli	a4,a4,0x10
    1918:	8341                	srli	a4,a4,0x10
    191a:	fdb77713          	andi	a4,a4,-37
    191e:	0742                	slli	a4,a4,0x10
    1920:	8341                	srli	a4,a4,0x10
    1922:	c0e79623          	sh	a4,-1012(a5)
    1926:	c0c7d703          	lhu	a4,-1012(a5)
    192a:	0742                	slli	a4,a4,0x10
    192c:	8341                	srli	a4,a4,0x10
    192e:	fbf77713          	andi	a4,a4,-65
    1932:	0742                	slli	a4,a4,0x10
    1934:	8341                	srli	a4,a4,0x10
    1936:	c0e79623          	sh	a4,-1012(a5)
    193a:	c0c7d683          	lhu	a3,-1012(a5)
    193e:	6709                	lui	a4,0x2
    1940:	08870713          	addi	a4,a4,136 # 2088 <com_rx_enable+0x14>
    1944:	8f55                	or	a4,a4,a3
    1946:	c0e79623          	sh	a4,-1012(a5)
    194a:	8082                	ret

0000194c <qc07_Init>:
    194c:	a7dfe2ef          	jal	t0,3c8 <__riscv_save_4>
    1950:	1141                	addi	sp,sp,-16
    1952:	89aa                	mv	s3,a0
    1954:	8aae                	mv	s5,a1
    1956:	05800513          	li	a0,88
    195a:	45bd                	li	a1,15
    195c:	8932                	mv	s2,a2
    195e:	4601                	li	a2,0
    1960:	cc0ff0ef          	jal	ra,e20 <nvic_irq_set>
    1964:	200034b7          	lui	s1,0x20003
    1968:	1b048793          	addi	a5,s1,432 # 200031b0 <uart_timer>
    196c:	0007a423          	sw	zero,8(a5)
    1970:	000027b7          	lui	a5,0x2
    1974:	20003737          	lui	a4,0x20003
    1978:	84278793          	addi	a5,a5,-1982 # 1842 <QC_UART7_IRQHandler>
    197c:	4601                	li	a2,0
    197e:	45bd                	li	a1,15
    1980:	05800513          	li	a0,88
    1984:	1af72423          	sw	a5,424(a4) # 200031a8 <cpu_it+0x18>
    1988:	c98ff0ef          	jal	ra,e20 <nvic_irq_set>
    198c:	562020ef          	jal	ra,3eee <rt_hw_interrupt_disable>
    1990:	842a                	mv	s0,a0
    1992:	4585                	li	a1,1
    1994:	08000513          	li	a0,128
    1998:	202030ef          	jal	ra,4b9a <RCC_APB1PeriphClockCmd>
    199c:	4585                	li	a1,1
    199e:	08000513          	li	a0,128
    19a2:	234030ef          	jal	ra,4bd6 <RCC_APB1PeriphResetCmd>
    19a6:	4581                	li	a1,0
    19a8:	08000513          	li	a0,128
    19ac:	22a030ef          	jal	ra,4bd6 <RCC_APB1PeriphResetCmd>
    19b0:	8522                	mv	a0,s0
    19b2:	548020ef          	jal	ra,3efa <rt_hw_interrupt_enable>
    19b6:	200035b7          	lui	a1,0x20003
    19ba:	20003537          	lui	a0,0x20003
    19be:	4691                	li	a3,4
    19c0:	4641                	li	a2,16
    19c2:	b4858593          	addi	a1,a1,-1208 # 20002b48 <mb+0x6b8>
    19c6:	9e050513          	addi	a0,a0,-1568 # 200029e0 <mb+0x550>
    19ca:	160060ef          	jal	ra,7b2a <qc_obj_init>
    19ce:	20002437          	lui	s0,0x20002
    19d2:	6735                	lui	a4,0xd
    19d4:	49040793          	addi	a5,s0,1168 # 20002490 <mb>
    19d8:	5fc70713          	addi	a4,a4,1532 # d5fc <qc_mb_slave>
    19dc:	5ae7a223          	sw	a4,1444(a5)
    19e0:	6735                	lui	a4,0xd
    19e2:	5e070713          	addi	a4,a4,1504 # d5e0 <USART7_api>
    19e6:	5ae7aa23          	sw	a4,1460(a5)
    19ea:	00002737          	lui	a4,0x2
    19ee:	90e70713          	addi	a4,a4,-1778 # 190e <qc_port_send>
    19f2:	55378c23          	sb	s3,1368(a5)
    19f6:	5ae7a623          	sw	a4,1452(a5)
    19fa:	1b048493          	addi	s1,s1,432
    19fe:	49040413          	addi	s0,s0,1168
    1a02:	00090f63          	beqz	s2,1a20 <qc07_Init+0xd4>
    1a06:	478d                	li	a5,3
    1a08:	08f90663          	beq	s2,a5,1a94 <qc07_Init+0x148>
    1a0c:	4785                	li	a5,1
    1a0e:	40000a13          	li	s4,1024
    1a12:	00f91463          	bne	s2,a5,1a1a <qc07_Init+0xce>
    1a16:	60000a13          	li	s4,1536
    1a1a:	4981                	li	s3,0
    1a1c:	6905                	lui	s2,0x1
    1a1e:	a021                	j	1a26 <qc07_Init+0xda>
    1a20:	4a01                	li	s4,0
    1a22:	6989                	lui	s3,0x2
    1a24:	4901                	li	s2,0
    1a26:	6795                	lui	a5,0x5
    1a28:	b0078793          	addi	a5,a5,-1280 # 4b00 <RCC_GetClocksFreq+0xfa>
    1a2c:	0757f763          	bgeu	a5,s5,1a9a <qc07_Init+0x14e>
    1a30:	478d                	li	a5,3
    1a32:	54f40ea3          	sb	a5,1373(s0)
    1a36:	40002437          	lui	s0,0x40002
    1a3a:	47b1                	li	a5,12
    1a3c:	858a                	mv	a1,sp
    1a3e:	c0040513          	addi	a0,s0,-1024 # 40001c00 <_eusrstack+0x1fff1c00>
    1a42:	857c                	sh	a5,10(sp)
    1a44:	c056                	sw	s5,0(sp)
    1a46:	01411423          	sh	s4,8(sp)
    1a4a:	01311323          	sh	s3,6(sp)
    1a4e:	01211223          	sh	s2,4(sp)
    1a52:	00011623          	sh	zero,12(sp)
    1a56:	1f6030ef          	jal	ra,4c4c <USART_Init>
    1a5a:	4605                	li	a2,1
    1a5c:	4599                	li	a1,6
    1a5e:	05800513          	li	a0,88
    1a62:	bbeff0ef          	jal	ra,e20 <nvic_irq_set>
    1a66:	d83ff0ef          	jal	ra,17e8 <qc_tx1_rx0_enable.part.0>
    1a6a:	c0c45783          	lhu	a5,-1012(s0)
    1a6e:	00001537          	lui	a0,0x1
    1a72:	c0040413          	addi	s0,s0,-1024
    1a76:	0087e793          	ori	a5,a5,8
    1a7a:	a45e                	sh	a5,12(s0)
    1a7c:	000017b7          	lui	a5,0x1
    1a80:	73a78793          	addi	a5,a5,1850 # 173a <qc_timer_run>
    1a84:	70450513          	addi	a0,a0,1796 # 1704 <uart07_timer_handle>
    1a88:	c49c                	sw	a5,8(s1)
    1a8a:	b6eff0ef          	jal	ra,df8 <app_timer_task_add>
    1a8e:	0141                	addi	sp,sp,16
    1a90:	96dfe06f          	j	3fc <__riscv_restore_4>
    1a94:	4a01                	li	s4,0
    1a96:	4981                	li	s3,0
    1a98:	b771                	j	1a24 <qc07_Init+0xd8>
    1a9a:	668d                	lui	a3,0x3
    1a9c:	ee068693          	addi	a3,a3,-288 # 2ee0 <rt_thread_idle_entry+0x16>
    1aa0:	12c00613          	li	a2,300
    1aa4:	02700593          	li	a1,39
    1aa8:	8556                	mv	a0,s5
    1aaa:	3ef050ef          	jal	ra,7698 <com_timer_cal>
    1aae:	06350513          	addi	a0,a0,99
    1ab2:	06400793          	li	a5,100
    1ab6:	02f54533          	div	a0,a0,a5
    1aba:	54a40ea3          	sb	a0,1373(s0)
    1abe:	bfa5                	j	1a36 <qc07_Init+0xea>

00001ac0 <qc_rtu_byte_send>:
    1ac0:	400027b7          	lui	a5,0x40002
    1ac4:	a3ca                	sh	a0,4(a5)
    1ac6:	8082                	ret

00001ac8 <qc_timer_run>:
    1ac8:	91bfe2ef          	jal	t0,3e2 <__riscv_save_0>
    1acc:	20003537          	lui	a0,0x20003
    1ad0:	c8850513          	addi	a0,a0,-888 # 20002c88 <mb+0x7f8>
    1ad4:	723050ef          	jal	ra,79f6 <qc_timer_handle>
    1ad8:	92ffe06f          	j	406 <__riscv_restore_0>

00001adc <USART8_obj_init>:
    1adc:	907fe2ef          	jal	t0,3e2 <__riscv_save_0>
    1ae0:	86b2                	mv	a3,a2
    1ae2:	862e                	mv	a2,a1
    1ae4:	85aa                	mv	a1,a0
    1ae6:	20003537          	lui	a0,0x20003
    1aea:	c8850513          	addi	a0,a0,-888 # 20002c88 <mb+0x7f8>
    1aee:	03c060ef          	jal	ra,7b2a <qc_obj_init>
    1af2:	915fe06f          	j	406 <__riscv_restore_0>

00001af6 <USART8_cmd_idle_num>:
    1af6:	8edfe2ef          	jal	t0,3e2 <__riscv_save_0>
    1afa:	20003537          	lui	a0,0x20003
    1afe:	c8850513          	addi	a0,a0,-888 # 20002c88 <mb+0x7f8>
    1b02:	653050ef          	jal	ra,7954 <mqc_cmd_idle_num>
    1b06:	901fe06f          	j	406 <__riscv_restore_0>

00001b0a <USART8_cmd_ready_num>:
    1b0a:	8d9fe2ef          	jal	t0,3e2 <__riscv_save_0>
    1b0e:	20003537          	lui	a0,0x20003
    1b12:	c8850513          	addi	a0,a0,-888 # 20002c88 <mb+0x7f8>
    1b16:	62d050ef          	jal	ra,7942 <mqc_cmd_ready_num>
    1b1a:	8edfe06f          	j	406 <__riscv_restore_0>

00001b1e <USART8_stc_cmd_del>:
    1b1e:	8c5fe2ef          	jal	t0,3e2 <__riscv_save_0>
    1b22:	85aa                	mv	a1,a0
    1b24:	20003537          	lui	a0,0x20003
    1b28:	c8850513          	addi	a0,a0,-888 # 20002c88 <mb+0x7f8>
    1b2c:	5ef050ef          	jal	ra,791a <mqc_stc_cmd_del>
    1b30:	8d7fe06f          	j	406 <__riscv_restore_0>

00001b34 <USART8_stc_cmd_req>:
    1b34:	8affe2ef          	jal	t0,3e2 <__riscv_save_0>
    1b38:	862e                	mv	a2,a1
    1b3a:	85aa                	mv	a1,a0
    1b3c:	20003537          	lui	a0,0x20003
    1b40:	c8850513          	addi	a0,a0,-888 # 20002c88 <mb+0x7f8>
    1b44:	585050ef          	jal	ra,78c8 <mqc_stc_cmd_req>
    1b48:	8bffe06f          	j	406 <__riscv_restore_0>

00001b4c <USART8_dyna_cmd_req>:
    1b4c:	897fe2ef          	jal	t0,3e2 <__riscv_save_0>
    1b50:	85aa                	mv	a1,a0
    1b52:	20003537          	lui	a0,0x20003
    1b56:	c8850513          	addi	a0,a0,-888 # 20002c88 <mb+0x7f8>
    1b5a:	531050ef          	jal	ra,788a <mqc_dyna_cmd_req>
    1b5e:	8a9fe06f          	j	406 <__riscv_restore_0>

00001b62 <USART8_cmd_clr>:
    1b62:	881fe2ef          	jal	t0,3e2 <__riscv_save_0>
    1b66:	20003537          	lui	a0,0x20003
    1b6a:	c8850513          	addi	a0,a0,-888 # 20002c88 <mb+0x7f8>
    1b6e:	4fb050ef          	jal	ra,7868 <mqc_cmd_clr>
    1b72:	895fe06f          	j	406 <__riscv_restore_0>

00001b76 <qc_tx1_rx0_enable.part.0>:
    1b76:	40002737          	lui	a4,0x40002
    1b7a:	275e                	lhu	a5,12(a4)
    1b7c:	1141                	addi	sp,sp,-16
    1b7e:	07c2                	slli	a5,a5,0x10
    1b80:	83c1                	srli	a5,a5,0x10
    1b82:	f3f7f793          	andi	a5,a5,-193
    1b86:	07c2                	slli	a5,a5,0x10
    1b88:	83c1                	srli	a5,a5,0x10
    1b8a:	a75e                	sh	a5,12(a4)
    1b8c:	275e                	lhu	a5,12(a4)
    1b8e:	0047e793          	ori	a5,a5,4
    1b92:	a75e                	sh	a5,12(a4)
    1b94:	235e                	lhu	a5,4(a4)
    1b96:	0ff7f793          	andi	a5,a5,255
    1b9a:	87dc                	sb	a5,15(sp)
    1b9c:	231e                	lhu	a5,0(a4)
    1b9e:	0287f793          	andi	a5,a5,40
    1ba2:	fbed                	bnez	a5,1b94 <qc_tx1_rx0_enable.part.0+0x1e>
    1ba4:	879c                	lbu	a5,15(sp)
    1ba6:	2756                	lhu	a3,12(a4)
    1ba8:	6789                	lui	a5,0x2
    1baa:	02478793          	addi	a5,a5,36 # 2024 <comapi_wait_for_idle+0xa>
    1bae:	8fd5                	or	a5,a5,a3
    1bb0:	a75e                	sh	a5,12(a4)
    1bb2:	0141                	addi	sp,sp,16
    1bb4:	8082                	ret

00001bb6 <QC_UART8_IRQHandler>:
    1bb6:	82dfe2ef          	jal	t0,3e2 <__riscv_save_0>
    1bba:	40002737          	lui	a4,0x40002
    1bbe:	231e                	lhu	a5,0(a4)
    1bc0:	1141                	addi	sp,sp,-16
    1bc2:	07c2                	slli	a5,a5,0x10
    1bc4:	83c1                	srli	a5,a5,0x10
    1bc6:	c63e                	sw	a5,12(sp)
    1bc8:	47b2                	lw	a5,12(sp)
    1bca:	0207f793          	andi	a5,a5,32
    1bce:	cf85                	beqz	a5,1c06 <QC_UART8_IRQHandler+0x50>
    1bd0:	235e                	lhu	a5,4(a4)
    1bd2:	0ff7f793          	andi	a5,a5,255
    1bd6:	85dc                	sb	a5,11(sp)
    1bd8:	47b2                	lw	a5,12(sp)
    1bda:	8b8d                	andi	a5,a5,3
    1bdc:	cb99                	beqz	a5,1bf2 <QC_UART8_IRQHandler+0x3c>
    1bde:	200037b7          	lui	a5,0x20003
    1be2:	49078793          	addi	a5,a5,1168 # 20003490 <com_tx_buff+0x120>
    1be6:	80d7c703          	lbu	a4,-2035(a5)
    1bea:	c701                	beqz	a4,1bf2 <QC_UART8_IRQHandler+0x3c>
    1bec:	4705                	li	a4,1
    1bee:	80e780a3          	sb	a4,-2047(a5)
    1bf2:	858c                	lbu	a1,11(sp)
    1bf4:	20003537          	lui	a0,0x20003
    1bf8:	c8850513          	addi	a0,a0,-888 # 20002c88 <mb+0x7f8>
    1bfc:	56b050ef          	jal	ra,7966 <qc_data_rcv>
    1c00:	0141                	addi	sp,sp,16
    1c02:	805fe06f          	j	406 <__riscv_restore_0>
    1c06:	200037b7          	lui	a5,0x20003
    1c0a:	49078793          	addi	a5,a5,1168 # 20003490 <com_tx_buff+0x120>
    1c0e:	80c7c703          	lbu	a4,-2036(a5)
    1c12:	80b7c783          	lbu	a5,-2037(a5)
    1c16:	00e7ee63          	bltu	a5,a4,1c32 <QC_UART8_IRQHandler+0x7c>
    1c1a:	47b2                	lw	a5,12(sp)
    1c1c:	0407f793          	andi	a5,a5,64
    1c20:	cb89                	beqz	a5,1c32 <QC_UART8_IRQHandler+0x7c>
    1c22:	20003537          	lui	a0,0x20003
    1c26:	c8850513          	addi	a0,a0,-888 # 20002c88 <mb+0x7f8>
    1c2a:	579050ef          	jal	ra,79a2 <qc_send_end>
    1c2e:	37a1                	jal	1b76 <qc_tx1_rx0_enable.part.0>
    1c30:	bfc1                	j	1c00 <QC_UART8_IRQHandler+0x4a>
    1c32:	47b2                	lw	a5,12(sp)
    1c34:	0807f793          	andi	a5,a5,128
    1c38:	d7e1                	beqz	a5,1c00 <QC_UART8_IRQHandler+0x4a>
    1c3a:	000025b7          	lui	a1,0x2
    1c3e:	20003537          	lui	a0,0x20003
    1c42:	4605                	li	a2,1
    1c44:	ac058593          	addi	a1,a1,-1344 # 1ac0 <qc_rtu_byte_send>
    1c48:	c8850513          	addi	a0,a0,-888 # 20002c88 <mb+0x7f8>
    1c4c:	56f050ef          	jal	ra,79ba <qc_data_send>
    1c50:	d945                	beqz	a0,1c00 <QC_UART8_IRQHandler+0x4a>
    1c52:	40002737          	lui	a4,0x40002
    1c56:	275e                	lhu	a5,12(a4)
    1c58:	07c2                	slli	a5,a5,0x10
    1c5a:	83c1                	srli	a5,a5,0x10
    1c5c:	f7f7f793          	andi	a5,a5,-129
    1c60:	07c2                	slli	a5,a5,0x10
    1c62:	83c1                	srli	a5,a5,0x10
    1c64:	a75e                	sh	a5,12(a4)
    1c66:	2756                	lhu	a3,12(a4)
    1c68:	6789                	lui	a5,0x2
    1c6a:	04878793          	addi	a5,a5,72 # 2048 <com_rx_enable.part.0+0x4>
    1c6e:	8fd5                	or	a5,a5,a3
    1c70:	a75e                	sh	a5,12(a4)
    1c72:	b779                	j	1c00 <QC_UART8_IRQHandler+0x4a>

00001c74 <qc_port_send>:
    1c74:	40002737          	lui	a4,0x40002
    1c78:	275e                	lhu	a5,12(a4)
    1c7a:	07c2                	slli	a5,a5,0x10
    1c7c:	83c1                	srli	a5,a5,0x10
    1c7e:	fdb7f793          	andi	a5,a5,-37
    1c82:	07c2                	slli	a5,a5,0x10
    1c84:	83c1                	srli	a5,a5,0x10
    1c86:	a75e                	sh	a5,12(a4)
    1c88:	275e                	lhu	a5,12(a4)
    1c8a:	07c2                	slli	a5,a5,0x10
    1c8c:	83c1                	srli	a5,a5,0x10
    1c8e:	fbf7f793          	andi	a5,a5,-65
    1c92:	07c2                	slli	a5,a5,0x10
    1c94:	83c1                	srli	a5,a5,0x10
    1c96:	a75e                	sh	a5,12(a4)
    1c98:	2756                	lhu	a3,12(a4)
    1c9a:	6789                	lui	a5,0x2
    1c9c:	08878793          	addi	a5,a5,136 # 2088 <com_rx_enable+0x14>
    1ca0:	8fd5                	or	a5,a5,a3
    1ca2:	a75e                	sh	a5,12(a4)
    1ca4:	8082                	ret

00001ca6 <qc08_Init>:
    1ca6:	f22fe2ef          	jal	t0,3c8 <__riscv_save_4>
    1caa:	1141                	addi	sp,sp,-16
    1cac:	892a                	mv	s2,a0
    1cae:	8aae                	mv	s5,a1
    1cb0:	05900513          	li	a0,89
    1cb4:	45bd                	li	a1,15
    1cb6:	84b2                	mv	s1,a2
    1cb8:	4601                	li	a2,0
    1cba:	966ff0ef          	jal	ra,e20 <nvic_irq_set>
    1cbe:	20003437          	lui	s0,0x20003
    1cc2:	1b040793          	addi	a5,s0,432 # 200031b0 <uart_timer>
    1cc6:	0007a623          	sw	zero,12(a5)
    1cca:	000027b7          	lui	a5,0x2
    1cce:	20003737          	lui	a4,0x20003
    1cd2:	bb678793          	addi	a5,a5,-1098 # 1bb6 <QC_UART8_IRQHandler>
    1cd6:	4601                	li	a2,0
    1cd8:	45bd                	li	a1,15
    1cda:	05900513          	li	a0,89
    1cde:	1af72623          	sw	a5,428(a4) # 200031ac <cpu_it+0x1c>
    1ce2:	93eff0ef          	jal	ra,e20 <nvic_irq_set>
    1ce6:	208020ef          	jal	ra,3eee <rt_hw_interrupt_disable>
    1cea:	89aa                	mv	s3,a0
    1cec:	4585                	li	a1,1
    1cee:	10000513          	li	a0,256
    1cf2:	6a9020ef          	jal	ra,4b9a <RCC_APB1PeriphClockCmd>
    1cf6:	4585                	li	a1,1
    1cf8:	10000513          	li	a0,256
    1cfc:	6db020ef          	jal	ra,4bd6 <RCC_APB1PeriphResetCmd>
    1d00:	4581                	li	a1,0
    1d02:	10000513          	li	a0,256
    1d06:	6d1020ef          	jal	ra,4bd6 <RCC_APB1PeriphResetCmd>
    1d0a:	854e                	mv	a0,s3
    1d0c:	1ee020ef          	jal	ra,3efa <rt_hw_interrupt_enable>
    1d10:	200035b7          	lui	a1,0x20003
    1d14:	20003537          	lui	a0,0x20003
    1d18:	4691                	li	a3,4
    1d1a:	4641                	li	a2,16
    1d1c:	df058593          	addi	a1,a1,-528 # 20002df0 <mb+0x960>
    1d20:	c8850513          	addi	a0,a0,-888 # 20002c88 <mb+0x7f8>
    1d24:	607050ef          	jal	ra,7b2a <qc_obj_init>
    1d28:	200037b7          	lui	a5,0x20003
    1d2c:	6735                	lui	a4,0xd
    1d2e:	49078793          	addi	a5,a5,1168 # 20003490 <com_tx_buff+0x120>
    1d32:	63070713          	addi	a4,a4,1584 # d630 <qc_mb_slave>
    1d36:	84e7a623          	sw	a4,-1972(a5)
    1d3a:	6735                	lui	a4,0xd
    1d3c:	61470713          	addi	a4,a4,1556 # d614 <USART8_api>
    1d40:	84e7ae23          	sw	a4,-1956(a5)
    1d44:	00002737          	lui	a4,0x2
    1d48:	c7470713          	addi	a4,a4,-908 # 1c74 <qc_port_send>
    1d4c:	20003a37          	lui	s4,0x20003
    1d50:	81278023          	sb	s2,-2048(a5)
    1d54:	84e7aa23          	sw	a4,-1964(a5)
    1d58:	1b040413          	addi	s0,s0,432
    1d5c:	490a0a13          	addi	s4,s4,1168 # 20003490 <com_tx_buff+0x120>
    1d60:	cc91                	beqz	s1,1d7c <qc08_Init+0xd6>
    1d62:	478d                	li	a5,3
    1d64:	08f48263          	beq	s1,a5,1de8 <qc08_Init+0x142>
    1d68:	4785                	li	a5,1
    1d6a:	40000993          	li	s3,1024
    1d6e:	00f49463          	bne	s1,a5,1d76 <qc08_Init+0xd0>
    1d72:	60000993          	li	s3,1536
    1d76:	4901                	li	s2,0
    1d78:	6485                	lui	s1,0x1
    1d7a:	a021                	j	1d82 <qc08_Init+0xdc>
    1d7c:	4981                	li	s3,0
    1d7e:	6909                	lui	s2,0x2
    1d80:	4481                	li	s1,0
    1d82:	6795                	lui	a5,0x5
    1d84:	b0078793          	addi	a5,a5,-1280 # 4b00 <RCC_GetClocksFreq+0xfa>
    1d88:	0757f363          	bgeu	a5,s5,1dee <qc08_Init+0x148>
    1d8c:	478d                	li	a5,3
    1d8e:	80fa02a3          	sb	a5,-2043(s4)
    1d92:	47b1                	li	a5,12
    1d94:	858a                	mv	a1,sp
    1d96:	40002537          	lui	a0,0x40002
    1d9a:	857c                	sh	a5,10(sp)
    1d9c:	c056                	sw	s5,0(sp)
    1d9e:	01311423          	sh	s3,8(sp)
    1da2:	01211323          	sh	s2,6(sp)
    1da6:	8264                	sh	s1,4(sp)
    1da8:	00011623          	sh	zero,12(sp)
    1dac:	6a1020ef          	jal	ra,4c4c <USART_Init>
    1db0:	4605                	li	a2,1
    1db2:	4599                	li	a1,6
    1db4:	05900513          	li	a0,89
    1db8:	868ff0ef          	jal	ra,e20 <nvic_irq_set>
    1dbc:	dbbff0ef          	jal	ra,1b76 <qc_tx1_rx0_enable.part.0>
    1dc0:	40002737          	lui	a4,0x40002
    1dc4:	275e                	lhu	a5,12(a4)
    1dc6:	00001537          	lui	a0,0x1
    1dca:	71a50513          	addi	a0,a0,1818 # 171a <uart08_timer_handle>
    1dce:	0087e793          	ori	a5,a5,8
    1dd2:	a75e                	sh	a5,12(a4)
    1dd4:	000027b7          	lui	a5,0x2
    1dd8:	ac878793          	addi	a5,a5,-1336 # 1ac8 <qc_timer_run>
    1ddc:	c45c                	sw	a5,12(s0)
    1dde:	81aff0ef          	jal	ra,df8 <app_timer_task_add>
    1de2:	0141                	addi	sp,sp,16
    1de4:	e18fe06f          	j	3fc <__riscv_restore_4>
    1de8:	4981                	li	s3,0
    1dea:	4901                	li	s2,0
    1dec:	bf51                	j	1d80 <qc08_Init+0xda>
    1dee:	668d                	lui	a3,0x3
    1df0:	ee068693          	addi	a3,a3,-288 # 2ee0 <rt_thread_idle_entry+0x16>
    1df4:	12c00613          	li	a2,300
    1df8:	02700593          	li	a1,39
    1dfc:	8556                	mv	a0,s5
    1dfe:	09b050ef          	jal	ra,7698 <com_timer_cal>
    1e02:	06350513          	addi	a0,a0,99
    1e06:	06400793          	li	a5,100
    1e0a:	02f54533          	div	a0,a0,a5
    1e0e:	80aa02a3          	sb	a0,-2043(s4)
    1e12:	b741                	j	1d92 <qc08_Init+0xec>

00001e14 <com_hal_send>:
    1e14:	400147b7          	lui	a5,0x40014
    1e18:	80c7d683          	lhu	a3,-2036(a5) # 4001380c <_eusrstack+0x2000380c>
    1e1c:	6709                	lui	a4,0x2
    1e1e:	0721                	addi	a4,a4,8
    1e20:	8f55                	or	a4,a4,a3
    1e22:	80e79623          	sh	a4,-2036(a5)
    1e26:	80a79223          	sh	a0,-2044(a5)
    1e2a:	40014737          	lui	a4,0x40014
    1e2e:	80075783          	lhu	a5,-2048(a4) # 40013800 <_eusrstack+0x20003800>
    1e32:	0807f793          	andi	a5,a5,128
    1e36:	dfe5                	beqz	a5,1e2e <com_hal_send+0x1a>
    1e38:	8082                	ret

00001e3a <com_hal_read>:
    1e3a:	400147b7          	lui	a5,0x40014
    1e3e:	80078713          	addi	a4,a5,-2048 # 40013800 <_eusrstack+0x20003800>
    1e42:	8007d783          	lhu	a5,-2048(a5)
    1e46:	557d                	li	a0,-1
    1e48:	0207f793          	andi	a5,a5,32
    1e4c:	c781                	beqz	a5,1e54 <com_hal_read+0x1a>
    1e4e:	234a                	lhu	a0,4(a4)
    1e50:	0542                	slli	a0,a0,0x10
    1e52:	8541                	srai	a0,a0,0x10
    1e54:	8082                	ret

00001e56 <comapi_tail_rcv_end_2B>:
    1e56:	d8cfe2ef          	jal	t0,3e2 <__riscv_save_0>
    1e5a:	8736                	mv	a4,a3
    1e5c:	86b2                	mv	a3,a2
    1e5e:	862e                	mv	a2,a1
    1e60:	85aa                	mv	a1,a0
    1e62:	20003537          	lui	a0,0x20003
    1e66:	1c050513          	addi	a0,a0,448 # 200031c0 <com>
    1e6a:	758050ef          	jal	ra,75c2 <com_tail_rcv_end_2B>
    1e6e:	d98fe06f          	j	406 <__riscv_restore_0>

00001e72 <comapi_tail_rcv_end_3B>:
    1e72:	d70fe2ef          	jal	t0,3e2 <__riscv_save_0>
    1e76:	8736                	mv	a4,a3
    1e78:	86b2                	mv	a3,a2
    1e7a:	862e                	mv	a2,a1
    1e7c:	85aa                	mv	a1,a0
    1e7e:	20003537          	lui	a0,0x20003
    1e82:	1c050513          	addi	a0,a0,448 # 200031c0 <com>
    1e86:	6b0050ef          	jal	ra,7536 <com_tail_rcv_end_3B>
    1e8a:	d7cfe06f          	j	406 <__riscv_restore_0>

00001e8e <comapi_tail_rcv_end_4B>:
    1e8e:	d54fe2ef          	jal	t0,3e2 <__riscv_save_0>
    1e92:	8736                	mv	a4,a3
    1e94:	86b2                	mv	a3,a2
    1e96:	862e                	mv	a2,a1
    1e98:	85aa                	mv	a1,a0
    1e9a:	20003537          	lui	a0,0x20003
    1e9e:	1c050513          	addi	a0,a0,448 # 200031c0 <com>
    1ea2:	612050ef          	jal	ra,74b4 <com_tail_rcv_end_4B>
    1ea6:	d60fe06f          	j	406 <__riscv_restore_0>

00001eaa <comapi_tail_rcv_line>:
    1eaa:	d38fe2ef          	jal	t0,3e2 <__riscv_save_0>
    1eae:	86b2                	mv	a3,a2
    1eb0:	862e                	mv	a2,a1
    1eb2:	85aa                	mv	a1,a0
    1eb4:	20003537          	lui	a0,0x20003
    1eb8:	1c050513          	addi	a0,a0,448 # 200031c0 <com>
    1ebc:	580050ef          	jal	ra,743c <com_tail_rcv_line>
    1ec0:	d46fe06f          	j	406 <__riscv_restore_0>

00001ec4 <comapi_tail_rcv_multi>:
    1ec4:	d1efe2ef          	jal	t0,3e2 <__riscv_save_0>
    1ec8:	86b2                	mv	a3,a2
    1eca:	862e                	mv	a2,a1
    1ecc:	85aa                	mv	a1,a0
    1ece:	20003537          	lui	a0,0x20003
    1ed2:	1c050513          	addi	a0,a0,448 # 200031c0 <com>
    1ed6:	4ee050ef          	jal	ra,73c4 <com_tail_rcv_multi>
    1eda:	d2cfe06f          	j	406 <__riscv_restore_0>

00001ede <comapi_tail_rcv_byte>:
    1ede:	d04fe2ef          	jal	t0,3e2 <__riscv_save_0>
    1ee2:	85aa                	mv	a1,a0
    1ee4:	20003537          	lui	a0,0x20003
    1ee8:	1c050513          	addi	a0,a0,448 # 200031c0 <com>
    1eec:	4aa050ef          	jal	ra,7396 <com_tail_rcv_byte>
    1ef0:	d16fe06f          	j	406 <__riscv_restore_0>

00001ef4 <comapi_snd_remain_amount>:
    1ef4:	ceefe2ef          	jal	t0,3e2 <__riscv_save_0>
    1ef8:	20003537          	lui	a0,0x20003
    1efc:	1c050513          	addi	a0,a0,448 # 200031c0 <com>
    1f00:	426050ef          	jal	ra,7326 <com_snd_remain_amount>
    1f04:	d02fe06f          	j	406 <__riscv_restore_0>

00001f08 <comapi_rcv_remain_amount>:
    1f08:	cdafe2ef          	jal	t0,3e2 <__riscv_save_0>
    1f0c:	20003537          	lui	a0,0x20003
    1f10:	1c050513          	addi	a0,a0,448 # 200031c0 <com>
    1f14:	212050ef          	jal	ra,7126 <com_rcv_remain_amount>
    1f18:	ceefe06f          	j	406 <__riscv_restore_0>

00001f1c <comapi_rcv_end_2B>:
    1f1c:	cc6fe2ef          	jal	t0,3e2 <__riscv_save_0>
    1f20:	86b2                	mv	a3,a2
    1f22:	862e                	mv	a2,a1
    1f24:	85aa                	mv	a1,a0
    1f26:	20003537          	lui	a0,0x20003
    1f2a:	1c050513          	addi	a0,a0,448 # 200031c0 <com>
    1f2e:	37e050ef          	jal	ra,72ac <com_rcv_end_2B>
    1f32:	cd4fe06f          	j	406 <__riscv_restore_0>

00001f36 <comapi_rcv_end_3B>:
    1f36:	cacfe2ef          	jal	t0,3e2 <__riscv_save_0>
    1f3a:	86b2                	mv	a3,a2
    1f3c:	862e                	mv	a2,a1
    1f3e:	85aa                	mv	a1,a0
    1f40:	20003537          	lui	a0,0x20003
    1f44:	1c050513          	addi	a0,a0,448 # 200031c0 <com>
    1f48:	2dc050ef          	jal	ra,7224 <com_rcv_end_3B>
    1f4c:	cbafe06f          	j	406 <__riscv_restore_0>

00001f50 <comapi_rcv_end_4B>:
    1f50:	c92fe2ef          	jal	t0,3e2 <__riscv_save_0>
    1f54:	86b2                	mv	a3,a2
    1f56:	862e                	mv	a2,a1
    1f58:	85aa                	mv	a1,a0
    1f5a:	20003537          	lui	a0,0x20003
    1f5e:	1c050513          	addi	a0,a0,448 # 200031c0 <com>
    1f62:	24c050ef          	jal	ra,71ae <com_rcv_end_4B>
    1f66:	ca0fe06f          	j	406 <__riscv_restore_0>

00001f6a <comapi_rcv_line>:
    1f6a:	c78fe2ef          	jal	t0,3e2 <__riscv_save_0>
    1f6e:	862e                	mv	a2,a1
    1f70:	85aa                	mv	a1,a0
    1f72:	20003537          	lui	a0,0x20003
    1f76:	1c050513          	addi	a0,a0,448 # 200031c0 <com>
    1f7a:	1c6050ef          	jal	ra,7140 <com_rcv_line>
    1f7e:	c88fe06f          	j	406 <__riscv_restore_0>

00001f82 <comapi_rcv_multi>:
    1f82:	c60fe2ef          	jal	t0,3e2 <__riscv_save_0>
    1f86:	862e                	mv	a2,a1
    1f88:	85aa                	mv	a1,a0
    1f8a:	20003537          	lui	a0,0x20003
    1f8e:	1c050513          	addi	a0,a0,448 # 200031c0 <com>
    1f92:	144050ef          	jal	ra,70d6 <com_rcv_multi>
    1f96:	c70fe06f          	j	406 <__riscv_restore_0>

00001f9a <comapi_snd_data>:
    1f9a:	c48fe2ef          	jal	t0,3e2 <__riscv_save_0>
    1f9e:	862e                	mv	a2,a1
    1fa0:	85aa                	mv	a1,a0
    1fa2:	20003537          	lui	a0,0x20003
    1fa6:	1c050513          	addi	a0,a0,448 # 200031c0 <com>
    1faa:	0ca050ef          	jal	ra,7074 <com_snd_data>
    1fae:	c58fe06f          	j	406 <__riscv_restore_0>

00001fb2 <comapi_snd_string>:
    1fb2:	c30fe2ef          	jal	t0,3e2 <__riscv_save_0>
    1fb6:	85aa                	mv	a1,a0
    1fb8:	20003537          	lui	a0,0x20003
    1fbc:	1c050513          	addi	a0,a0,448 # 200031c0 <com>
    1fc0:	062050ef          	jal	ra,7022 <com_snd_string>
    1fc4:	c42fe06f          	j	406 <__riscv_restore_0>

00001fc8 <comapi_rcv_byte>:
    1fc8:	c1afe2ef          	jal	t0,3e2 <__riscv_save_0>
    1fcc:	20003537          	lui	a0,0x20003
    1fd0:	1c050513          	addi	a0,a0,448 # 200031c0 <com>
    1fd4:	024050ef          	jal	ra,6ff8 <com_rcv_byte>
    1fd8:	c2efe06f          	j	406 <__riscv_restore_0>

00001fdc <comapi_snd_byte>:
    1fdc:	c06fe2ef          	jal	t0,3e2 <__riscv_save_0>
    1fe0:	85aa                	mv	a1,a0
    1fe2:	20003537          	lui	a0,0x20003
    1fe6:	1c050513          	addi	a0,a0,448 # 200031c0 <com>
    1fea:	7cb040ef          	jal	ra,6fb4 <com_snd_byte>
    1fee:	c18fe06f          	j	406 <__riscv_restore_0>

00001ff2 <comapi_snd_st_clr>:
    1ff2:	bf0fe2ef          	jal	t0,3e2 <__riscv_save_0>
    1ff6:	20003537          	lui	a0,0x20003
    1ffa:	1c050513          	addi	a0,a0,448 # 200031c0 <com>
    1ffe:	67e050ef          	jal	ra,767c <com_snd_st_clr>
    2002:	c04fe06f          	j	406 <__riscv_restore_0>

00002006 <comapi_rcv_st_clr>:
    2006:	bdcfe2ef          	jal	t0,3e2 <__riscv_save_0>
    200a:	20003537          	lui	a0,0x20003
    200e:	1c050513          	addi	a0,a0,448 # 200031c0 <com>
    2012:	636050ef          	jal	ra,7648 <com_rcv_st_clr>
    2016:	bf0fe06f          	j	406 <__riscv_restore_0>

0000201a <comapi_wait_for_idle>:
    201a:	bc8fe2ef          	jal	t0,3e2 <__riscv_save_0>
    201e:	85aa                	mv	a1,a0
    2020:	20003537          	lui	a0,0x20003
    2024:	1c050513          	addi	a0,a0,448 # 200031c0 <com>
    2028:	6ed040ef          	jal	ra,6f14 <com_wait_for_idle>
    202c:	bdafe06f          	j	406 <__riscv_restore_0>

00002030 <comapi_idle_check>:
    2030:	bb2fe2ef          	jal	t0,3e2 <__riscv_save_0>
    2034:	20003537          	lui	a0,0x20003
    2038:	1c050513          	addi	a0,a0,448 # 200031c0 <com>
    203c:	6c9040ef          	jal	ra,6f04 <com_idle_check>
    2040:	bc6fe06f          	j	406 <__riscv_restore_0>

00002044 <com_rx_enable.part.0>:
    2044:	1141                	addi	sp,sp,-16
    2046:	400146b7          	lui	a3,0x40014
    204a:	8006d783          	lhu	a5,-2048(a3) # 40013800 <_eusrstack+0x20003800>
    204e:	80068713          	addi	a4,a3,-2048
    2052:	0207f793          	andi	a5,a5,32
    2056:	eb91                	bnez	a5,206a <com_rx_enable.part.0+0x26>
    2058:	879c                	lbu	a5,15(sp)
    205a:	2756                	lhu	a3,12(a4)
    205c:	6789                	lui	a5,0x2
    205e:	02478793          	addi	a5,a5,36 # 2024 <comapi_wait_for_idle+0xa>
    2062:	8fd5                	or	a5,a5,a3
    2064:	a75e                	sh	a5,12(a4)
    2066:	0141                	addi	sp,sp,16
    2068:	8082                	ret
    206a:	235e                	lhu	a5,4(a4)
    206c:	0ff7f793          	andi	a5,a5,255
    2070:	87dc                	sb	a5,15(sp)
    2072:	bfe1                	j	204a <com_rx_enable.part.0+0x6>

00002074 <com_rx_enable>:
    2074:	c519                	beqz	a0,2082 <com_rx_enable+0xe>
    2076:	b6cfe2ef          	jal	t0,3e2 <__riscv_save_0>
    207a:	fcbff0ef          	jal	ra,2044 <com_rx_enable.part.0>
    207e:	b88fe06f          	j	406 <__riscv_restore_0>
    2082:	40014737          	lui	a4,0x40014
    2086:	80c75783          	lhu	a5,-2036(a4) # 4001380c <_eusrstack+0x2000380c>
    208a:	07c2                	slli	a5,a5,0x10
    208c:	83c1                	srli	a5,a5,0x10
    208e:	fdb7f793          	andi	a5,a5,-37
    2092:	07c2                	slli	a5,a5,0x10
    2094:	83c1                	srli	a5,a5,0x10
    2096:	80f71623          	sh	a5,-2036(a4)
    209a:	8082                	ret

0000209c <com_tx_enable>:
    209c:	20003737          	lui	a4,0x20003
    20a0:	1c070713          	addi	a4,a4,448 # 200031c0 <com>
    20a4:	cd11                	beqz	a0,20c0 <com_tx_enable+0x24>
    20a6:	4785                	li	a5,1
    20a8:	cf5c                	sw	a5,28(a4)
    20aa:	40014737          	lui	a4,0x40014
    20ae:	80c75683          	lhu	a3,-2036(a4) # 4001380c <_eusrstack+0x2000380c>
    20b2:	6789                	lui	a5,0x2
    20b4:	08878793          	addi	a5,a5,136 # 2088 <com_rx_enable+0x14>
    20b8:	8fd5                	or	a5,a5,a3
    20ba:	80f71623          	sh	a5,-2036(a4)
    20be:	8082                	ret
    20c0:	400146b7          	lui	a3,0x40014
    20c4:	80c6d783          	lhu	a5,-2036(a3) # 4001380c <_eusrstack+0x2000380c>
    20c8:	07c2                	slli	a5,a5,0x10
    20ca:	83c1                	srli	a5,a5,0x10
    20cc:	f7f7f793          	andi	a5,a5,-129
    20d0:	07c2                	slli	a5,a5,0x10
    20d2:	83c1                	srli	a5,a5,0x10
    20d4:	80f69623          	sh	a5,-2036(a3)
    20d8:	00072e23          	sw	zero,28(a4)
    20dc:	8082                	ret

000020de <com_timer_handle>:
    20de:	b04fe2ef          	jal	t0,3e2 <__riscv_save_0>
    20e2:	83418793          	addi	a5,gp,-1996 # 20000354 <b_dir_ctr_req>
    20e6:	2398                	lbu	a4,0(a5)
    20e8:	200034b7          	lui	s1,0x20003
    20ec:	c71d                	beqz	a4,211a <com_timer_handle+0x3c>
    20ee:	40014737          	lui	a4,0x40014
    20f2:	80075703          	lhu	a4,-2048(a4) # 40013800 <_eusrstack+0x20003800>
    20f6:	04077713          	andi	a4,a4,64
    20fa:	c305                	beqz	a4,211a <com_timer_handle+0x3c>
    20fc:	1c048413          	addi	s0,s1,448 # 200031c0 <com>
    2100:	4501                	li	a0,0
    2102:	00078023          	sb	zero,0(a5)
    2106:	00042e23          	sw	zero,28(s0)
    210a:	f93ff0ef          	jal	ra,209c <com_tx_enable>
    210e:	285c                	lbu	a5,20(s0)
    2110:	c789                	beqz	a5,211a <com_timer_handle+0x3c>
    2112:	478d                	li	a5,3
    2114:	d01c                	sw	a5,32(s0)
    2116:	f2fff0ef          	jal	ra,2044 <com_rx_enable.part.0>
    211a:	1c048513          	addi	a0,s1,448
    211e:	5a2050ef          	jal	ra,76c0 <com_timer_run>
    2122:	ae4fe06f          	j	406 <__riscv_restore_0>

00002126 <COM_USART1_IRQHandler>:
    2126:	abcfe2ef          	jal	t0,3e2 <__riscv_save_0>
    212a:	400147b7          	lui	a5,0x40014
    212e:	80078693          	addi	a3,a5,-2048 # 40013800 <_eusrstack+0x20003800>
    2132:	8007d783          	lhu	a5,-2048(a5)
    2136:	1141                	addi	sp,sp,-16
    2138:	20003537          	lui	a0,0x20003
    213c:	07c2                	slli	a5,a5,0x10
    213e:	83c1                	srli	a5,a5,0x10
    2140:	c63e                	sw	a5,12(sp)
    2142:	4732                	lw	a4,12(sp)
    2144:	1c050413          	addi	s0,a0,448 # 200031c0 <com>
    2148:	00041723          	sh	zero,14(s0)
    214c:	02077713          	andi	a4,a4,32
    2150:	c315                	beqz	a4,2174 <COM_USART1_IRQHandler+0x4e>
    2152:	4785                	li	a5,1
    2154:	b01c                	sb	a5,1(s0)
    2156:	4785                	li	a5,1
    2158:	d01c                	sw	a5,32(s0)
    215a:	b83c                	sb	a5,19(s0)
    215c:	00041223          	sh	zero,4(s0)
    2160:	22ce                	lhu	a1,4(a3)
    2162:	1c050513          	addi	a0,a0,448
    2166:	0ff5f593          	andi	a1,a1,255
    216a:	635040ef          	jal	ra,6f9e <com_rx_rcv>
    216e:	0141                	addi	sp,sp,16
    2170:	a96fe06f          	j	406 <__riscv_restore_0>
    2174:	4732                	lw	a4,12(sp)
    2176:	08077713          	andi	a4,a4,128
    217a:	db75                	beqz	a4,216e <COM_USART1_IRQHandler+0x48>
    217c:	1c050793          	addi	a5,a0,448
    2180:	37ba                	lhu	a4,42(a5)
    2182:	378e                	lhu	a1,40(a5)
    2184:	04e58363          	beq	a1,a4,21ca <COM_USART1_IRQHandler+0xa4>
    2188:	0347a803          	lw	a6,52(a5)
    218c:	0267d883          	lhu	a7,38(a5)
    2190:	40014637          	lui	a2,0x40014
    2194:	80065703          	lhu	a4,-2048(a2) # 40013800 <_eusrstack+0x20003800>
    2198:	80060513          	addi	a0,a2,-2048
    219c:	08077713          	andi	a4,a4,128
    21a0:	d779                	beqz	a4,216e <COM_USART1_IRQHandler+0x48>
    21a2:	37ba                	lhu	a4,42(a5)
    21a4:	fce585e3          	beq	a1,a4,216e <COM_USART1_IRQHandler+0x48>
    21a8:	37ba                	lhu	a4,42(a5)
    21aa:	0742                	slli	a4,a4,0x10
    21ac:	8341                	srli	a4,a4,0x10
    21ae:	00170693          	addi	a3,a4,1
    21b2:	06c2                	slli	a3,a3,0x10
    21b4:	82c1                	srli	a3,a3,0x10
    21b6:	b7b6                	sh	a3,42(a5)
    21b8:	9742                	add	a4,a4,a6
    21ba:	2318                	lbu	a4,0(a4)
    21bc:	a15a                	sh	a4,4(a0)
    21be:	37ba                	lhu	a4,42(a5)
    21c0:	fd176ae3          	bltu	a4,a7,2194 <COM_USART1_IRQHandler+0x6e>
    21c4:	02079523          	sh	zero,42(a5)
    21c8:	b7f1                	j	2194 <COM_USART1_IRQHandler+0x6e>
    21ca:	4501                	li	a0,0
    21cc:	ed1ff0ef          	jal	ra,209c <com_tx_enable>
    21d0:	285c                	lbu	a5,20(s0)
    21d2:	dfd1                	beqz	a5,216e <COM_USART1_IRQHandler+0x48>
    21d4:	478d                	li	a5,3
    21d6:	d01c                	sw	a5,32(s0)
    21d8:	bf59                	j	216e <COM_USART1_IRQHandler+0x48>

000021da <com01_Init>:
    21da:	9e0fe2ef          	jal	t0,3ba <__riscv_save_10>
    21de:	1141                	addi	sp,sp,-16
    21e0:	8aaa                	mv	s5,a0
    21e2:	8b2e                	mv	s6,a1
    21e4:	03500513          	li	a0,53
    21e8:	45bd                	li	a1,15
    21ea:	8432                	mv	s0,a2
    21ec:	20003937          	lui	s2,0x20003
    21f0:	4601                	li	a2,0
    21f2:	1a092823          	sw	zero,432(s2) # 200031b0 <uart_timer>
    21f6:	c2bfe0ef          	jal	ra,e20 <nvic_irq_set>
    21fa:	000027b7          	lui	a5,0x2
    21fe:	12678793          	addi	a5,a5,294 # 2126 <COM_USART1_IRQHandler>
    2202:	20003737          	lui	a4,0x20003
    2206:	18f72823          	sw	a5,400(a4) # 20003190 <cpu_it>
    220a:	4e5010ef          	jal	ra,3eee <rt_hw_interrupt_disable>
    220e:	84aa                	mv	s1,a0
    2210:	4585                	li	a1,1
    2212:	6511                	lui	a0,0x4
    2214:	169020ef          	jal	ra,4b7c <RCC_APB2PeriphClockCmd>
    2218:	4585                	li	a1,1
    221a:	6511                	lui	a0,0x4
    221c:	19d020ef          	jal	ra,4bb8 <RCC_APB2PeriphResetCmd>
    2220:	4581                	li	a1,0
    2222:	6511                	lui	a0,0x4
    2224:	195020ef          	jal	ra,4bb8 <RCC_APB2PeriphResetCmd>
    2228:	8526                	mv	a0,s1
    222a:	4d1010ef          	jal	ra,3efa <rt_hw_interrupt_enable>
    222e:	200039b7          	lui	s3,0x20003
    2232:	04c00613          	li	a2,76
    2236:	4581                	li	a1,0
    2238:	1c098513          	addi	a0,s3,448 # 200031c0 <com>
    223c:	5d5030ef          	jal	ra,6010 <set_u8>
    2240:	4789                	li	a5,2
    2242:	00f40d63          	beq	s0,a5,225c <com01_Init+0x82>
    2246:	478d                	li	a5,3
    2248:	0ef40463          	beq	s0,a5,2330 <com01_Init+0x156>
    224c:	4785                	li	a5,1
    224e:	4b81                	li	s7,0
    2250:	4a01                	li	s4,0
    2252:	00f41363          	bne	s0,a5,2258 <com01_Init+0x7e>
    2256:	6a09                	lui	s4,0x2
    2258:	4481                	li	s1,0
    225a:	a029                	j	2264 <com01_Init+0x8a>
    225c:	60000b93          	li	s7,1536
    2260:	4a01                	li	s4,0
    2262:	6485                	lui	s1,0x1
    2264:	6695                	lui	a3,0x5
    2266:	e2068693          	addi	a3,a3,-480 # 4e20 <key_st_handle+0x2c>
    226a:	12c00613          	li	a2,300
    226e:	03700593          	li	a1,55
    2272:	855a                	mv	a0,s6
    2274:	424050ef          	jal	ra,7698 <com_timer_cal>
    2278:	06400793          	li	a5,100
    227c:	02f55533          	divu	a0,a0,a5
    2280:	20003437          	lui	s0,0x20003
    2284:	1c040413          	addi	s0,s0,448 # 200031c0 <com>
    2288:	0542                	slli	a0,a0,0x10
    228a:	8141                	srli	a0,a0,0x10
    228c:	0a0a9563          	bnez	s5,2336 <com01_Init+0x15c>
    2290:	8264                	sh	s1,4(sp)
    2292:	400144b7          	lui	s1,0x40014
    2296:	47b1                	li	a5,12
    2298:	a06a                	sh	a0,6(s0)
    229a:	858a                	mv	a1,sp
    229c:	80048513          	addi	a0,s1,-2048 # 40013800 <_eusrstack+0x20003800>
    22a0:	857c                	sh	a5,10(sp)
    22a2:	c05a                	sw	s6,0(sp)
    22a4:	01711423          	sh	s7,8(sp)
    22a8:	01411323          	sh	s4,6(sp)
    22ac:	00011623          	sh	zero,12(sp)
    22b0:	19d020ef          	jal	ra,4c4c <USART_Init>
    22b4:	4605                	li	a2,1
    22b6:	4599                	li	a1,6
    22b8:	03500513          	li	a0,53
    22bc:	b65fe0ef          	jal	ra,e20 <nvic_irq_set>
    22c0:	4785                	li	a5,1
    22c2:	a83c                	sb	a5,18(s0)
    22c4:	1cf98023          	sb	a5,448(s3)
